:020000040800F2
:1000000070090020490200086B320008E12F000847
:1000100069320008F51800089B380008000000004D
:100020000000000000000000000000004D34000847
:10003000F71800080000000049340008D93400080F
:1000400063020008630200086302000863020008FC
:10005000630200084B3400086302000863020008D2
:1000600063020008630200086302000863020008DC
:1000700063020008630200086302000863020008CC
:1000800063020008630200086302000863020008BC
:10009000630200086302000863020008F918000800
:1000A000630200086302000863020008630200089C
:1000B000813500086302000863020008630200083B
:1000C000630200086302000863020008630200087C
:1000D000630200086302000863020008630200086C
:1000E000630200086302000863020008630200085C
:1000F000630200086302000863020008630200084C
:10010000630200086302000863020008630200083B
:10011000630200086302000863020008630200082B
:10012000630200086302000863020008630200081B
:10013000630200086302000863020008630200080B
:1001400063020008630200086302000863020008FB
:1001500063020008630200086302000863020008EB
:1001600063020008630200086302000863020008DB
:100170006302000863020008630200080000000038
:10018000630200086302000800F002F800F04CF877
:100190000AA090E8000C82448344AAF10107DA45E2
:1001A00001D100F041F8AFF2090EBAE80F0013F0E8
:1001B000010F18BFFB1A43F001031847C03B0000B2
:1001C000E03B0000103A24BF78C878C1FAD8520743
:1001D00024BF30C830C144BF04680C6070470000C1
:1001E0000023002400250026103A28BF78C1FBD840
:1001F000520728BF30C148BF0B607047662903F023
:100200006485642900F00081002070471FB503F069
:1002100052FD00F023FC04000020002103F082FBCB
:10022000E0601FBD10B510BD00F018FD1146FFF7CE
:10023000EDFF03F05BFB00F036FD03B4FFF7F2FFC8
:1002400003BC00F079FD00000948804709480047D9
:10025000FEE7FEE7FEE7FEE7FEE7FEE7FEE7FEE776
:10026000FEE7FEE704480549054A064B70470000D3
:100270007135000889010008700300207009002012
:10028000700500207005002053EA020C00F0698020
:100290002DE9F04B4FF00006002B1FBFB3FA83F59A
:1002A00003FA05F424FA05F65E4012BF1643B2FACB
:1002B00082F502FA05F4C5F120051EBF22FA05FCFD
:1002C00044EA0C04203556EA044C4FEA144418BFA3
:1002D000641C4FF000084FF00009904271EB030CD2
:1002E00039D3002919BFB1FA81F701FA07F6B0FA3C
:1002F00080F700FA07F6C7F120071EBF20FA07FCB7
:1003000046EA0C062037B6FBF4FCA7EB0507103FC6
:1003100007F01F0BCBF120060CFA0BFB2CFA06F6AC
:1003200044BFB3460026202FA4BF5E464FF0000B0B
:100330005BEA060C08BF4FF0010B19EB0B09ABFB96
:10034000027C48EB0608C01B06FB02CC0BFB03CC6F
:1003500071EB0C01C1E70B46024641464846BDE839
:10036000F08B13B54FF000004FF00001AFF30080A9
:10037000BDE81C40704700000FB41CB5074B06AA2F
:100380007B4469460090059800F04FFB00206946C9
:1003900000F05EFB1CBC5DF814FB0000CD06000005
:1003A0002DE9F0410E460446002020622046E16817
:1003B000884730B3252805D0D4E901219047206A29
:1003C000401CF2E7E168204600278847050018D066
:1003D000A5F14100192802D820354FF400673246B4
:1003E000294620462760FFF709FF40B1012804D0C5
:1003F000F61D26F007060836D8E7361DD6E728464C
:10040000DAE7206ABDE8F0812DE9F04106460024D4
:1004100010687529314616A510D0AFF3008000286A
:1004200002DA404213A507E031688A0701D512A518
:1004300002E0490704D511A5012401E0AFF30080D3
:1004400000210A2206F1240709E0B0FBF2FCB0FB10
:10045000F2F302FB1C00303078541846491C002887
:10046000F3D123462A463046BDE8F04100F070B88B
:10047000000000002D0000002B0000002000000004
:1004800030B505460B462A4613F8014B12F8010B0E
:1004900008B1A042F8D01CB1002802D06D1CF1E7D1
:1004A000284630BD40EA010310B59B070FD1042A4E
:1004B0000DD310C808C9121F9C42F8D020BA19BA2F
:1004C000884201D9012010BD4FF0FF3010BD1AB194
:1004D000D30703D0521C07E0002010BD10F8013BE9
:1004E00011F8014B1B1B07D110F8013B11F8014B10
:1004F0001B1B01D1921EF1D1184610BD4FF0000216
:1005000000B5134694469646203922BFA0E80C5009
:10051000A0E80C50B1F12001BFF4F7AF090728BFE4
:10052000A0E80C5048BF0CC05DF804EB890028BF60
:1005300040F8042B08BF704748BF20F8022B11F089
:10054000804F18BF00F8012B704770477047704705
:100550002DE9F0470D4699469246044600F12408DD
:100560000168880604D5E06921F01001216000E0EF
:100570000120A84201DD471B00E00027A1697A198C
:1005800002EB0900081AA0612078C00602D42046B8
:10059000AFF30080002608E0D4E901211AF8060034
:1005A0009047206A401C761C20624E45F4DB207880
:1005B000C0060AD52046AFF3008006E0D4E9012149
:1005C00030209047206A401C2062381EA7F10107A6
:1005D000F4DC07E0D4E9012118F805009047206A0F
:1005E000401C2062281EA5F10105F3DC2046AFF374
:1005F00000802078000602D50220BDE8F0870120A7
:10060000FBE770472DE9FF4F0C461E464FF0FF37C2
:100610008BB0D2E90001DDF860800A908A46C1F310
:100620000A5505B93D46002108464FF00000BAF1D1
:10063000000F00F4400005DA00EB80004FF44001A9
:1006400001EA50004FEA9059B9F1010F00DDB946B7
:100650000A9850EA4A000ED044F61050A5F2FF3531
:1006600045432F14B8F1000F1ED07542291E1EDD20
:10067000C9F100021CE0B8F1010F4FF0000001D0F9
:10068000302103E0F24305E02154401CB042FBDB83
:1006900030460022002121540B99C1F80880C1E99D
:1006A00000200FB0BDE8F08FBD1B6D1CDEE74A4691
:1006B00000DA694206A800F05BFA06AB93E807008F
:1006C00003AB83E8070050460A9900F03CFB8DE835
:1006D0000700A0F500501F3800900398002D0ADD98
:1006E00042F21F014A460844002303A903906846CA
:1006F00000F0A5FD09E0A0F500504A461F38002390
:1007000003A90390684600F0AFFD8DE807000004E0
:10071000000C03D04FF0FF30410800E01046B8F164
:10072000000F03D00022009215461EE0751E05D46E
:1007300000F098F9303262556D1EF9D5B3460122AA
:10074000084302D000227F1C04E02078302801D129
:1007500000227F1E002A099784D01DE0112D07DAA0
:1007600000F080F9303262556D1C50EA0102F5D17B
:10077000084302D00098C8B10EE00021681E05E0D1
:10078000235C625C63542254401E491C8142F7DBA7
:10079000AB46A81B401E0990002004F80B000B98E4
:1007A000099AC0F80880C0E9002B7AE711264FF0BB
:1007B000000857E72DE9F04F88460446D21D22F085
:1007C000070191B0D1E90001CDE90A0103F066F813
:1007D00002460B98C00F01D02D2007E0206881074A
:1007E00001D52B2002E0202101EAC000032A099054
:1007F00001D0072A05DB03464146204600F078F980
:100800000BE12078800601D5E06900E00620B8F110
:10081000650F814606D0B8F1660F18D0B8F1670FA2
:1008200070D131E00020B9F1110F009001DB1123EC
:1008300001E009F101030AAA01A90CA8FFF7E2FEF1
:10084000DDE90C70002609F10105834647E001202F
:100850004B4600904FF000470AAA01A90CA8FFF7E9
:10086000D1FEDDE90DB00C995D46002610B909F105
:1008700001000D18B9EB050003D4C0F1FF3609F1F2
:100880000105A5EB09002BE0B9F1010F01DA4FF0EA
:1008900001090020B9F1110F0090484601DD112334
:1008A00000E003460AAA01A90CA8FFF7ABFEDDE9A8
:1008B0000C704D4600268346207800070AD4AB45CD
:1008C00000DA5D4601A8012D04DD411911F8011C73
:1008D000302907D04F4502DA17F1040F04DA01205E
:1008E00082460FE06D1EEEE7002F02DCED1B3E445A
:1008F00003E0781CA84200DD7D1CB81B00F1010A52
:100900004FF000472078000703D4AA4501DB4FF0E1
:10091000FF3A0021B7F1004F0DF143088DF8431065
:1009200024D002202B23002F01DA7F422D230A211D
:10093000021EA0F1010000DC5FB197FBF1FC97FB08
:10094000F1F201FB1C7C17460CF1300C08F801CDCC
:10095000EEE7A8F1010003702188090501D54521C2
:1009600000E06521A0F1010800F8011C09980FA919
:10097000A1EB0807FF1D00B10120411901EBEA704E
:10098000A1693844081A401EA0612078C00602D42C
:100990002046AFF30080099828B1D4E9012190479F
:1009A000206A401C20622078C00622D52046AFF382
:1009B00000801EE0002E04DBB34502DD01A8805D4F
:1009C00000E03020D4E901219047206A401C2062D9
:1009D000761CAAF101005FEA000A0AD100F03EF895
:1009E000C0680168405CD4E901219047206A401C3E
:1009F0002062281EA5F10105DCDC07E0D4E9012115
:100A000018F8010B9047206A401C2062381EA7F19D
:100A10000107F3DC2046AFF30080032011B041E66C
:100A200001694A1C02610878704700B58FB0CDE9B2
:100A300001310021059105497944CDE903101146A2
:100A40006846FFF7ADFC0FB000BD0000E5FFFFFFFB
:100A50000A6802F8010B0A607047000000487047FE
:100A60003003002030B5B0F10A024FEA900E71F168
:100A700000034EEA817EB0EB0E0061EB91014FEA7C
:100A8000101E4EEA017E10EB0E0041EB11114FEAF1
:100A9000102E4EEA016E10EB0E0041EB11214FEAD1
:100AA000104E4EEA014E10EB0E0041EB1141401882
:100AB00041F100014FEAD00040EA41704FEAD10114
:100AC00010EB80054FEA810444EA907444EB010482
:100AD0006D1944EB0404521BA3414FF0000348BFBF
:100AE0000A3200D530BD401C41F1000130BD00008C
:100AF0002DE9F0411F46044603260168072A01F448
:100B0000006004DB08B116A505E016A503E008B1F6
:100B100015A500E015A521F010002060A069C01EF9
:100B2000A0610FB1401EA0612046AFF300804FB11D
:100B3000D4E9012138469047206A401C2062C01C3D
:100B4000206206E0206AFAE7D4E9012115F8010BDA
:100B50009047761EF8D22046AFF30080BDE8F081C2
:100B60004E414E006E616E00494E4600696E660051
:100B70002DE9F047814616468AB0354878440DC8BD
:100B80008DE80D0032487844801C03AC0DC884E821
:100B90000D0041F69B300844372190FBF1F290FBA9
:100BA000F1F5A5F1800501FB12041B3C02D564425E
:100BB000012000E00020DFF898A080460027FA44DA
:100BC000AAF1BE0A0EE0E0070AD03246684607EBFB
:100BD000470101230AEB810100F046FB8DE8070085
:100BE00064107F1C002CEED1194F7F44AE3F19E0FA
:100BF000E80715D007EB04100DF1180A90E80E0075
:100C00008AE80E00C068F04201D198190890324677
:100C1000012306A903A800F027FB03AB83E8070024
:100C20006D10641C002DE3D14FF00103324669467C
:100C3000B8F1000F03A802D000F001FB01E000F0C2
:100C400013FBC9E90001C9F808200AB0BDE8F08724
:100C5000E431000000487047100300207546FFF79C
:100C6000F9FFAE4605006946534620F00700854669
:100C700018B020B5FFF7F6FABDE820404FF00006A7
:100C80004FF000074FF000084FF0000B21F0070174
:100C9000AC46ACE8C009ACE8C009ACE8C009ACE8B7
:100CA000C0098D46704710B50446AFF3008020465A
:100CB000BDE81040FFF7C1BA4FF0013C50F8042BDB
:100CC00051F8043B9A4221D1A2EB0C03934313EA5F
:100CD000CC1317D150F8042B51F8043B9A4215D18C
:100CE000A2EB0C03934313EACC130BD150F8042B63
:100CF00051F8043B9A4209D1A2EB0C03934313EA47
:100D0000CC13DBD04FF00000704700BFD01A01BAFF
:100D1000B1FA81F101F0180122FA01F0CB40C1F1E2
:100D20002001DBB2C0B2C01A2CFA01F3D11A9143F0
:100D300011EAC311E6D1704701491820ABBEFEE7A6
:100D40002600020070475FEA400C08BF91F0000FD8
:100D50004FEA8C234FEAC12243EA51514FEA1C501B
:100D600018BF00F5F0404FEA300018BF41F00041D5
:100D70005FEA6C5C00F02980BCF1FF3F08BF40F0E7
:100D800080407047130C06BF12044FF0100C4FF058
:100D9000000C130E04BF12020CF1080C130F04BF59
:100DA00012010CF1040C930F04BF92000CF1020C21
:100DB000D30F04BF52000CF1010C11464FF000029A
:100DC000A0F11F00A0EB0C00704711F0004F08BF0E
:100DD000704731F000413FF4D5AF0B0C06BF09045A
:100DE0004FF0100C4FF0000C0B0E04BF09020CF179
:100DF000080C0B0F04BF09010CF1040C8B0F04BF8E
:100E000089000CF1020CCB0F04BF49000CF1010C5E
:100E1000CCF12003A0EB0C0022FA03F302FA0CF24F
:100E200041EA030100F10100704720F07F4C80EAA5
:100E3000030023F07F47ACEB070303F57C5300F07E
:100E4000004003F1FF032DE980494FEA154B09B437
:100E50004FEA144325EA0B4E24EA03480FF2042616
:100E600006EB132749083E785FEA320203FB066768
:100E7000C7F5000707FB06F64FEA54374FEAD64698
:100E800006F1020607FB066CCCF1005C4FEA1C473A
:100E90002CEA074C07FB06F40CFB06F504EB1546A1
:100EA0004FEA961634BF00204FF000404FEAD1378A
:100EB00006FB07FC4FEA1C4C0CFB0BF7D21B03FB99
:100EC0000CF761EB07010CFB0EF7B0EB074072EB80
:100ED00017420CFB08F734BFA2EB0742B2EB074204
:100EE00061EB17414FEA0C444FEA910706FB07FC00
:100EF0004FEA1C4C0CFB0BF7B0EBC74072EB5732C0
:100F000003FB0CF734BFA2EBC742B2EBC74261EB65
:100F100057310CFB0EF7B0EBC70072EB57720CFBAE
:100F200008F734BFA2EBC702B2EBC70261EB5771FF
:100F3000039F4FEA816141EA921104EBCC044FEA2E
:100F4000D1374FEA826206FB07FC42EA90124FEA71
:100F500080604FEA1C4C0CFB0BF7D21B03FB0CF719
:100F600061EB07010CFB0EF7B0EB074072EB174289
:100F70000CFB08F734BFA2EB0742B2EB074261EB70
:100F800017414FEA8C554FEA910704EB9C2406FB6E
:100F900007FC4FEA1C4C0CFB0BF7B0EBC74072EBA5
:100FA000573203FB0CF734BFA2EBC742B2EBC74288
:100FB00061EB57310CFB0EF7B0EBC70072EB5772C9
:100FC0000CFB08F734BFA2EBC702B2EBC70261EB20
:100FD000577115EB4C254FEA816141EA92114FEAB6
:100FE00082624FEAD13742EA901206FB07FC44F1D5
:100FF00000044FEA80604FEA1C4C0CFB0BF7D21B3D
:1010000003FB0CF761EB07010CFB0EF7B0EB07409D
:1010100072EB17420CFB08F734BFA2EB0742B2EBAE
:10102000074261EB174115EB1C154FEA813141EA8C
:1010300092414FEA823242EA90424FEA80304FEAD0
:101040000C7644F1000448EA03434EEA0B484FF0A3
:10105000000EB2EB080C71EB030724BF6246394661
:101060004EEB0E0E4FF0000B0018524149414BEB76
:101070000B0BB2EB080C71EB03077BF1000B24BFE9
:10108000624639464EEB0E0E4FF0000B00185241EF
:1010900049414BEB0B0BB2EB080C71EB03077BF1F7
:1010A000000B24BF624639464EEB0E0E51EA020792
:1010B00018BF46F0010616EB0E7655F1000254F10A
:1010C000000103D5BDE88901BDE80088BDE88901BC
:1010D000BDE80048B619524141EB0101A3F10103FB
:1010E000704780807F7E7D7C7B7A79787776767595
:1010F0007473727171706F6E6E6D6C6C6B6A6A690D
:101100006868676666656464636362616160605FA6
:101110005F5E5E5D5D5C5C5B5B5A5A59595858571F
:101120005756565555555454535352525251515087
:1011300050504F4F4F4E4E4D4D4D4C4C4C4B4B4BDA
:101140004A4A4A4949494848484747474746464620
:10115000454545444444444343434342424242415B
:101160004141002B9C4630D477002BD01CB54FEA70
:10117000370703B44FF010004FF01001BAF1000F21
:1011800006D0BCF1000FDCBF40F0080040F00801C1
:101190004FF000000FBCBDE810400BF1010BBBF19C
:1011A000010F08BF5FEA170722BF12F1010211F118
:1011B00001014FF0004143F1000300F0004043EA19
:1011C00000007047F9D35708D0E746EA064613F106
:1011D000400F4FEA16461FDD13F1200FDFBF164305
:1011E0000A46002120335B42BED0C3F1200746EA05
:1011F000064602FA07F74FEA164646EA0706C3F123
:10120000200722FA03F201FA07F721FA03F14FF05F
:10121000000342EA0702A7E746EA020646EA064654
:101220004FEA164646EA0106BCBF46EA0646360CB9
:101230004FF000034FF000024FF0000194E72DE95A
:10124000804C9A46934670B491E8380007C831EA5A
:10125000400C48BF34EA430C03D5FFF7E6FDFFF727
:1012600080FFF0BCBDE8008C2DE9804C9A46934687
:1012700070B491E8380007C810F0804F08BF13F031
:10128000804F03D100F005F8FFF76BFFF0BCBDE81D
:10129000008C20F07F4780EA030023F07F4C07EBAF
:1012A0000C03A3F57C5300F00040A3F1FE0392F081
:1012B000000F00F0B38095F0000F00F077802DE96B
:1012C00001494FEA11404FEA144621EA004800FB69
:1012D00006FC24EA064708FB06F607FB08F800FBB5
:1012E00007F718EB06484CEB164C4FEA124B18EB7D
:1012F00007484FEA15464CEB174022EA0B4E0BFB12
:1013000006FC25EA06470EFB06F607FB0EFE0BFB66
:1013100007F71EEB064E4CEB164C4FF000061EEB8B
:10132000074E4CEB174B18EB0B0840F1000018EB85
:101330000E0B58EB000840F100008F1A4FF000012F
:101340003CBFC943661B14BFB5EB040C00213CBF76
:10135000C943F61B4FEA17444EEA8E0E27EA0445AE
:101360004FEA1C4704FB07622CEA074C05FB07F712
:101370000CFB05F604FB0CFC16EB074642EB174290
:1013800016EB0C4642EB1C421BEB060658EB020226
:10139000414146EA9E0601D5BDE80189B619524190
:1013A00041EB0101A3F10103BDE801894FEA1445B6
:1013B0004FEA114724EA054621EA074C05FB07F4EA
:1013C00006FB07F70CFB06F105FB0CFC11EB0741D4
:1013D00044EB17444FEA124711EB0C4144EB1C4419
:1013E00022EA074C05FB07F206FB07F70CFB06F6A3
:1013F00005FB0CFC16EB074642EB174216EB0C46BE
:1014000042EB1C456A1854F1000148BF7047B619F9
:10141000524141EB0101A3F10103704795F0000F28
:1014200037D04FEA11424FEA144721EA024624EA34
:10143000074C02FB07F106FB07F70CFB06F402FB67
:101440000CFC14EB074441EB17414FEA154714EB32
:101450000C4441EB1C4125EA074C02FB07F506FB57
:1014600007F70CFB06F602FB0CFC16EB074645EBF8
:10147000174516EB0C4645EB1C42121951F10001C1
:1014800048BF7047B619524141EB0101A3F1010376
:1014900070474FEA14454FEA114724EA054621EA0E
:1014A000074C05FB07F106FB07F70CFB06F24FF0B4
:1014B000000605FB0CFC12EB074241EB174112EB57
:1014C0000C4251EB1C4148BF7047921841EB01019F
:1014D000A3F1010370470000464910B54A6822F4A1
:1014E00040324A604A6843681A434A6001684A6861
:1014F00022F480724A6001684A68036942EA032262
:101500004A6001684A6822F040724A6001684A688D
:1015100083681A434A6001688A6822F400628A601C
:1015200001688A68C3681A438A60816A6FF07062D2
:10153000D14201688A6822F070628A6001688A6814
:101540000CD0836A1A438A6001688A6822F040528C
:101550008A6001688A68C36A1A4301E022F0405237
:101560008A6001688A6822F002028A6001688A68DB
:10157000037E42EA43028A6090F820100029016845
:101580004A680FD042F400624A6001684A6822F457
:1015900060424A6001684A68174C436A04EB43336F
:1015A0001A4301E022F400624A600168CA6A22F428
:1015B0007002CA620168CA6A838B104C04EB035341
:1015C0001A43CA6201688A6822F400728A6001685C
:1015D0008A6890F8303042EA43228A6001688A685B
:1015E00022F480628A6001688A68406942EA802049
:1015F000886010BD0023014000E0FFFF0000F0FF05
:101600002DE9F84F0027ADF800703D463E464FF4F7
:10161000FA784FF4C879052D15D2DFE805F00323D9
:10162000456A8600641CE4B2642314225FA1654805
:1016300001F086FC01F038FE30B16423142262A16F
:10164000604801F07DFCA4E0012001F00FFE0028BD
:1016500027D16423142262A15A4801F071FC0024AE
:1016600001251AE0641CE4B26423142262A15548E7
:1016700001F066FC40F2DC5000F0BEFC01F014FE0C
:1016800078B9022001F0F2FD58B96423142254A164
:101690004C4801F055FC00240225484600F0ACFC03
:1016A000B9E701F00BFF74E06423142258A1454808
:1016B00001F046FC01F012FE05004FF064034FF00C
:1016C00014020FD058A13F4801F03AFC284601F01F
:1016D000F5FE00242546404600F08EFC484600F00A
:1016E0008BFC9FE756A1374801F02AFC03254046B2
:1016F00010E06423182258A1324801F021FC404632
:1017000000F07AFC01F004FE38B1002501F0D6FEAD
:101710004FF47A7000F070FC3BE064231A2254A16D
:10172000284801F00DFC0425F2E7684601F034FE7C
:10173000E8B16423142255A1224801F001FC64237E
:101740001A2258A11F4801F0FBFB3146022001F08C
:10175000F9FD5FEA000A4FF064034FF014021FD056
:101760004AA1184801F0ECFB0025504699E7BDF866
:101770000000B0F5967F01D00646E6E76423142208
:1017800050A1104801F0DCFB534901200870ADF86E
:101790000070484600F030FC0A2C81D1BDE8F88F7B
:1017A0004EA1084801F0CCFBF8E7000020202020E3
:1017B000E8AFB7E68C89E6898BE68C87202020206D
:1017C000000000003802002020E88EB7E58F96E583
:1017D0009BBEE5838FE5A4B1E8B4A520000000001E
:1017E00020202020E68C87E7BAB9E6ADA3E5B8B89B
:1017F00020202020000000002020E8AFB7E5868DE3
:10180000E68C89E4B880E6ACA1202020000000002E
:101810002020E5AFB9E6AF94E4B8A4E6ACA1E68C2D
:1018200087E7BAB92020000020202020E5AFB9E6E4
:10183000AF94E5A4B1E8B4A520202020000000006A
:1018400020202020E5AFB9E6AF94E68890E58A9F96
:1018500020202020000000002020E7949FE68890B0
:10186000E68C87E7BAB9E6A8A1E69DBF2020000074
:10187000E7949FE68890E68C87E7BAB9E6A8A1E6E8
:101880009DBFE68890E58A9F000000002020E5BD0E
:1018900095E585A5E68C87E7BAB9E5A4B1E8B4A5D6
:1018A00020200000E69C89E69588E68C87E7BAB997
:1018B000E695B0E69FA5E8AFA2E5A4B1E8B4A520FF
:1018C000200000002020E68C87E7BAB9E5BA93E54E
:1018D000B7B2E6BBA1202000000000202020E5BD1B
:1018E00095E585A5E68C87E7BAB9E68890E58A9FF5
:1018F00020200000FEE7704710B5402000F00EFCED
:10190000BDE81040802000F009BC000021283CD236
:10191000DFE800F011131517191B1D1F21232527C0
:101920003B3B3B3B27293B3B3B2B3B3B2D2F313369
:10193000353B3B37390016A070471AA070471FA0EF
:10194000704725A070472BA0704730A0704735A086
:1019500070473AA070473FA0704744A0704749A025
:1019600070474EA0704753A0704758A070475EA0C4
:10197000704763A0704768A070476DA0704772A061
:10198000704777A070477CA0704781A07047000027
:10199000202020202020204F4B20202020202020ED
:1019A0000000000020E695B0E68DAEE58C85E68E61
:1019B000A5E694B6E99499E8AFAF2000E4BCA0E6B0
:1019C000849FE599A8E4B88AE6B2A1E69C89E689F5
:1019D0008BE68C8700000000E5BD95E585A5E68CCB
:1019E00087E7BAB9E59BBEE5838FE5A4B1E8B4A566
:1019F0000000000020E68C87E7BAB9E5A4AAE5B9A3
:101A0000B2E68896E5A4AAE6B7A1200020E68C8776
:101A1000E7BAB9E5A4AAE6B9BFE68896E5A4AAE7BD
:101A2000B38A20002020E68C87E7BAB9E59BBEE5A3
:101A3000838FE5A4AAE4B9B12020000020E68C87BA
:101A4000E7BAB9E789B9E5BE81E782B9E5A4AAE5B5
:101A5000B09120002020E68C87E7BAB9E4B88DE584
:101A60008CB9E9858D2020202000000020E6B2A15D
:101A7000E69C89E6909CE7B4A2E588B0E68C87E70F
:101A8000BAB92000202020E789B9E5BE81E5908819
:101A9000E5B9B6E5A4B1E8B4A52000002020E588AA
:101AA000A0E999A4E6A8A1E69DBFE5A4B1E8B4A584
:101AB0002020000020E6B885E7A9BAE68C87E7BABF
:101AC000B9E5BA93E5A4B1E8B4A52000E7BC93E575
:101AD00086B2E58CBAE58685E697A0E69C89E69510
:101AE00088E59BBE0000000020E8AFBBE586994674
:101AF0004C415348E587BAE9949920200000000042
:101B0000202020E69CAAE5AE9AE4B989E99499E8F8
:101B1000AFAF2020200000002020E697A0E69588A7
:101B2000E5AF84E5AD98E599A8E58FB720200000E2
:101B300020E5AF84E5AD98E599A8E58685E5AEB9E1
:101B4000E99499E8AFAF200020E8AEB0E4BA8BE6A4
:101B50009CACE9A1B5E7A081E99499E8AFAF20007A
:101B600020202020E68C87E7BAB9E5BA93E6BBA12E
:101B7000202020200000000020202020E59CB0E54F
:101B80009D80E99499E8AFAF20202020000000005C
:101B900020E8BF94E59B9EE7A1AEE8AEA4E7A08154
:101BA000E69C89E8AFAF200072B6FEE778B5002466
:101BB000009490F83C20012A19D0012280F83C20A2
:101BC0000A6807230568092A13D9EE680A3A02EB66
:101BD000420293409E43EE600B788A680A3B03EB17
:101BE00043039A400368DD682A43DA6010E002206C
:101BF00078BD2E6902EB420293409E432E610B7822
:101C00008A6803EB43039A4003681D692A431A61FB
:101C10004A681F23072A13D205686E6B521E02EB17
:101C2000820293409E436E630B790A885B1E92B2D8
:101C300003EB83039A4003685D6B2A435A6327E0F2
:101C400005680D2A12D22E6BD21F02EB820293403E
:101C50009E432E630B790A88DB1F92B203EB83034A
:101C60009A4003681D6B2A431A6311E0EE6A0D3A2D
:101C700002EB820293409E43EE620B790A880D3B91
:101C800092B203EB83039A400368DD6A2A43DA6267
:101C9000164B0568144A9D4206D10D68122D03D1DA
:101CA000556845F48005556005689D4218D10B685C
:101CB000102B01D0112B13D1536843F40003536050
:101CC000096810290CD10A490A4A0968B1FBF2F1E6
:101CD00001EB8101490000E0491E00910029FBD180
:101CE00080F83C40002078BD0023014000200140E6
:101CF0001400002040420F000068C06C704770B5AF
:101D000004004FF0000503D0206C002610B107E05E
:101D1000012070BD204600F01DF8666484F83C6028
:101D2000206CC00610D4206C20F4885040F00200D3
:101D300020642046FFF7D0FB6664206C20F0020090
:101D400040F00100206400E0012584F83C60284652
:101D500070BD000010B586B0044614216846FEF739
:101D6000CDFB1149206888421CD11048002102682F
:101D700042F480720260006800F4807005900B48A5
:101D80001438026842F001020260006800F00100AD
:101D90000590022000900320CDE901016946044826
:101DA00000F0C8F906B010BD0020014044380240E0
:101DB0000000024018B50021009190F83C20012A53
:101DC00007D0012280F83C2002689368DB0702D02C
:101DD00011E0022018BD936843F0010393602E4A7E
:101DE0002E4B1268B2FBF3F202EB420200E0521EED
:101DF0000092002AFBD102689368DB0742D0036C93
:101E000040F20164A34343F48073036453685B05A9
:101E100005D5036C23F4005343F480530364036C2F
:101E2000DB0404D5436C23F00603436400E0416403
:101E300080F83C101A496FF022031360496800686B
:101E4000CA06184906D0884224D1816811F0405F43
:101E500013D01FE08842F8D0134A904203D1D1F842
:101E60000423D206F1D0114A904213D1D1F80413C1
:101E700001F01F011029E8D30CE0816841F0804196
:101E8000816007E0016C41F010010164416C41F098
:101E900001014164002018BD1400002040420F00E1
:101EA00000230140002001400021014000220140A8
:101EB00018B50021009190F83C20012A07D001229A
:101EC00080F83C2002689368DB0702D011E0022012
:101ED00018BD936843F001039360314A314B126897
:101EE000B2FBF3F202EB420200E0521E0092002A23
:101EF000FBD102689368DB0747D0036C40F20164B2
:101F0000A34343F48073036453685B0505D5036CF6
:101F100023F4005343F480530364036CDB0404D5BF
:101F2000436C23F00603436400E0416480F83C10F6
:101F30001D4B6FF02201116001684A681B4C22435F
:101F40004A6059680068CA06194906D0884224D1F7
:101F5000816811F0405F13D01FE08842F8D0154A25
:101F6000904203D1D1F80423D206F1D0124A904214
:101F700013D1D1F8041301F01F011029E8D30CE0AC
:101F8000816841F08041816007E0016C41F01001FF
:101F90000164416C41F001014164002018BD000062
:101FA0001400002040420F000023014020000004E4
:101FB00000200140002101400022014090F83C1027
:101FC00001290CD0012180F83C1001688A6822F0B8
:101FD00001028A6001688968C90702D007E002200F
:101FE0007047016C21F4885141F001010164002126
:101FF00080F83C100846704770B5044600F092F92E
:102000000546601C02D004480078044400F08AF9B8
:10201000401BA042FAD370BD08000020F0B589B083
:10202000802812D040285ED16425142400262B4637
:102030000A222EA1304800F083FF3048FFF7BAFE95
:102040002E4F3868016859B11BE0FFF7D9FA09B083
:102050006423BDE8F040052229A1274800F070BFA5
:102060006D1EEDB2EED20CE02448FFF7A3FE23482C
:10207000FFF742FE864200D2C6B2641E14F0FF048F
:1020800003D0386800680028EED11C48FFF796FF9F
:10209000304601F08EFC9FED1C1B53EC112B01F020
:1020A0009BFC01F055FC01F095FD9FED191B53ECD5
:1020B000112B01F091FC01F04BFC044620216846F5
:1020C000FEF71CFA204601F085FD41EC100B12A131
:1020D00053EC102B6846FEF74FF964230A22694639
:1020E000054800F02DFF09B0F0BD0000E590B9E60D
:1020F000B094E4BA8600000038020020A801002055
:10210000746F7563680000001FF4411FF441CF3FF6
:10211000BC79AA436E862B3F25660000044910B5A2
:102120000A68024202D00860FFF778FF10BD000085
:10213000143C01402DE9F84FDFF8BCA10022012535
:1021400003264FF00F090AF1040BAAF1040E00BF99
:102150000B6805FA02F42340A34270D10F7907F00F
:102160000307012F01D0022F16D187684FEA4208DA
:1021700006FA08FC27EA0C07D1F80CC00CFA08FC98
:102180004CEA070CC0F808C04768A7430C79C4F3B1
:10219000001494403C4344600C79E443A4070AD003
:1021A000C4684FEA420C06FA0CF7BC438F6807FA82
:1021B0000CF72743C7600C7904F00304022C12D1FA
:1021C000D40800EB840CDCF820405707FF0E09FA16
:1021D00007F824EA0804D1F8108008FA07F848EA5A
:1021E0000408CCF8208004684FEA420C06FA0CF789
:1021F000BC430F7907F0030707FA0CF72743076082
:102200004C6814F4403F70D03C4C276847F480473A
:102210002760246822F0030704F480440094384CBB
:1022200007EB040CDCF8084897074FEA177809FA1F
:1022300008F7BC43334FB84202D1002724E054E0F2
:10224000314FB84201D101271EE0304FB84201D1D1
:10225000022719E02E4FB84201D1032714E02D4F79
:10226000B84201D104270FE02B4FB84201D1052716
:102270000AE02A4FB84201D1062705E0284FB842AC
:1022800001D1072700E0082707FA08F72743CCF811
:102290000878DAF800405746D1F804C09C435FEA5A
:1022A000CC2C00D51C433C60DBF800405F46D1F8E5
:1022B00004C09C435FEA8C2C00D51C433C60DEF8D4
:1022C00000407746D1F804C09C435FEA8C3C00D5BF
:1022D0001C433C60084F083F3C68D1F804C09C4355
:1022E0005FEACC3C00D51C433C60521C102AFFF432
:1022F0002FAFBDE8F88F0000083C01404438024091
:10230000003001400000024000040240000802408A
:10231000000C02400010024000140240001802406D
:10232000001C02400148806870470000080000203F
:1023300002488168027811448160704708000020DB
:102340000B4810B5016841F400710160016841F467
:1023500080610160016841F480710160032000F038
:1023600077F8002000F006F800F024F8002010BDF7
:10237000003C024070B50D4D04464FF47A71287848
:10238000B1FBF0F00A490968B1FBF0F000F014FB72
:1023900048B9102C07D200222146501E00F038F810
:1023A00000206C6070BD012070BD0000080000209E
:1023B000140000200E4808B5016841F48041016016
:1023C000006800F4804000900948001F016841F057
:1023D000805101600068002200F08050009011469A
:1023E000052000F015F8BDE80840052000F002B80F
:1023F00044380240002809DB00F01F02012191400F
:102400004009800000F1E020C0F800117047000092
:10241000F0B40E4B1B680C46C3F30223C3F107054F
:10242000042D00D90425191D072901D2002300E03D
:10243000DB1E012606FA05F1491E214099409E4007
:10244000761E16403143F0BC01F040BA0CED00E0BE
:10245000064900F0070208684FF6FF03184040EAFB
:102460000220034A10430860704700000CED00E0B2
:102470000000FA052DE9F0470E46050065D0DFF8AB
:102480001481D8F80000F7B200F00700B04207D27C
:1024900088F80070D8F8000000F00700B04254D16E
:1024A00028683D4C810712D5400703D5206840F4C9
:1024B000E05020602878000703D5206840F4604091
:1024C00020602068A96820F0F00008432060287888
:1024D000C0072DD0304968680839012812D0022879
:1024E00013D0032811D00968890700292DDA216843
:1024F00021F0030101432160FFF714FF814641F2FF
:10250000883A0EE009688903EFE709688901ECE77A
:10251000FFF708FFA0EB0901514502D90320BDE8F0
:10252000F0872068696800F00C00B0EB810FEFD1F4
:10253000D8F80010404601F00701B14207D90770F2
:10254000006800F00700B04201D00120E7E72878DA
:10255000400705D52068E96820F4E0500843206072
:102560002878000706D52068296920F4604040EAF1
:10257000C100206000F038F82168084AC1F3031157
:10258000515CC8400649086006480068FFF7F2FE43
:102590000020C4E7003C024008380240CE3C00085E
:1025A000140000200C000020044805490068096858
:1025B000044AC1F38221515CC840704714000020D6
:1025C00008380240DE3C00080448054900680968F4
:1025D000044AC1F34231515CC840704714000020E6
:1025E00008380240DE3C0008154810B5006810F0BD
:1025F0000C02144813D01449042A0FD0082A0ED113
:102600000F4C241F2268236802F03F025B0207D5AB
:102610002068C0F38810A0FB010106E0084610BD49
:102620002168C1F38811A1FB00010023FDF72CFEF6
:102630002168C1F30141491C4900B0FBF1F010BD14
:10264000083802400024F40040787D012DE9F84F5D
:1026500004006ED02078DFF84C93C007A9F1040580
:102660004AD009F104000168C1F38101012908D0B1
:102670000068C0F3810002280AD1D9F800004002A6
:1026800006D52868800337D560680028E1D033E09C
:102690006068B0F5803F10D0B0F5A02F286810D04A
:1026A00020F480302860286820F48020286060684A
:1026B000A8B1FFF737FE06460DE0286840F48030E9
:1026C000F4E740F480202860F7E700BFFFF72AFE18
:1026D000801B642873D828688003F7D50CE0FFF7C7
:1026E00021FE064605E000BFFFF71CFE801B6428A4
:1026F000F0D828688003F7D42078DFF8AC82800710
:102700004FF0000A3ED5A748001D016811F00C0FDC
:1027100008D00068C0F3810002280BD1D9F800006E
:10272000400207D42868800716D5E068012800D148
:1027300012E033E1E068B8B10120C8F80000FFF70B
:10274000F1FD064605E000BFFFF7ECFD801B022807
:10275000C0D828688007F7D52868216920F0F800DC
:1027600040EAC10028600DE0C8F800A0FFF7DAFDDC
:10277000064604E0FFF7D6FD801B02281FD8286814
:102780008007F7D42078000722D5864F87486169F3
:10279000703771B101210160FFF7C4FD064604E006
:1027A000FFF7C0FD801B022809D838688007F7D5DD
:1027B0000EE0C0F800A0FFF7B5FD064605E082E098
:1027C000FFF7B0FD801B02287DD838688007F7D45A
:1027D0002078400768D5DFF8CCB100270BF13C0B1F
:1027E000DBF80000C0000BD4DBF8001041F0805192
:1027F000CBF80010DBF80000012700F080500090BB
:102800006B4E3068C00510D4306840F48070306082
:10281000FFF788FD009005E0FFF784FD0099401A5E
:10282000022850D83068C005F6D55E4EA0686C36D8
:1028300001280FD00528306810D020F0010030604A
:10284000306820F004003060A068B8B1FFF76AFD7E
:1028500000900FE0306840F00100F4E740F0040021
:102860003060F7E7FFF75EFD0099411A41F28830CA
:10287000814266D830688007F4D50EE0FFF752FD3C
:10288000009007E0FFF74EFD0099411A41F28830B1
:10289000814256D830688007F4D42FB1DBF800109D
:1028A00021F08051CBF80010A069C8B33D49091D43
:1028B0000968C1F3810102294AD00228504607D095
:1028C000C8F8600000E03CE0FFF72CFD04463BE068
:1028D0004746C8F86000FFF725FD064605E000BF43
:1028E000FFF720FD801B02282BD828688001F7D431
:1028F000D4E907010843A16A2E4A490802EB0141C5
:10290000626A41EA8211084394F82C1040EA01619E
:10291000C9F8001001203866FFF704FD044606E000
:102920003EE000BFFFF7FEFC001B022809D8286824
:102930008001F7D534E000BFFFF7F4FC001B02284C
:1029400002D90320BDE8F88F28688001F4D427E07D
:102950000128F7D0D9F80000E26900F48001914223
:102960001CD1226A00F03F01914217D147F6C07195
:10297000626A0140B1EB821F10D1A26A4FF0FF33AF
:1029800000F4403103EB5202B1EB024F06D194F850
:102990002C1000F07060B0EB016F01D00120D1E786
:1029A0000020CFE70438024000004742800E474233
:1029B000007000400000FFFF10B5401EB0F1807FA6
:1029C00001D3012010BD4FF0E02460610F2160179A
:1029D00000F07CFF0020A06107202061002010BDD6
:1029E0007047704770B590F83C20012A32D001241E
:1029F00080F83C40022280F83D2003685A689D68B8
:102A000022F070060A6832435A60134B02689A42F9
:102A100014D0B2F1804F11D0104B9A420ED0104B0F
:102A20009A420BD00F4B9A4208D00F4B9A4205D0D6
:102A30000E4B9A4202D00E4B9A4204D1496825F0BF
:102A400080031943916080F83D40002180F83C10DC
:102A5000084670BD022070BD000001400004004027
:102A600000080040000C004000040140004001400C
:102A70000018004010B5040003D094F83D0010B1D8
:102A800007E0012010BD002084F83C00204600F043
:102A90001FF8022084F83D00211D206800F076FD1B
:102AA000012084F8460084F83E0084F83F0084F852
:102AB000400084F8410084F8420084F8430084F820
:102AC000440084F8450084F83D00002010BD00005B
:102AD00008B50068B0F1804F12D10A48016841F092
:102AE000010101600068002200F0010000900E2149
:102AF0001C20FFF78DFCBDE808401C20FFF77ABCC6
:102B000008BD00004038024070B5044690F83C0013
:102B10000025012817D0012684F83C60022084F8A3
:102B20003D002068826822F0770222F47F428260B2
:102B30000868502838D00DDC20284FD005DC90B331
:102B4000102811D14AE0022070BD302846D040281C
:102B50000AD13BE060282FD070280DD0B0F5805FFF
:102B600003D0B0F5005F12D0012584F83D6000204D
:102B700084F83C00284670BDCB68D1E9012120686B
:102B800000F070FD2068816841F0770109E0CB68B2
:102B9000D1E90121206800F065FD2068816841F4D9
:102BA00080418160E1E719E0CA684968206800F067
:102BB0006BFD5021206806E0CA684968206800F073
:102BC00074FD6021206800F057FDCEE7CA684968AF
:102BD000206800F059FD40212068F4E72268014692
:102BE0001046F0E770472DE9F04104460068C668DA
:102BF00005694FF00007A90713D5B10711D5F91ED4
:102C0000016101202077206880698007204602D07A
:102C1000FFF7E8FF04E000F07EF8204600F07CF8C3
:102C20002777680716D5700714D521686FF0040060
:102C30000861022020772068806910F4407F2046D8
:102C400002D0FFF7CFFF04E000F065F8204600F067
:102C500063F82777280715D5300713D521686FF05B
:102C600008000861042020772068C069800720469A
:102C700002D0FFF7B7FF04E000F04DF8204600F067
:102C80004BF82777E80616D5F00614D521686FF0C3
:102C900010000861082020772068C06910F4407F88
:102CA000204602D0FFF79EFF04E000F034F82046F3
:102CB00000F032F82777E80708D0F00706D021683F
:102CC0006FF001000861204600F028F8280608D5BA
:102CD000300606D521686FF0800008612046FFF7B6
:102CE0007FFE680608D5700606D521686FF04000A3
:102CF0000861204600F024F8A8060AD5B00608D5D9
:102D000021686FF0200008612046BDE8F041FFF720
:102D100068BEBDE8F08170477047000004498842F2
:102D200005D16423042203A1044800F009B97047C7
:102D3000F00100206E6968616F0000003802002019
:102D4000704770B5040004D094F84100002510B11C
:102D500006E0012070BD84F84050204600F024F8C1
:102D6000242084F841002068C16821F40051C1602A
:102D7000204600F0D3FC2068016921F490410161F4
:102D80002068416921F02A0141612068C16841F44D
:102D90000051C1606564202084F8410084F842003D
:102DA0006563002070BD0000F0B587B004461421B3
:102DB0006846FDF7A3FB304B276800222F49022409
:102DC000032507262E489F4219D12C4B14331F6828
:102DD00047F010071F601B6803F0100305930B6892
:102DE00043F001030B60096802AB01F0010105919A
:102DF0006902CDE9001483E8640069461AE01F4BBC
:102E0000DFF880C01033674518D11F6847F40037DA
:102E10001F601B6803F4003305930B6843F0010344
:102E20000B60096801F0010105910C21CDE9001446
:102E300069461CE0FFF77EF907B0F0BD12488742F3
:102E4000FAD1186840F480201860186800F48020D7
:102E50000590086840F0020008600868694600F0C4
:102E6000020005904FF44060CDE90004074802AF2E
:102E700087E86400DEE700000010014030380240BF
:102E800000000240004400400048004000040240AE
:102E90002DE9F84F044690F842009A4616460D4632
:102EA000202802D00220BDE8F88FB5B1AEB10020D5
:102EB0006064222184F842102063FFF733FAA6856C
:102EC0008146E685A0684FF480582027404501D10F
:102ED000206920B12E46002529E00120E3E70026E5
:102EE00025E04B46002220212046CDF800A000F02E
:102EF0009BFC18B184F842700320D4E726B1A06887
:102F000040451AD038B108E020684068C0F3080096
:102F100025F8020B08E0206978B12068406800F0CD
:102F20007F0000BF06F8010BE08D401EE085E08DBC
:102F30000028D6D184F84270B5E720684068F1E7F0
:102F40002DE9F843044690F84100984616460D4690
:102F5000202802D00220BDE8F88385B17EB1002090
:102F60006064212084F84100FFF7DCF9A6848146E3
:102F7000E684A0682027B0F5805F02D003E001203E
:102F8000E9E7206910B12E4600250EE000260CE08E
:102F90008021204600F048FCA8B9C6B116F8010B04
:102FA00021684860E08C401EE084E08C4B464FF086
:102FB0000002CDF800800028EAD14FF04001204601
:102FC00000F032FC40B184F841700320C3E735F8CB
:102FD000020BC0F30800E3E784F841700020BAE771
:102FE000FEE700001CB5EF218DF8001001218DF8DF
:102FF000011014498308154849680A0E8DF802200B
:103000000A0C8DF803200A0A8DF804208DF80510AB
:1030100007218DF8061000218DF807104FF4C872B3
:103020000949FFF735FF072207496846FDF73AFAD5
:1030300028B969460448FDF723FA002800D100208A
:103040001CBD0000000000201800002080020020AD
:103050007FB500241548009401940294124903940A
:1030600001604FF40031C0E901140461047680F876
:1030700020400F49C0E90A140125C561C46080F8E9
:1030800030404561FEF73BFE08B1FEF78DFD00952F
:10309000CDE9015469460548FEF788FD002801D0B6
:1030A000FEF782FD7FBD000000200140A801002046
:1030B0000100000F10B586B014216846FDF71EFA16
:1030C0001C48016841F020010160016801F0200105
:1030D0000591016841F001010160016801F0010101
:1030E0000591016841F0020101600068124C00F096
:1030F00002000590402000904FF404100190012040
:10310000029069462046FFF715F8802000904FF4A2
:10311000881001900220029069462046FFF70AF8C5
:10312000002201211720FFF773F91720FFF762F93A
:1031300006B010BD303802400014024010B586B011
:1031400000241948009401940294039404944FF0CD
:103150008041059401604AF2104141601021816074
:103160004FF4FA61C1604FF4007101618021816107
:10317000FFF780FC08B1FEF717FD4FF48050009078
:1031800069460948FFF7C0FC08B1FEF70DFD04943D
:1031900004A905480594FFF725FC002801D0FEF797
:1031A00003FD06B010BD0000F00100200C4810B572
:1031B0000A4901604FF4E1314160002181600C2235
:1031C000C160C0E904128161C161FFF7BAFD002846
:1031D00003D0BDE81040FEF7E7BC10BD0010014071
:1031E000380200200C4810B50A4901604FF46141D3
:1031F0004160002181600C22C160C0E9041281613C
:10320000C161FFF79EFD002803D0BDE81040FEF726
:10321000CBBC10BD00440040800200200C4810B51B
:103220000A4901604FF416514160002181600C226F
:10323000C160C0E904128161C161FFF782FD00280D
:1032400003D0BDE81040FEF7AFBC10BD0048004001
:10325000C802002003490A685206FCD50149091D2D
:103260000860704700440040FEE7FEE710B50446E2
:1032700000F010F900F0ECF80120FFF7EBFF04205C
:1032800000F011F90220FFF7E5FF2046FFF7E2FF0B
:10329000E01D00F0F5F84FF4FA60FFF7A3FE08B167
:1032A000407A10BDFF2010BD10B500F0F3F800F01B
:1032B000CFF80120FFF7CEFF032000F0F4F8012043
:1032C000FFF7C8FF052000F0DBF84FF4FA60FFF7C6
:1032D00089FE08B1407A10BDFF2010BD10B500F086
:1032E000D9F800F0B5F80120FFF7B4FF032000F093
:1032F000DAF80320FFF7AEFF072000F0C1F84FF423
:10330000FA60FFF76FFE08B1407A10BDFF2010BDD4
:1033100010B500F0BFF800F09BF80120FFF79AFF0E
:10332000032000F0C0F80520FFF794FF092000F00B
:10333000A7F84FF4FA60FFF755FE08B1407A10BDC8
:10334000FF2010BD70B50C46054600F0A3F800F054
:103350007FF80120FFF77EFF062000F0A4F806208A
:10336000FFF778FF2846FFF775FF200AFFF772FF87
:10337000E0B2FFF76FFF05EB1420E1B208440D3017
:1033800000F07EF84FF4FA60FFF72CFE08B1407AA7
:1033900070BDFF2070BD000070B590B0064600F013
:1033A00079F800F055F80120FFF754FF032000F0F2
:1033B0007AF81D20FFF74EFF212000F061F84FF44E
:1033C000FA60FFF70FFE040007D0E07AA17A657A71
:1033D00000EB0120308055B100E0FF25642310226E
:1033E0000BA11248FFF7ACFD10B0284670BD40217C
:1033F0006846FDF783F8E07AA17A00EB01220CA180
:103400006846FCF7B9FF642314226946E9E7000027
:10341000E8AFBBE58F96E68C87E7BAB9E695B0E9E9
:103420009499E8AFAFEFBC810000000038020020A3
:10343000E69C89E69588E68C87E7BAB9E4B8AAE6FF
:1034400095B03D256400000070477047704700004C
:1034500010B50A4C6068000EFFF7FCFE6068C0F310
:103460000740FFF7F7FEA088C0F30720FFF7F2FE42
:103470002079BDE81040FFF7EDBE000000000020FD
:1034800010B50446000AFFF7E5FEE0B2BDE81040C3
:10349000FFF7E0BE10B5EF20FFF7DCFEBDE81040FF
:1034A0000120FFF7D7BE10B50446C0F30720FFF791
:1034B000D1FEE0B2BDE81040FFF7CCBE10B5FEF77C
:1034C00025FA01466423BDE8104018220148FFF7A1
:1034D00037BD000038020020FEF72ABF30B593B098
:1034E00030216846FDF70AF814210CA8FDF706F80C
:1034F0001D480025016841F080510160006800F01E
:10350000805011901948016841F4804101600068C1
:10351000022400F4804011900120039010200490B8
:10352000009406940820CDE90750A820CDE90904AD
:1035300004200B906846FFF789F808B172B6FEE7E1
:103540000CA90F2081E831004FF4A0500F904FF4E8
:103550008050109005210CA8FEF78CFF002801D0A8
:1035600072B6FEE713B030BD403802400070004034
:103570000248016841F470010160704788ED00E085
:103580000148FFF730BB0000F0010020F0B50268F1
:10359000294C2A4D2A4E2B4F2B4B4FF0804CA042EA
:1035A00009D0604507D0A84205D0B04203D0B84248
:1035B00001D0984204D122F0700E4A6842EA0E020D
:1035C000A0421BD0604519D0A84217D0B04215D0F8
:1035D000B84213D0984211D01C4DA8420ED01C4DB9
:1035E000A8420BD01B4DA84208D01B4DA84205D0C5
:1035F0001A4DA84202D01A4DA84203D122F44075B8
:10360000CA682A434D6922F080022A4302608A6810
:10361000C2620A688262A04201D0984201D109695F
:103620000163012141610169C90703D0016921F0EA
:1036300001010161F0BD00000000014000040040F4
:1036400000080040000C0040000401400040014020
:10365000004401400048014000180040001C0040A8
:103660000020004010B5846842EA032224F47F441D
:103670000A432243826010BD826822F070020A432E
:1036800042F007018160704710B5036A046A24F0B4
:1036900001040462846924F0F00444EA021423F073
:1036A0000A020A438461026210BD10B5036A046A0B
:1036B00024F010040462846923F0A00324F470440D
:1036C00044EA023243EA01118261016210BD0168DD
:1036D0000C3151E8002F22F4907241E80023002BB6
:1036E000F5D10168143151E8002F22F0010241E8C0
:1036F0000023002BF5D1016B012909D101680C31A0
:1037000051E8002F22F0100241E80023002BF5D1F0
:10371000202180F8421000210163704770B50446F3
:1037200000680169E26821F4405111430161216997
:10373000A068E26908436169114308432168CA68C7
:1037400049F20C639A430243CA6020684169A26946
:1037500021F440711143416131492068884202D00F
:103760003049884202D1FEF72FFF01E0FEF71CFF2F
:10377000E2690023192164253226B2F5004F626800
:1037800028D0A0FB0101930F9200FCF77DFD0146BC
:10379000B0FBF5F06FF01802504301EB800006EB30
:1037A0000010B0FBF5F000F0F002B1FBF5F002EB19
:1037B0000012B1FBF5F06FF01803584301EB8000E5
:1037C00006EB0010B0FBF5F000F00F00216810448C
:1037D000886070BDA0FB010192185B41FCF754FDAD
:1037E0000146B0FBF5F00201B1FBF5F06FF01803F4
:1037F000584301EB800006EBC000B0FBF5F000F091
:10380000F80002EB4002B1FBF5F0584301EB8000F9
:1038100006EBC000B0FBF5F000F00700D6E70000B3
:1038200000100140001401402DE9F8439846174666
:103830000D460446089E24E0701C22D0FEF772FD5F
:10384000A0EB0800B0421AD8CEB12068C168490781
:1038500017D5802D15D0402D13D00168C943090715
:103860000FD401680025406800902046FFF72FFF25
:103870000820606484F840500120BDE8F8830320EC
:10388000FBE72068006835EA000004D00020B84259
:10389000D2D00020F1E70120F9E7FEE703B4019858
:1038A0004100009850EAC12018BF04204A0D18BFFB
:1038B00040F0010040F2FF72B2EB515F08BF40F0F0
:1038C0000200012808BF052002B070470907090E51
:1038D000002804DB00F1E02080F80014704700F0BD
:1038E0000F0000F1E02080F8141D7047FEF728FD5E
:1038F000FFF7F4FDFFF7DEFBFFF7AAFBFFF71EFC67
:10390000FFF754FCFFF76EFCFFF788FC0448FEF756
:1039100051FA0348FEF7CCFA0A20FEF76DFBF8E7F0
:10392000A801002010B500290AD00878002807D087
:1039300005487844FDF7C0F9002801D0002010BDEB
:103940000248784410BD00006A04000062040000D0
:1039500021F00042A2F16052B2F5801F01F0004355
:1039600028BFD2F17F6C0BD95FEA001C43EAC20288
:1039700042EB507018BF704728BF20F0010070471D
:10398000B2F5801FBCBF184670474FEA410C1CF5CA
:10399000001F02D2084600F093B970B500F0C6F8D7
:1039A00000000089FFF7F6BF4FF00040A0F580004F
:1039B0007047B0FA80F310FA03F10AD0C3F11D0387
:1039C00003F580634FEA41504FEA035202EBD121E5
:1039D00070474FF000007047DFF848C170B51CEA2F
:1039E000111E1EBF1CEA13159EEA0C0F95EA0C0F60
:1039F00000F06F8081EA030423EA4C134EEAD47E80
:103A000021EA4C1141F4801143F48013AE44A1FB30
:103A1000024CA0FB0365AEF17F7E361955EB0C0519
:103A2000A1FB034C4CF10003A0FB021C16EB0C069F
:103A3000654153F10003094218BF46F0010613F433
:103A4000007F0BD14FEA03314FEA0530340341EADE
:103A5000155140EA16506FF003020AE04FEAC32105
:103A60004FEAC520F40241EA555140EA56506FF042
:103A7000020202EB2E4201EB025585EACE710AD01A
:103A80005FEA440C18BF24F0004450F1000041F1FB
:103A9000000120EAD47040F2FE7C624500D270BD85
:103AA000A84214BF4FF080444FF04044002E08BF9E
:103AB0000024BEF1806FA8BFA1F1C041BDE87040F5
:103AC00080F282804FF0000001F1C04101F000411E
:103AD00070479EEA0C0F0CEA131518BF95EA0C0FFD
:103AE00006D04FF0000081EA030E0EF0004170BDD9
:103AF00000F01CF88900013E00F007B800F009B89A
:103B00004FEA430C5FEA5C5C08D081EA030100F0F5
:103B10005BB84FEA410C5FEA5C5CF6D14FF0000005
:103B2000014970470000FF070000F87F0EF1020E08
:103B30002EF0030E5EF8046B364205D4012A43EBE7
:103B4000030515F5001F12D8012841EB010C1CF5E7
:103B5000001F0CD80ED14FEAD17C15F5001F0CEBDD
:103B60004C0C0CF1020C08BF4CEBD37C04E04FF082
:103B7000080C01E04FEAD37C0CEB4C0526FA05F665
:103B800006F00706B6F1040C06D20EEB860CBDE873
:103B900070404CF0010C6047DFE80CF0090B0202AA
:103BA0004FF000414FF00000A1F5002170BD194613
:103BB0001046012851EB010418BFD4F5001484BF4E
:103BC000002001F0004170BD0808A0F500114FEA87
:103BD0003101704743004FEAD30C4FEA3C0C43409D
:103BE0001FBF40070CF1605113F0FE4F70471CF0EF
:103BF000006F03D100200CF0004170470CF000432F
:103C000043EA507010B540EACC0000F00EF800BF57
:103C1000000000924FEA0001FFF7D6BF4FF00041CD
:103C20004FF00000A1F5002170470EF1020E2EF0BA
:103C3000030E5EF8044B244204D44FEA4102B2F171
:103C40007F4F11D84FEA4003B3F17F4F0CD80ED10C
:103C50004FEAD07CB2F17F4F0CEB4C0C0CF1020C14
:103C600008BF4CEBD17C04E04FF0080C01E04FEAB8
:103C7000D17C0CEB4C0324FA03F404F00704B4F1F8
:103C8000040C06D20EEB840CBDE810404CF0010C85
:103C90006047DFE80CF0070802024FF00040A0F593
:103CA000800010BD0846420018BFD2F1807288BF64
:103CB00000F0004010BD4FF04070E1EE100A704778
:103CC000FF2141EAD050C0057047FCF773BD0000EA
:103CD00000000000000001020304060708090000BC
:103CE000000001020304000002400000000000A0E8
:103CF0000000000005400000000000C800000000B7
:103D00000C4000000000409C000000001940000032
:103D10000020BCBE0000000034400000BFC91B8E64
:103D200000000004B5400000504BCFD06607E2CF42
:103D3000010000006C4100003E8251AADFEEA73472
:103D400001000000D9420000DCB5A0E23A301F9724
:103D5000FFFFFFFFB4450000FD25A0C8E9A3C14F48
:103D6000FFFFFFFFFF3F0000000000800000000099
:103D7000FF3F00000000008000000000B83D000888
:103D80000000002018000000C4010008D03D000819
:103D90001800002058090000E00100081C00000085
:103DA00043000000F8FFFFFF0C0000000E000000C1
:103DB0000F0000002E00000000000000FFFFFFFFCA
:103DC0000100000010000000000000000024F400CA
:040000050800018965
:00000001FF
