:020000040800F2
:10000000080B002031020008CB290008FD2400085D
:10001000C9290008AD0A0008F530000800000000FA
:10002000000000000000000000000000AD2B0008F0
:10003000AF0A000800000000A92B0008392C0008B6
:100040004B0200084B0200084B0200084B0200085C
:100050004B020008AB2B00084B0200084B020008C3
:100060004B0200084B0200084B0200084B0200083C
:100070004B0200084B0200084B0200084B0200082C
:100080004B0200084B0200084B0200084B0200081C
:100090004B0200084B0200084B020008B10A00089E
:1000A0004B0200084B0200084B0200084B020008FC
:1000B000E12C00084B0200084B0200084B0200082C
:1000C0004B0200084B0200084B0200084B020008DC
:1000D0004B0200084B0200084B0200084B020008CC
:1000E0004B0200084B0200084B0200084B020008BC
:1000F0004B0200084B0200084B0200084B020008AC
:100100004B0200084B0200084B0200084B0200089B
:100110004B0200083D2E0008ED2C00084B020008A1
:100120004B0200084B0200084B0200084B0200087B
:100130004B0200084B0200084B0200084B0200086B
:100140004B0200084B0200084B0200084B0200085B
:100150004B0200084B0200084B020008E93000087F
:100160004B0200084B0200084B0200084B0200083B
:100170004B0200084B0200084B0200080000000080
:100180004B0200084B02000800F002F800F041F8B2
:100190000AA090E8000C82448344AAF10107DA45E2
:1001A00001D100F036F8AFF2090EBAE80F0013F0F3
:1001B000010F18BFFB1A43F001031847E02F00009E
:1001C00000300000103A24BF78C878C1FAD852072E
:1001D00024BF30C830C144BF04680C6070470000C1
:1001E0000023002400250026103A28BF78C1FBD840
:1001F000520728BF30C148BF0B607047642900F028
:10020000F780002070471FB502F0B6FF1FBD10B584
:1002100010BD00F008FA1146FFF7F5FF02F07CFF71
:1002200000F026FA03B4FFF7F2FF03BC00F02EFA49
:100230000948804709480047FEE7FEE7FEE7FEE77A
:10024000FEE7FEE7FEE7FEE7FEE7FEE704480549B6
:10025000054A064B70470000D12C000889010008B0
:1002600008050020080B00200807002008070020D0
:1002700053EA020C00F069802DE9F04B4FF00006C4
:10028000002B1FBFB3FA83F503FA05F424FA05F631
:100290005E4012BF1643B2FA82F502FA05F4C5F1C8
:1002A00020051EBF22FA05FC44EA0C04203556EA5C
:1002B000044C4FEA144418BF641C4FF000084FF080
:1002C0000009904271EB030C39D3002919BFB1FA30
:1002D00081F701FA07F6B0FA80F700FA07F6C7F1DE
:1002E00020071EBF20FA07FC46EA0C062037B6FBA3
:1002F000F4FCA7EB0507103F07F01F0BCBF120061E
:100300000CFA0BFB2CFA06F644BFB3460026202F4E
:10031000A4BF5E464FF0000B5BEA060C08BF4FF02F
:10032000010B19EB0B09ABFB027C48EB0608C01B69
:1003300006FB02CC0BFB03CC71EB0C01C1E70B46B7
:10034000024641464846BDE8F08B13B54FF0000029
:100350004FF00001AFF30080BDE81C407047000083
:100360000FB41CB5074B06AA7B446946009005985C
:1003700000F041F90020694600F050F91CBC5DF81E
:1003800014FB0000B10200002DE9F0410E460446C6
:10039000002020622046E168884730B3252805D038
:1003A000D4E901219047206A401CF2E7E168204629
:1003B00000278847050018D0A5F14100192802D868
:1003C00020354FF400673246294620462760FFF764
:1003D00015FF40B1012804D0F61D26F007060836A7
:1003E000D8E7361DD6E72846DAE7206ABDE8F0816F
:1003F0002DE9F0410646002410687529314616A5FE
:1004000010D0AFF30080002802DA404213A507E0C5
:1004100031688A0701D512A502E0490704D511A564
:10042000012401E0AFF3008000210A2206F1240735
:1004300009E0B0FBF2FCB0FBF2F302FB1C00303031
:1004400078541846491C0028F3D123462A463046E2
:10045000BDE8F04100F070B8000000002D00000081
:100460002B0000002000000030B505460B462A4650
:1004700013F8014B12F8010B08B1A042F8D01CB1DF
:10048000002802D06D1CF1E7284630BD40EA010388
:1004900010B59B070FD1042A0DD310C808C9121F2D
:1004A0009C42F8D020BA19BA884201D9012010BD67
:1004B0004FF0FF3010BD1AB1D30703D0521C07E034
:1004C000002010BD10F8013B11F8014B1B1B07D198
:1004D00010F8013B11F8014B1B1B01D1921EF1D109
:1004E000184610BD4FF0000200B5134694469646DC
:1004F000203922BFA0E80C50A0E80C50B1F1200137
:10050000BFF4F7AF090728BFA0E80C5048BF0CC0E4
:100510005DF804EB890028BF40F8042B08BF704742
:1005200048BF20F8022B11F0804F18BF00F8012BB4
:1005300070477047704770472DE9F0470D46994660
:100540009246044600F124080168880604D5E06953
:1005500021F01001216000E00120A84201DD471BCD
:1005600000E00027A1697A1902EB0900081AA061CE
:100570002078C00602D42046AFF30080002608E0B1
:10058000D4E901211AF806009047206A401C761C25
:1005900020624E45F4DB2078C0060AD52046AFF332
:1005A000008006E0D4E9012130209047206A401CF9
:1005B0002062381EA7F10107F4DC07E0D4E901212D
:1005C00018F805009047206A401C2062281EA5F1FB
:1005D0000105F3DC2046AFF300802078000602D549
:1005E0000220BDE8F0870120FBE7000001694A1CFA
:1005F00002610878704700B58FB0CDE90131002164
:10060000059105497944CDE9031011466846FFF785
:10061000BBFE0FB000BD0000E5FFFFFF0A6802F857
:10062000010B0A607047754600F02CF8AE460500D5
:100630006946534620F00700854618B020B5FFF7FD
:1006400005FEBDE820404FF000064FF000074FF0D8
:1006500000084FF0000B21F00701AC46ACE8C009E0
:10066000ACE8C009ACE8C009ACE8C0098D467047E9
:1006700010B50446AFF300802046BDE81040FFF7F8
:10068000D1BD000000487047A8040020014918208F
:10069000ABBEFEE72600020070470000464910B5D9
:1006A0004A6822F440324A604A6843681A434A6002
:1006B00001684A6822F480724A6001684A680369E6
:1006C00042EA03224A6001684A6822F040724A60A6
:1006D00001684A6883681A434A6001688A6822F49C
:1006E00000628A6001688A68C3681A438A60816A06
:1006F0006FF07062D14201688A6822F070628A608D
:1007000001688A680CD0836A1A438A6001688A6823
:1007100022F040528A6001688A68C36A1A4301E085
:1007200022F040528A6001688A6822F002028A60E0
:1007300001688A68037E42EA43028A6090F82010CA
:10074000002901684A680FD042F400624A600168DB
:100750004A6822F460424A6001684A68174C436A5A
:1007600004EB43331A4301E022F400624A6001685B
:10077000CA6A22F47002CA620168CA6A838B104C8A
:1007800004EB03531A43CA6201688A6822F40072B8
:100790008A6001688A6890F8303042EA43228A60B1
:1007A00001688A6822F480628A6001688A68406908
:1007B00042EA8020886010BD0023014000E0FFFF76
:1007C0000000F0FF2DE9F84F0027ADF800703D461E
:1007D0003E464FF4FA784FF4C879052D15D2DFE87C
:1007E00005F00323436A7D00641CE4B264231422F1
:1007F0005CA1624801F031FE02F006F930B16423D9
:1008000014225FA15D4801F028FE8AE0012002F079
:10081000DDF8002859D1642314225FA1574801F064
:100820001CFE002401251BE0641CE4B26423142296
:100830005FA1524801F011FE404600F0EFFB02F0CC
:10084000E3F800286BD1022002F0C0F8002866D13E
:100850006423142250A1494801F0FFFD0024022521
:10086000484600F0DBFBB8E76423142256A1434856
:1008700001F0F3FD02F0E2F805004FF064034FF0E1
:1008800014020FD056A13D4801F0E7FD284602F0C2
:10089000C5F900242546404600F0C0FB484600F05C
:1008A000BDFBA1E754A1354801F0D7FD0325404623
:1008B00000F0B4FB35E06423182255A12F4801F065
:1008C000CCFD02F0D5F808B1002528E064231A22F7
:1008D00055A12A4801F0C1FD042522E0684602F036
:1008E0000BF930B36423142256A1244801F0B5FD5E
:1008F00064231A2259A1214801F0AFFD314602209C
:1009000002F0D0F85FEA000A4FF064034FF01402DF
:1009100022D04CA1194801F0A0FD0025504602F05C
:100920007DF9484600F07AFB0A2C9CD10120BDE8F5
:10093000F88FBDF80000B0F5967F01D00646DDE7E0
:10094000642314224DA10D4801F087FD5049012078
:100950000870ADF80070E4E74EA1084801F07DFD95
:100960000020E4E720202020E8AFB7E68C89E68964
:100970008BE68C87202020200000000088030020C8
:1009800020E88EB7E58F96E59BBEE5838FE5A4B1A1
:10099000E8B4A5200000000020202020E68C87E796
:1009A000BAB9E6ADA3E5B8B82020202000000000C9
:1009B0002020E8AFB7E5868DE68C89E4B880E6AC08
:1009C000A1202020000000002020E5AFB9E6AF9470
:1009D000E4B8A4E6ACA1E68C87E7BAB92020000011
:1009E00020202020E5AFB9E6AF94E5A4B1E8B4A596
:1009F000202020200000000020202020E5AFB9E6C4
:100A0000AF94E68890E58A9F202020200000000017
:100A10002020E7949FE68890E68C87E7BAB9E6A89D
:100A2000A1E69DBF20200000E7949FE68890E68C19
:100A300087E7BAB9E6A8A1E69DBFE68890E58A9F58
:100A4000000000002020E5BD95E585A5E68C87E740
:100A5000BAB9E5A4B1E8B4A520200000E69C89E677
:100A60009588E68C87E7BAB9E695B0E69FA5E8AF2A
:100A7000A2E5A4B1E8B4A520200000002020E68C67
:100A800087E7BAB9E5BA93E5B7B2E6BBA120200083
:100A9000280000202020E5BD95E585A5E68C87E7A8
:100AA000BAB9E68890E58A9F20200000FEE77047EB
:100AB00010B5402000F0E6FABDE81040802000F0BC
:100AC000E1BA000021283CD2DFE800F0111315172D
:100AD000191B1D1F212325273B3B3B3B27293B3B64
:100AE0003B2B3B3B2D2F3133353B3B37390016A099
:100AF00070471AA070471FA0704725A070472BA011
:100B0000704730A0704735A070473AA070473FA0AB
:100B1000704744A0704749A070474EA0704753A04B
:100B2000704758A070475EA0704763A0704768A0E8
:100B300070476DA0704772A0704777A070477CA087
:100B4000704781A070470000202020202020204FE7
:100B50004B202020202020200000000020E695B01F
:100B6000E68DAEE58C85E68EA5E694B6E99499E827
:100B7000AFAF2000E4BCA0E6849FE599A8E4B88A62
:100B8000E6B2A1E69C89E6898BE68C87000000002E
:100B9000E5BD95E585A5E68C87E7BAB9E59BBEE599
:100BA000838FE5A4B1E8B4A50000000020E68C879F
:100BB000E7BAB9E5A4AAE5B9B2E68896E5A4AAE63B
:100BC000B7A1200020E68C87E7BAB9E5A4AAE6B968
:100BD000BFE68896E5A4AAE7B38A20002020E68C29
:100BE00087E7BAB9E59BBEE5838FE5A4AAE4B9B16E
:100BF0002020000020E68C87E7BAB9E789B9E5BE76
:100C000081E782B9E5A4AAE5B09120002020E68C16
:100C100087E7BAB9E4B88DE58CB9E9858D20202045
:100C20002000000020E6B2A1E69C89E6909CE7B493
:100C3000A2E588B0E68C87E7BAB92000202020E73B
:100C400089B9E5BE81E59088E5B9B6E5A4B1E8B417
:100C5000A52000002020E588A0E999A4E6A8A1E647
:100C60009DBFE5A4B1E8B4A52020000020E6B8852A
:100C7000E7A9BAE68C87E7BAB9E5BA93E5A4B1E883
:100C8000B4A52000E7BC93E586B2E58CBAE586857D
:100C9000E697A0E69C89E69588E59BBE00000000EB
:100CA00020E8AFBBE58699464C415348E587BAE951
:100CB0009499202000000000202020E69CAAE5AEA8
:100CC0009AE4B989E99499E8AFAF202020000000A8
:100CD0002020E697A0E69588E5AF84E5AD98E599F4
:100CE000A8E58FB72020000020E5AF84E5AD98E5AA
:100CF00099A8E58685E5AEB9E99499E8AFAF2000FB
:100D000020E8AEB0E4BA8BE69CACE9A1B5E7A081DF
:100D1000E99499E8AFAF200020202020E68C87E7F7
:100D2000BAB9E5BA93E6BBA120202020000000005C
:100D300020202020E59CB0E59D80E99499E8AFAFA4
:100D4000202020200000000020E8BF94E59B9EE7C3
:100D5000A1AEE8AEA4E7A081E69C89E8AFAF200091
:100D600072B6FEE778B50024009490F83C20012A82
:100D700019D0012280F83C200A6807230568092A57
:100D800013D9EE680A3A02EB420293409E43EE60AA
:100D90000B788A680A3B03EB43039A400368DD68DB
:100DA0002A43DA6010E0022078BD2E6902EB42028D
:100DB00093409E432E610B788A6803EB43039A406D
:100DC00003681D692A431A614A681F23072A13D240
:100DD00005686E6B521E02EB820293409E436E6367
:100DE0000B790A885B1E92B203EB83039A40036877
:100DF0005D6B2A435A6327E005680D2A12D22E6BD9
:100E0000D21F02EB820293409E432E630B790A8825
:100E1000DB1F92B203EB83039A4003681D6B2A43E6
:100E20001A6311E0EE6A0D3A02EB820293409E4390
:100E3000EE620B790A880D3B92B203EB83039A4072
:100E40000368DD6A2A43DA62164B0568144A9D423C
:100E500006D10D68122D03D1556845F48005556003
:100E600005689D4218D10B68102B01D0112B13D1AE
:100E7000536843F400035360096810290CD10A49F0
:100E80000A4A0968B1FBF2F101EB8101490000E077
:100E9000491E00910029FBD180F83C40002078BD1C
:100EA00000230140002001404400002040420F0088
:100EB00070B504004FF0000503D0206C002610B17F
:100EC00007E0012070BD204600F01CF8666484F83D
:100ED0003C60206CC00610D4206C20F4885040F098
:100EE000020020642046FFF7D9FB6664206C20F0E6
:100EF000020040F00100206400E0012584F83C601D
:100F0000284670BD10B586B0044614216846FFF728
:100F1000E9FA1149206888421CD110480021026872
:100F200042F480720260006800F4807005900B4803
:100F30001438026842F001020260006800F001000B
:100F40000590022000900320CDE901016946044884
:100F500000F0A4F806B010BD002001404438024063
:100F6000000002402DE9F0410446876D00F09CF935
:100F7000064694F835000025022806D080206065DA
:100F800084F834500120BDE8F0812068016821F028
:100F9000160101602068416921F080014161206CE7
:100FA00008B9A06C20B12068016821F00801016037
:100FB0002068016821F0010101600CE000F074F983
:100FC000801B052807D920206065032084F83500A0
:100FD00084F83450D7E720680068C007EED194F851
:100FE0005C103F208840B860012084F8350084F808
:100FF00034500020C7E790F83510022903D0802133
:10100000416501207047052180F8351000680168AE
:1010100021F00101016000207047000070B5044616
:1010200000F042F90546601C02D0044800780444F0
:1010300000F03AF9401BA042FAD370BD38000020FE
:101040000A4901238028CA680CD040280DD1022A01
:101050000BD1074A10604B706423062205A1084893
:1010600001F0FBB9012A00D18B707047000000200D
:10107000143C0140E8A7A6E58F91E4BA8600000081
:1010800088030020044910B50A68024202D00860B3
:10109000FFF7D6FF10BD0000143C01402DE9F84FCA
:1010A000DFF8BCA10022012503264FF00F090AF149
:1010B000040BAAF1040E00BF0B6805FA02F42340EA
:1010C000A34270D10F7907F00307012F01D0022F3F
:1010D00016D187684FEA420806FA08FC27EA0C078F
:1010E000D1F80CC00CFA08FC4CEA070CC0F808C098
:1010F0004768A7430C79C4F3001494403C43446010
:101100000C79E443A4070AD0C4684FEA420C06FAFB
:101110000CF7BC438F6807FA0CF72743C7600C79BC
:1011200004F00304022C12D1D40800EB840CDCF888
:1011300020405707FF0E09FA07F824EA0804D1F8FF
:10114000108008FA07F848EA0408CCF82080046800
:101150004FEA420C06FA0CF7BC430F7907F003077D
:1011600007FA0CF7274307604C6814F4403F70D02F
:101170003C4C276847F480472760246822F0030727
:1011800004F480440094384C07EB040CDCF8084865
:1011900097074FEA177809FA08F7BC43334FB8426C
:1011A00002D1002724E054E0314FB84201D1012799
:1011B0001EE0304FB84201D1022719E02E4FB8424D
:1011C00001D1032714E02D4FB84201D104270FE0CD
:1011D0002B4FB84201D105270AE02A4FB84201D16E
:1011E000062705E0284FB84201D1072700E008276D
:1011F00007FA08F72743CCF80878DAF80040574692
:10120000D1F804C09C435FEACC2C00D51C433C6061
:10121000DBF800405F46D1F804C09C435FEA8C2CA9
:1012200000D51C433C60DEF800407746D1F804C08E
:101230009C435FEA8C3C00D51C433C60084F083F50
:101240003C68D1F804C09C435FEACC3C00D51C4309
:101250003C60521C102AFFF42FAFBDE8F88F00004D
:10126000083C014044380240003001400000024088
:101270000004024000080240000C0240001002403E
:101280000014024000180240001C0240426921EA9A
:1012900002030A4043EA0241816170470AB1816159
:1012A00070470904FBE700000148806870470000B0
:1012B000380000200248816802781144816070473C
:1012C000380000200B4810B5016841F4007101603E
:1012D000016841F480610160016841F4807101603E
:1012E000032000F087F80D2000F006F800F024F845
:1012F000002010BD003C024070B50D4D04464FF477
:101300007A712878B1FBF0F00A490968B1FBF0F076
:1013100000F024FB48B9102C07D200222146501EB1
:1013200000F048F800206C6070BD012070BD000026
:1013300038000020440000200E4808B5016841F440
:1013400080410160006800F4804000900948001F5F
:10135000016841F0805101600068002200F0805077
:1013600000901146052000F025F8BDE80840052052
:1013700000F013B84438024000280DDB00F01F02D3
:10138000012191404009800000F1E020C0F8801167
:10139000BFF34F8FBFF36F8F7047002809DB00F05A
:1013A0001F02012191404009800000F1E020C0F8B7
:1013B00000117047F0B40E4B1B680C46C3F30223B8
:1013C000C3F10705042D00D90425191D072901D2F1
:1013D000002300E0DB1E012606FA05F1491E21402C
:1013E00099409E40761E16403143F0BC01F083BE0A
:1013F0000CED00E0064900F0070208684FF6FF0315
:10140000184040EA0220034A104308607047000079
:101410000CED00E00000FA052DE9F0470E4605004E
:1014200065D0DFF81481D8F80000F7B200F00700AB
:10143000B04207D288F80070D8F8000000F007002A
:10144000B04254D128683D4C810712D5400703D5DE
:10145000206840F4E05020602878000703D5206819
:1014600040F4604020602068A96820F0F000084344
:1014700020602878C0072DD03049686808390128D5
:1014800012D0022813D0032811D009688907002937
:101490002DDA216821F0030101432160FFF704FFE9
:1014A000814641F2883A0EE009688903EFE709684E
:1014B0008901ECE7FFF7F8FEA0EB0901514502D9DD
:1014C0000320BDE8F0872068696800F00C00B0EBED
:1014D000810FEFD1D8F80010404601F00701B1426A
:1014E00007D90770006800F00700B04201D0012062
:1014F000E7E72878400705D52068E96820F4E05040
:10150000084320602878000706D52068296920F460
:10151000604040EAC100206000F038F82168084AC5
:10152000C1F30311515CC8400649086006480068D1
:10153000FFF7E2FE0020C4E7003C0240083802400A
:1015400082310008440000203C0000200448054986
:1015500000680968044AC1F38221515CC8407047A1
:101560004400002008380240923100080448054930
:1015700000680968044AC1F34231515CC8407047B1
:10158000440000200838024092310008154810B588
:10159000006810F00C02144813D01449042A0FD02C
:1015A000082A0ED10F4C241F2268236802F03F0244
:1015B0005B0207D52068C0F38810A0FB010106E09C
:1015C000084610BD2168C1F38811A1FB000100236A
:1015D000FEF74EFE2168C1F30141491C4900B0FBF2
:1015E000F1F010BD083802400024F40040787D017D
:1015F0002DE9F84F04006ED02078DFF84C93C00737
:10160000A9F104054AD009F104000168C1F3810180
:10161000012908D00068C0F3810002280AD1D9F856
:101620000000400206D52868800337D5606800288E
:10163000E1D033E06068B0F5803F10D0B0F5A02F66
:10164000286810D020F480302860286820F480209A
:1016500028606068A8B1FFF727FE06460DE02868FD
:1016600040F48030F4E740F480202860F7E700BFC2
:10167000FFF71AFE801B642873D828688003F7D50B
:101680000CE0FFF711FE064605E000BFFFF70CFE79
:10169000801B6428F0D828688003F7D42078DFF80E
:1016A000AC8280074FF0000A3ED5A748001D0168B4
:1016B00011F00C0F08D00068C0F3810002280BD194
:1016C000D9F80000400207D42868800716D5E068E2
:1016D000012800D112E033E1E068B8B10120C8F878
:1016E0000000FFF7E1FD064605E000BFFFF7DCFD67
:1016F000801B0228C0D828688007F7D52868216990
:1017000020F0F80040EAC10028600DE0C8F800A011
:10171000FFF7CAFD064604E0FFF7C6FD801B02285E
:101720001FD828688007F7D42078000722D5864F75
:1017300087486169703771B101210160FFF7B4FD1D
:10174000064604E0FFF7B0FD801B022809D8386880
:101750008007F7D50EE0C0F800A0FFF7A5FD06460C
:1017600005E082E0FFF7A0FD801B02287DD83868E5
:101770008007F7D42078400768D5DFF8CCB1002780
:101780000BF13C0BDBF80000C0000BD4DBF80010C1
:1017900041F08051CBF80010DBF80000012700F089
:1017A000805000906B4E3068C00510D4306840F413
:1017B00080703060FFF778FD009005E0FFF774FD62
:1017C0000099401A022850D83068C005F6D55E4E00
:1017D000A0686C3601280FD00528306810D020F0A2
:1017E00001003060306820F004003060A068B8B1BB
:1017F000FFF75AFD00900FE0306840F00100F4E779
:1018000040F004003060F7E7FFF74EFD0099411A01
:1018100041F28830814266D830688007F4D50EE006
:10182000FFF742FD009007E0FFF73EFD0099411AE7
:1018300041F28830814256D830688007F4D42FB105
:10184000DBF8001021F08051CBF80010A069C8B37C
:101850003D49091D0968C1F3810102294AD00228C6
:10186000504607D0C8F8600000E03CE0FFF71CFDE0
:1018700004463BE04746C8F86000FFF715FD064602
:1018800005E000BFFFF710FD801B02282BD8286859
:101890008001F7D4D4E907010843A16A2E4A490818
:1018A00002EB0141626A41EA8211084394F82C106C
:1018B00040EA0161C9F8001001203866FFF7F4FC26
:1018C000044606E03EE000BFFFF7EEFC001B0228E6
:1018D00009D828688001F7D534E000BFFFF7E4FCA1
:1018E000001B022802D90320BDE8F88F2868800178
:1018F000F4D427E00128F7D0D9F80000E26900F419
:10190000800191421CD1226A00F03F01914217D11F
:1019100047F6C071626A0140B1EB821F10D1A26A22
:101920004FF0FF3300F4403103EB5202B1EB024FB2
:1019300006D194F82C1000F07060B0EB016F01D06C
:101940000120D1E70020CFE70438024000004742E1
:10195000800E4742007000400000FFFF10B5401E9F
:10196000B0F1807F01D3012010BD4FF0E024606111
:101970000F21601701F0BFFB0020A061072020614C
:10198000002010BD7047704770B590F83C20012AC8
:1019900032D0012480F83C40022280F83D200368C8
:1019A0005A689D6822F070060A6832435A60134BE9
:1019B00002689A4214D0B2F1804F11D0104B9A4273
:1019C0000ED0104B9A420BD00F4B9A4208D00F4BBF
:1019D0009A4205D00E4B9A4202D00E4B9A4204D145
:1019E000496825F080031943916080F83D4000214B
:1019F00080F83C10084670BD022070BD0000014018
:101A00000004004000080040000C004000040140B9
:101A1000004001400018004010B5040003D094F8C5
:101A20003D0010B107E0012010BD002084F83C000B
:101A3000204600F01FF8022084F83D00211D206898
:101A400001F05AF9012084F8460084F83E0084F839
:101A50003F0084F8400084F8410084F8420084F894
:101A6000430084F8440084F8450084F83D000020D9
:101A700010BD000008B501681948B1F1804F0BD0C6
:101A8000184A914217D1016841F0040101600068D1
:101A900000F00400009008BD016841F00101016000
:101AA0000068002200F0010000900F211C20FFF7C9
:101AB00081FC1C2010E00C4A9142ECD1016841F0FD
:101AC000100101600068002200F010000090114633
:101AD0003620FFF76FFC3620BDE80840FFF75DBCFD
:101AE00040380240000800400010004090F83D10CF
:101AF000012901D001207047022180F83D100168C2
:101B0000CA6842F00102CA6000681149884214D0D4
:101B1000B0F1804F11D00F4988420ED00E49884253
:101B20000BD00E49884208D00D49884205D00D4996
:101B3000884202D00C49884204D1816801F0070133
:101B4000062903D0016841F00101016000207047BF
:101B5000000001400004004000080040000C00406C
:101B60000004014000400140001800400168CA68BC
:101B700022F00102CA6001680A6A41F211131A4296
:101B800007D10A6A9B101A4203D10A6822F00102A7
:101B90000A60012180F83D100020704770B50446AE
:101BA00090F83C000025012817D0012684F83C60FD
:101BB000022084F83D002068826822F0770222F437
:101BC0007F4282600868502838D00DDC20284FD032
:101BD00005DC90B3102811D14AE0022070BD3028F6
:101BE00046D040280AD13BE060282FD070280DD085
:101BF000B0F5805F03D0B0F5005F12D0012584F806
:101C00003D60002084F83C00284670BDCB68D1E9D7
:101C10000121206801F0DCF82068816841F077013B
:101C200009E0CB68D1E90121206801F0D1F82068F2
:101C3000816841F480418160E1E719E0CA68496840
:101C4000206801F0D7F85021206806E0CA6849688A
:101C5000206801F0E0F86021206801F0C3F8CEE7C9
:101C6000CA684968206801F0C5F840212068F4E797
:101C7000226801461046F0E770472DE9F04104461E
:101C80000068C66805694FF00007A90713D5B107BA
:101C900011D5F91E01610120207720688069800735
:101CA000204602D0FFF7E8FF04E000F07EF820466F
:101CB00000F07CF82777680716D5700714D52168DF
:101CC0006FF004000861022020772068806910F41A
:101CD000407F204602D0FFF7CFFF04E000F065F818
:101CE000204600F063F82777280715D5300713D56D
:101CF00021686FF008000861042020772068C0691F
:101D00008007204602D0FFF7B7FF04E000F04DF84F
:101D1000204600F04BF82777E80616D5F00614D5D4
:101D200021686FF010000861082020772068C069E2
:101D300010F4407F204602D0FFF79EFF04E000F041
:101D400034F8204600F032F82777E80708D0F0078B
:101D500006D021686FF001000861204600F028F8E5
:101D6000280608D5300606D521686FF08000086186
:101D70002046FFF707FE680608D5700606D52168DD
:101D80006FF040000861204600F088F8A8060AD5E8
:101D9000B00608D521686FF0200008612046BDE834
:101DA000F041FFF7F0BDBDE8F081704770470000DB
:101DB00070B506461720FFF7DFFA33480125334C8C
:101DC000864202D1E16801B92570864201D1E168FD
:101DD00079B1864202D1E16801290CD0864202D154
:101DE000E16802290CD0864228D1E068032813D08C
:101DF00024E0257022E0A06800281CDD257008E0A2
:101E0000A068002803DC2048FFF7B0FE00E0257042
:101E1000A068401EA06011E025702069012805D04F
:101E200002280BD11A480078012807D1A068401E6B
:101E3000A060002802DC1448FFF798FE154886428F
:101E400004D1606A10B1A188FFF720FA12488642D7
:101E500014D1206A0021401C20623C2803D1E06993
:101E6000401CC4E90701E0693C2807D1A069401C77
:101E7000C4E906016169884200D1E570BDE870409F
:101E80001720FFF78ABA000020020020000000207F
:101E90003400002068020020B00200207047704724
:101EA00070470000F8B5016804460868CA684B69C5
:101EB00010F00F0F4FF0000559D003F0010602F4A7
:101EC0009077374365D0C10705D0D10503D5616C44
:101ED00041F001016164410705D5D90703D0616C68
:101EE00041F002016164810705D5D90703D0616C17
:101EF00041F004016164010707D502F0200131437C
:101F000003D0616C41F008016164616C00293AD032
:101F1000800604D5900602D5204600F0C4FF206854
:101F20004069616CC0F38010090700D460B320469B
:101F300000F092FF20684069400621D520681430E7
:101F400050E8001F21F0400140E80012002AF5D1BE
:101F5000E06BA8B16E490165E06BFFF74CF8002813
:101F600011D0E06B016D01B0BDE8F0400847830679
:101F70000FD593060DD52046BDE8F84000F093BF7D
:101F80002046FFF78DFFF8BD2046FFF789FF656407
:101F9000F8BD266B2023012E7DD1C6067BD5D60643
:101FA00079D508684868009048694FF002064006F5
:101FB00041D5E16B086840680004000CE8D0A28DB0
:101FC0008242E5D9E085C869B0F5807F2DD02068D0
:101FD0000C3050E8001F21F4807140E80012002A04
:101FE000F5D12068143050E8001F21F0010140E8CD
:101FF0000012002AF5D12068143050E8001F21F0AB
:10200000400140E80012002AF5D184F842302563EF
:1020100020680C3050E8001F21F0100140E8001249
:10202000002AF5D1E06BFEF79DFF6663A08DE18D80
:10203000401A81B22AE0A08DE18D401A81B2E08D74
:102040000028A5D00029A3D022680C3252E8000F46
:1020500020F4907042E80007002FF5D1206814307A
:1020600050E8002F22F0010240E80027002FF5D1B0
:1020700084F84230256320680C3050E8002F22F0AD
:10208000100240E80023002BF5D166632046FFF7DD
:1020900006FFF8BDFFE705062BD5150629D594F8F0
:1020A00041002128F5D1A068B0F5805F01D12069F9
:1020B000B0B1206A411C2162216800784860E08C40
:1020C000401E0004000CE084E3D12068C16821F0C8
:1020D0008001C1602068C16841F04001C160D8E75B
:1020E000206A0088C0F308004860206A801C2062D3
:1020F000E5E74006CDD55006CBD5CA68204622F08C
:102100004002CA6084F8413000F0F7F9C1E70000EE
:10211000492E000870B5040004D094F84100002551
:1021200010B106E0012070BD84F84050204600F058
:1021300023F8242084F841002068C16821F400516C
:10214000C160204600F010FF2068016921F4904131
:1021500001612068416921F02A0141612068C1685C
:1021600041F40051C1606564202084F8410084F886
:1021700042006563002070BD2DE9F04786B004463B
:1021800014216846FEF7AEF97D49DFF8F0C12368F7
:1021900000247B4A10390225032608277948DFF8F6
:1021A000E8A1634529D1136843F400231360126842
:1021B00002F4002205920A6842F001020A600A68ED
:1021C00002F0010205920A6842F004020A600968FE
:1021D00002AB01F0040105910121CDE9001583E86E
:1021E000D0006946FEF75AFFA802CDE9000502AB10
:1021F000694683E8D00050465CE0DFF890C1634553
:1022000033D1106840F480101060106800F4801022
:102210000590086840F004000860086800F00400B9
:102220000590086840F008000860086802AB00F0FC
:10223000080005904FF48050CDE9000583E8D000F8
:1022400069465046FEF72AFF0420CDE9000502AB9F
:10225000694683E8D0004E48FEF720FF0022114671
:102260003520FFF7A7F8352085E0DFF82881DFF873
:1022700010914FF0070C09F1040943451FD1D9F81B
:10228000003043F01003C9F80030D9F8002002F004
:10229000100205920A6842F001020A60096802AA67
:1022A00001F0010105914FF4C061CDE9001582E80C
:1022B00050106946FEF7F2FE06B0BDE8F087DFF881
:1022C000D880434514D1136843F400331360126877
:1022D00002F4003205920A6842F001020A600968BD
:1022E00001F0010105910C21CDE90015694618E0C6
:1022F0002A48834219D1106840F480201060106889
:1023000000F480200590086840F00200086008682A
:10231000694600F0020005904FF44060CDE90005E9
:102320001F4802AB83E85010C4E71E488342C3D164
:10233000D9F8002042F02002C9F80020D9F80000A6
:1023400000F020000590086840F00400086008686C
:1023500002AA00F004000590C020CDE9000582E843
:10236000D00069465046FEF799FE002211464720EC
:10237000FFF720F84720FFF710F89DE7004C0040DA
:102380004038024000000240000802400050004077
:10239000000C024000100140004400400048004092
:1023A00000040240001401402DE9F84F044690F863
:1023B00042009A4616460D46202802D00220BDE86B
:1023C000F88FB5B1AEB100206064222184F84210CC
:1023D0002063FEF769FFA6858146E685A0684FF475
:1023E00080582027404501D1206920B12E46002584
:1023F00029E00120E3E7002625E04B4600222021CA
:102400002046CDF800A000F035FE18B184F84270E7
:102410000320D4E726B1A06840451AD038B108E0BF
:1024200020684068C0F3080025F8020B08E0206926
:1024300078B12068406800F07F0000BF06F8010B0B
:10244000E08D401EE085E08D0028D6D184F84270F2
:10245000B5E720684068F1E770472DE9F843044686
:1024600090F84100984616460D46202802D00220DA
:10247000BDE8F88385B17EB100206064212084F836
:102480004100FEF711FFA6848146E684A06820275C
:10249000B0F5805F02D003E00120E9E7206910B1C8
:1024A0002E4600250EE000260CE08021204600F09C
:1024B000E1FDA8B9C6B116F8010B21684860E08CAF
:1024C000401EE084E08C4B464FF00002CDF80080C7
:1024D0000028EAD14FF04001204600F0CBFD40B18A
:1024E00084F841700320C3E735F8020BC0F30800FD
:1024F000E3E784F841700020BAE77047FEE7000088
:102500001CB5EF218DF8001001218DF8011016493E
:1025100049680A0E8DF802200A0C8DF803200A0A79
:102520008DF804208DF8051007218DF80610002184
:102530008DF807100D490A685206FCD583084FF440
:10254000C8720B490B48FFF72FFF0722084968465E
:10255000FDF79CFF28B969460548FDF785FF00286F
:1025600000D100201CBD00002800002000440040D5
:1025700048000020D00300207FB5002415480094B7
:10258000019402941249039401604FF40031C0E9B0
:1025900001140461047680F820400F49C0E90A1450
:1025A0000125C561C46080F830404561FEF780FCBC
:1025B00008B1FEF7D5FB0095CDE901546946054801
:1025C000FEF7D0FB002801D0FEF7CAFB7FBD00005C
:1025D00000200140D80100200100000F2DE9F04F3C
:1025E00087B014216846FDF77DFF4E48002501683D
:1025F00041F020010160016801F0200105910168AE
:1026000041F004010160016801F0040105910168D5
:1026100041F001010160016801F0010105910168CB
:1026200041F002010160016801F0020105910168B9
:1026300041F040010160016801F04001059101682D
:1026400041F0080101600068DFF8DCB000F008002C
:1026500040F201180590002241465846FEF71EFE42
:1026600048F28019002249463048FEF717FE4FF421
:10267000006A002251462E48FEF710FE002240213B
:102680002C48FEF70BFE80204FF48816CDE900069B
:102690000220029069462848FEF700FD40270124E9
:1026A0000097CDE9016469462348FEF7F7FCCDE9C0
:1026B000008469465846CDE90245FEF7EFFC062046
:1026C000CDE90005694602945846FEF7E7FC0097FD
:1026D000CDE9016469461548FEF7E0FCCDE90094B8
:1026E00069461248CDE90245FEF7D8FCCDE900A4C1
:1026F00069460F48CDE90245FEF7D0FCCDE90074EC
:1027000069460C48CDE90245FEF7C8FC00220E21BF
:102710001720FEF74FFE1720FEF73FFE07B0BDE87B
:10272000F08F0000303802400008024000180240DC
:1027300000000240000C02400014024010B586B0B8
:1027400000241948009401940294039404944FF0D7
:102750008041059401604AF210414160102181607E
:1027600041F27071C1604FF400710161802181619B
:10277000FFF752F908B1FEF7F3FA4FF480500090DA
:1027800069460948FFF70AFA08B1FEF7E9FA049426
:1027900004A905480594FFF7F7F8002801D0FEF7D3
:1027A000DFFA06B010BD00002002002010B586B090
:1027B0000024194800940194029403940494154948
:1027C000059401604AF2104141601021816041F29C
:1027D0007071C1604FF40071016180218161FFF768
:1027E0001BF908B1FEF7BCFA4FF48050009069461F
:1027F0000948FFF7D3F908B1FEF7B2FA049404A927
:1028000005480594FFF7C0F8002801D0FEF7A8FAA4
:1028100006B010BD00080040680200201CB500246E
:102820000F4800940D490194016044F29F11C0E9E2
:10283000011442F20F718461C160FFF7EDF808B135
:10284000FEF78EFA0094694605480194FFF79CF85C
:10285000002801D0FEF784FA1CBD000000100040E3
:10286000B00200200C4810B50A4901604FF4E13174
:102870004160002181600C22C160C0E904128161C5
:10288000C161FFF747FC002803D0BDE81040FEF708
:1028900067BA10BD004C0040F80200200C4810B58B
:1028A0000A4901604FF4E1314160002181600C224E
:1028B000C160C0E904128161C161FFF72BFC0028EF
:1028C00003D0BDE81040FEF74BBA10BD00500040E9
:1028D000400300200C4810B50A4901604FF4E13173
:1028E0004160002181600C22C160C0E90412816155
:1028F000C161FFF70FFC002803D0BDE81040FEF7D0
:102900002FBA10BD00100140880300200C4810B5FC
:102910000A4901604FF461414160002181600C224D
:10292000C160C0E904128161C161FFF7F3FB0028B7
:1029300003D0BDE81040FEF713BA10BD00440040BC
:10294000D00300200C4810B50A4901604FF416511D
:102950004160002181600C22C160C0E904128161E4
:10296000C161FFF7D7FB002803D0BDE81040FEF798
:10297000F7B910BD00480040180400200C4810B5FD
:102980000A4901604FF4E1314160002181600C226D
:10299000C160C0E904128161C161FFF7BBFB00287F
:1029A00003D0BDE81040FEF7DBB910BD00140140B4
:1029B0006004002003490A685206FCD50149091D3C
:1029C0000860704700440040FEE7FEE710B504468B
:1029D00000F010F900F0ECF80120FFF7EBFF042005
:1029E00000F011F90220FFF7E5FF2046FFF7E2FFB4
:1029F000E01D00F0F5F84FF4FA60FFF781FD08B133
:102A0000407A10BDFF2010BD10B500F0F3F800F0C3
:102A1000CFF80120FFF7CEFF032000F0F4F80120EB
:102A2000FFF7C8FF052000F0DBF84FF4FA60FFF76E
:102A300067FD08B1407A10BDFF2010BD10B500F051
:102A4000D9F800F0B5F80120FFF7B4FF032000F03B
:102A5000DAF80320FFF7AEFF072000F0C1F84FF4CB
:102A6000FA60FFF74DFD08B1407A10BDFF2010BDA0
:102A700010B500F0BFF800F09BF80120FFF79AFFB7
:102A8000032000F0C0F80520FFF794FF092000F0B4
:102A9000A7F84FF4FA60FFF733FD08B1407A10BD94
:102AA000FF2010BD70B50C46054600F0A3F800F0FD
:102AB0007FF80120FFF77EFF062000F0A4F8062033
:102AC000FFF778FF2846FFF775FF200AFFF772FF30
:102AD000E0B2FFF76FFF05EB1420E1B208440D30C0
:102AE00000F07EF84FF4FA60FFF70AFD08B1407A73
:102AF00070BDFF2070BD000070B590B0064600F0BC
:102B000079F800F055F80120FFF754FF032000F09A
:102B10007AF81D20FFF74EFF212000F061F84FF4F6
:102B2000FA60FFF7EDFC040007D0E07AA17A657A3D
:102B300000EB0120308055B100E0FF256423102216
:102B40000BA11248FFF789FC10B0284670BD402148
:102B50006846FDF7C7FCE07AA17A00EB01220CA1E0
:102B60006846FDF7FDFB642314226946E9E700008F
:102B7000E8AFBBE58F96E68C87E7BAB9E695B0E992
:102B80009499E8AFAFEFBC810000000088030020FB
:102B9000E69C89E69588E68C87E7BAB9E4B8AAE6A8
:102BA00095B03D25640000007047704770470000F5
:102BB00010B50A4C6068000EFFF7FCFE6068C0F3B9
:102BC0000740FFF7F7FEA088C0F30720FFF7F2FEEB
:102BD0002079BDE81040FFF7EDBE0000280000207E
:102BE00010B50446000AFFF7E5FEE0B2BDE810406C
:102BF000FFF7E0BE10B5EF20FFF7DCFEBDE81040A8
:102C00000120FFF7D7BE10B50446C0F30720FFF739
:102C1000D1FEE0B2BDE81040FFF7CCBE10B5FDF725
:102C200051FF01466423BDE8104018220148FFF718
:102C300014BC000088030020FEF73CBB30B593B005
:102C400030216846FDF74EFC14210CA8FDF74AFC24
:102C50001D480025016841F080510160006800F0C6
:102C6000805011901948016841F48041016000686A
:102C7000022400F480401190012003901020049061
:102C8000009406940820CDE90750A820CDE9090456
:102C900004200B906846FEF7ABFC08B172B6FEE765
:102CA0000CA90F2081E831004FF4A0500F904FF491
:102CB0008050109005210CA8FEF7AEFB002801D033
:102CC00072B6FEE713B030BD4038024000700040DD
:102CD0000248016841F470010160704788ED00E02E
:102CE0000148FEF7CABF0000200200200148FEF79D
:102CF000C4BF0000B0020020F0B50268294C2A4D84
:102D00002A4E2B4F2B4B4FF0804CA04209D06045F0
:102D100007D0A84205D0B04203D0B84201D09842B3
:102D200004D122F0700E4A6842EA0E02A0421BD083
:102D3000604519D0A84217D0B04215D0B84213D080
:102D4000984211D01C4DA8420ED01C4DA8420BD069
:102D50001B4DA84208D01B4DA84205D01A4DA842D1
:102D600002D01A4DA84203D122F44075CA682A4302
:102D70004D6922F080022A4302608A68C2620A68B2
:102D80008262A04201D0984201D109690163012108
:102D900041610169C90703D0016921F001010161A5
:102DA000F0BD0000000001400004004000080040A9
:102DB000000C00400004014000400140004401407C
:102DC0000048014000180040001C00400020004066
:102DD00010B5846842EA032224F47F440A43224364
:102DE000826010BD826822F070020A4342F007013F
:102DF0008160704710B5036A046A24F0010404621C
:102E0000846924F0F00444EA021423F00A020A431D
:102E10008461026210BD10B5036A046A24F01004D4
:102E20000462846923F0A00324F4704444EA02326B
:102E300043EA01118261016210BD00000148FFF701
:102E400031B800004003002010B5806B0021C1851F
:102E5000C184FFF725F810BD01680C3151E8002F3F
:102E600022F4907241E80023002BF5D1016814315F
:102E700051E8002F22F0010241E80023002BF5D198
:102E8000016B012909D101680C3151E8002F22F0B2
:102E9000100241E80023002BF5D1202180F84210D8
:102EA00000210163704708B590F84210222901D033
:102EB000022008BD82684FF480539A4201D1016913
:102EC00021B1816A9A421BD04AB10AE00268816A44
:102ED0005268C2F308020A80816A891C08E002690C
:102EE00072B10268526802F07F020A70816A491C5E
:102EF0008162C18D491E0904090CC18503D01BE004
:102F000002685268F1E70168CA6822F02002CA60CC
:102F10000168CA6822F48072CA6001684A6922F0B6
:102F200001024A61202180F8421000214163026BB6
:102F3000012A03D0FFF790FA002008BD0163016861
:102F40000C3151E8002F22F0100241E80023002B41
:102F5000F5D101680A68D20602D50A68496800916D
:102F6000818DFEF79CFFE7E770B5044600680169B4
:102F7000E26821F44051114301612169A068E269CE
:102F800008436169114308432168CA6849F20C6328
:102F90009A430243CA6020684169A26921F44071E2
:102FA0001143416131492068884202D0304988424A
:102FB00002D1FEF7DBFA01E0FEF7C8FAE26900236E
:102FC000192164253226B2F5004F626828D0A0FB93
:102FD0000101930F9200FDF74BF90146B0FBF5F0AC
:102FE0006FF01802504301EB800006EB0010B0FBBD
:102FF000F5F000F0F002B1FBF5F002EB0012B1FBCE
:10300000F5F06FF01803584301EB800006EB001059
:10301000B0FBF5F000F00F0021681044886070BD2F
:10302000A0FB010192185B41FDF722F90146B0FBBC
:10303000F5F00201B1FBF5F06FF01803584301EB16
:10304000800006EBC000B0FBF5F000F0F80002EBEA
:103050004002B1FBF5F0584301EB800006EBC000E5
:10306000B0FBF5F000F00700D6E7000000100140CB
:10307000001401402DE9F843984617460D460446D2
:10308000089E24E0701C22D0FEF70EF9A0EB080089
:10309000B0421AD8CEB12068C168490717D5802D33
:1030A00015D0402D13D00168C94309070FD401681A
:1030B0000025406800902046FFF7CEFE082060649F
:1030C00084F840500120BDE8F8830320FBE7206826
:1030D000006835EA000004D00020B842D2D00020B9
:1030E000F1E70120F9E700000148FEF7DBBE000030
:1030F00060040020FEE70907090E002804DB00F148
:10310000E02080F80014704700F00F0000F1E0208C
:1031100080F8141D70470000FEF7D4F8FFF78EFD0D
:10312000FFF75CFAFFF728FAFFF708FBFFF7D2FB7F
:10313000FFF7ECFBFFF706FCFFF7B0FBFFF792FB96
:10314000FFF71CFCFFF732FBFFF768FB0748FEF7B1
:10315000CDFC074800210170012141700549032081
:10316000C1F80000FDF72EFBFCE70000B0020020D4
:1031700030000020080000204FF04070E1EE100AFF
:103180007047000000000000000001020304060771
:10319000080900000000010203040000BC3100081F
:1031A0000000002048000000C401000804320008AC
:1031B00048000020C00A0000E001000800000000F4
:1031C000FFFF0000030000000000000000000000FE
:1031D00008000000000000000000000000000000E7
:1031E0000000000000000000FFFFFFFF0000643C43
:1031F00000000000010000001000000000000000BE
:043200000024F400B2
:040000050800018965
:00000001FF
