:020000040800F2
:10000000B8090020310200083F210008411E000805
:100010003D210008490A00086F2700080000000081
:100020000000000000000000000000002123000884
:100030004B0A0008000000001D230008AD23000843
:100040004B0200084B0200084B0200084B0200085C
:100050004B0200081F2300084B0200084B02000857
:100060004B0200084B0200084B0200084B0200083C
:100070004B0200084B0200084B0200084B0200082C
:100080004B0200084B0200084B0200084B0200081C
:100090004B0200084B0200084B0200084D0A000802
:1000A0004B0200084B0200084B0200084B020008FC
:1000B000552400084B0200084B0200084B020008C0
:1000C0004B0200084B0200084B0200084B020008DC
:1000D0004B0200084B0200084B0200084B020008CC
:1000E0004B0200084B0200084B0200084B020008BC
:1000F0004B0200084B0200084B0200084B020008AC
:100100004B0200084B0200084B0200084B0200089B
:100110004B0200084B0200084B0200084B0200088B
:100120004B0200084B0200084B0200084B0200087B
:100130004B0200084B0200084B0200084B0200086B
:100140004B0200084B0200084B0200084B0200085B
:100150004B0200084B0200084B0200084B0200084B
:100160004B0200084B0200084B0200084B0200083B
:100170004B0200084B0200084B0200080000000080
:100180004B0200084B02000800F002F800F041F8B2
:100190000AA090E8000C82448344AAF10107DA45E2
:1001A00001D100F036F8AFF2090EBAE80F0013F0F3
:1001B000010F18BFFB1A43F001031847282600005F
:1001C00048260000103A24BF78C878C1FAD85207F0
:1001D00024BF30C830C144BF04680C6070470000C1
:1001E0000023002400250026103A28BF78C1FBD840
:1001F000520728BF30C148BF0B607047642900F028
:10020000F780002070471FB502F0DAFA1FBD10B565
:1002100010BD00F008FA1146FFF7F5FF02F0B8FA3A
:1002200000F026FA03B4FFF7F2FF03BC00F02EFA49
:100230000948804709480047FEE7FEE7FEE7FEE77A
:10024000FEE7FEE7FEE7FEE7FEE7FEE704480549B6
:10025000054A064B70470000452400088901000844
:10026000B8030020B8090020B8050020B805002018
:1002700053EA020C00F069802DE9F04B4FF00006C4
:10028000002B1FBFB3FA83F503FA05F424FA05F631
:100290005E4012BF1643B2FA82F502FA05F4C5F1C8
:1002A00020051EBF22FA05FC44EA0C04203556EA5C
:1002B000044C4FEA144418BF641C4FF000084FF080
:1002C0000009904271EB030C39D3002919BFB1FA30
:1002D00081F701FA07F6B0FA80F700FA07F6C7F1DE
:1002E00020071EBF20FA07FC46EA0C062037B6FBA3
:1002F000F4FCA7EB0507103F07F01F0BCBF120061E
:100300000CFA0BFB2CFA06F644BFB3460026202F4E
:10031000A4BF5E464FF0000B5BEA060C08BF4FF02F
:10032000010B19EB0B09ABFB027C48EB0608C01B69
:1003300006FB02CC0BFB03CC71EB0C01C1E70B46B7
:10034000024641464846BDE8F08B13B54FF0000029
:100350004FF00001AFF30080BDE81C407047000083
:100360000FB41CB5074B06AA7B446946009005985C
:1003700000F041F90020694600F050F91CBC5DF81E
:1003800014FB0000B10200002DE9F0410E460446C6
:10039000002020622046E168884730B3252805D038
:1003A000D4E901219047206A401CF2E7E168204629
:1003B00000278847050018D0A5F14100192802D868
:1003C00020354FF400673246294620462760FFF764
:1003D00015FF40B1012804D0F61D26F007060836A7
:1003E000D8E7361DD6E72846DAE7206ABDE8F0816F
:1003F0002DE9F0410646002410687529314616A5FE
:1004000010D0AFF30080002802DA404213A507E0C5
:1004100031688A0701D512A502E0490704D511A564
:10042000012401E0AFF3008000210A2206F1240735
:1004300009E0B0FBF2FCB0FBF2F302FB1C00303031
:1004400078541846491C0028F3D123462A463046E2
:10045000BDE8F04100F070B8000000002D00000081
:100460002B0000002000000030B505460B462A4650
:1004700013F8014B12F8010B08B1A042F8D01CB1DF
:10048000002802D06D1CF1E7284630BD40EA010388
:1004900010B59B070FD1042A0DD310C808C9121F2D
:1004A0009C42F8D020BA19BA884201D9012010BD67
:1004B0004FF0FF3010BD1AB1D30703D0521C07E034
:1004C000002010BD10F8013B11F8014B1B1B07D198
:1004D00010F8013B11F8014B1B1B01D1921EF1D109
:1004E000184610BD4FF0000200B5134694469646DC
:1004F000203922BFA0E80C50A0E80C50B1F1200137
:10050000BFF4F7AF090728BFA0E80C5048BF0CC0E4
:100510005DF804EB890028BF40F8042B08BF704742
:1005200048BF20F8022B11F0804F18BF00F8012BB4
:1005300070477047704770472DE9F0470D46994660
:100540009246044600F124080168880604D5E06953
:1005500021F01001216000E00120A84201DD471BCD
:1005600000E00027A1697A1902EB0900081AA061CE
:100570002078C00602D42046AFF30080002608E0B1
:10058000D4E901211AF806009047206A401C761C25
:1005900020624E45F4DB2078C0060AD52046AFF332
:1005A000008006E0D4E9012130209047206A401CF9
:1005B0002062381EA7F10107F4DC07E0D4E901212D
:1005C00018F805009047206A401C2062281EA5F1FB
:1005D0000105F3DC2046AFF300802078000602D549
:1005E0000220BDE8F0870120FBE7000001694A1CFA
:1005F00002610878704700B58FB0CDE90131002164
:10060000059105497944CDE9031011466846FFF785
:10061000BBFE0FB000BD0000E5FFFFFF0A6802F857
:10062000010B0A607047754600F02CF8AE460500D5
:100630006946534620F00700854618B020B5FFF7FD
:1006400005FEBDE820404FF000064FF000074FF0D8
:1006500000084FF0000B21F00701AC46ACE8C009E0
:10066000ACE8C009ACE8C009ACE8C0098D467047E9
:1006700010B50446AFF300802046BDE81040FFF7F8
:10068000D1BD0000004870475803002001491820E0
:10069000ABBEFEE72600020070470000464910B5D9
:1006A0004A6822F440324A604A6843681A434A6002
:1006B00001684A6822F480724A6001684A680369E6
:1006C00042EA03224A6001684A6822F040724A60A6
:1006D00001684A6883681A434A6001688A6822F49C
:1006E00000628A6001688A68C3681A438A60816A06
:1006F0006FF07062D14201688A6822F070628A608D
:1007000001688A680CD0836A1A438A6001688A6823
:1007100022F040528A6001688A68C36A1A4301E085
:1007200022F040528A6001688A6822F002028A60E0
:1007300001688A68037E42EA43028A6090F82010CA
:10074000002901684A680FD042F400624A600168DB
:100750004A6822F460424A6001684A68174C436A5A
:1007600004EB43331A4301E022F400624A6001685B
:10077000CA6A22F47002CA620168CA6A838B104C8A
:1007800004EB03531A43CA6201688A6822F40072B8
:100790008A6001688A6890F8303042EA43228A60B1
:1007A00001688A6822F480628A6001688A68406908
:1007B00042EA8020886010BD0023014000E0FFFF76
:1007C0000000F0FF2DE9F8430020ADF800000546D9
:1007D00006464FF4FA784FF4C879052D7ED2DFE84B
:1007E00005F00323456A8C00641CE4B264231422E0
:1007F00051A1574801F0D4FA01F0C0FC30B1642394
:10080000142254A1524801F0CBFA67E0012001F014
:1008100097FC002827D16423142254A14C4801F0EE
:10082000BFFA002401251AE0641CE4B264231422F8
:1008300054A1474801F0B4FA40F2DC5000F078FBD4
:1008400001F09CFC78B9022001F07AFC58B96423CD
:10085000142246A13E4801F0A3FA0024022548468E
:1008600000F066FBB9E701F093FD37E06423142242
:100870004AA1374801F094FA01F09AFC05004FF0C4
:1008800064034FF014020FD04AA1314801F088FAF6
:10089000284601F07DFD00242546404600F048FB37
:1008A000484600F045FB9FE748A1294801F078FA47
:1008B0000325404610E0642318224AA1244801F091
:1008C0006FFA404600F034FB01F08CFC68B1002563
:1008D00001F05EFD4FF47A7000F02AFB484600F00C
:1008E00027FB0A2CBED1BDE8F88364231A2243A15A
:1008F000174801F055FA0425ECE7684601F0B6FC0C
:1009000018B9BDF80000401CC6B23146022001F003
:1009100083FC07004FF064034FF0140206D03EA1A1
:100920000B4801F03DFA002538469CE740A10848F5
:1009300001F036FAD7E7000020202020E8AFB7E624
:100940008C89E6898BE68C8720202020000000001F
:100950008002002020E88EB7E58F96E59BBEE583F8
:100960008FE5A4B1E8B4A5200000000020202020DD
:10097000E68C87E7BAB9E6ADA3E5B8B82020202019
:10098000000000002020E8AFB7E5868DE68C89E402
:10099000B880E6ACA1202020000000002020E5AFB8
:1009A000B9E6AF94E4B8A4E6ACA1E68C87E7BAB99F
:1009B0002020000020202020E5AFB9E6AF94E5A478
:1009C000B1E8B4A520202020000000002020202035
:1009D000E5AFB9E6AF94E68890E58A9F2020202015
:1009E000000000002020E7949FE68890E68C87E7CF
:1009F000BAB9E6A8A1E69DBF20200000E7949FE6D3
:100A00008890E68C87E7BAB9E6A8A1E69DBFE6889C
:100A100090E58A9F000000002020E5BD95E585A5B2
:100A2000E68C87E7BAB9E5A4B1E8B4A520200000B8
:100A30002020E5BD95E585A5E68C87E7BAB9E6886F
:100A400090E58A9F20200000FEE77047802000F09C
:100A500095BA000021283CD2DFE800F011131517E9
:100A6000191B1D1F212325273B3B3B3B27293B3BD4
:100A70003B2B3B3B2D2F3133353B3B37390016A009
:100A800070471AA070471FA0704725A070472BA081
:100A9000704730A0704735A070473AA070473FA01C
:100AA000704744A0704749A070474EA0704753A0BC
:100AB000704758A070475EA0704763A0704768A059
:100AC00070476DA0704772A0704777A070477CA0F8
:100AD000704781A070470000202020202020204F58
:100AE0004B202020202020200000000020E695B090
:100AF000E68DAEE58C85E68EA5E694B6E99499E898
:100B0000AFAF2000E4BCA0E6849FE599A8E4B88AD2
:100B1000E6B2A1E69C89E6898BE68C87000000009E
:100B2000E5BD95E585A5E68C87E7BAB9E59BBEE509
:100B3000838FE5A4B1E8B4A50000000020E68C870F
:100B4000E7BAB9E5A4AAE5B9B2E68896E5A4AAE6AB
:100B5000B7A1200020E68C87E7BAB9E5A4AAE6B9D8
:100B6000BFE68896E5A4AAE7B38A20002020E68C99
:100B700087E7BAB9E59BBEE5838FE5A4AAE4B9B1DE
:100B80002020000020E68C87E7BAB9E789B9E5BEE6
:100B900081E782B9E5A4AAE5B09120002020E68C87
:100BA00087E7BAB9E4B88DE58CB9E9858D202020B6
:100BB0002000000020E6B2A1E69C89E6909CE7B404
:100BC000A2E588B0E68C87E7BAB92000202020E7AC
:100BD00089B9E5BE81E59088E5B9B6E5A4B1E8B488
:100BE000A52000002020E588A0E999A4E6A8A1E6B8
:100BF0009DBFE5A4B1E8B4A52020000020E6B8859B
:100C0000E7A9BAE68C87E7BAB9E5BA93E5A4B1E8F3
:100C1000B4A52000E7BC93E586B2E58CBAE58685ED
:100C2000E697A0E69C89E69588E59BBE000000005B
:100C300020E8AFBBE58699464C415348E587BAE9C1
:100C40009499202000000000202020E69CAAE5AE18
:100C50009AE4B989E99499E8AFAF20202000000018
:100C60002020E697A0E69588E5AF84E5AD98E59964
:100C7000A8E58FB72020000020E5AF84E5AD98E51A
:100C800099A8E58685E5AEB9E99499E8AFAF20006B
:100C900020E8AEB0E4BA8BE69CACE9A1B5E7A08150
:100CA000E99499E8AFAF200020202020E68C87E768
:100CB000BAB9E5BA93E6BBA12020202000000000CD
:100CC00020202020E59CB0E59D80E99499E8AFAF15
:100CD000202020200000000020E8BF94E59B9EE734
:100CE000A1AEE8AEA4E7A081E69C89E8AFAF200002
:100CF00072B6FEE778B50024009490F83C20012AF3
:100D000019D0012280F83C200A6807230568092AC7
:100D100013D9EE680A3A02EB420293409E43EE601A
:100D20000B788A680A3B03EB43039A400368DD684B
:100D30002A43DA6010E0022078BD2E6902EB4202FD
:100D400093409E432E610B788A6803EB43039A40DD
:100D500003681D692A431A614A681F23072A13D2B0
:100D600005686E6B521E02EB820293409E436E63D7
:100D70000B790A885B1E92B203EB83039A400368E7
:100D80005D6B2A435A6327E005680D2A12D22E6B49
:100D9000D21F02EB820293409E432E630B790A8896
:100DA000DB1F92B203EB83039A4003681D6B2A4357
:100DB0001A6311E0EE6A0D3A02EB820293409E4301
:100DC000EE620B790A880D3B92B203EB83039A40E3
:100DD0000368DD6A2A43DA62164B0568144A9D42AD
:100DE00006D10D68122D03D1556845F48005556074
:100DF00005689D4218D10B68102B01D0112B13D11F
:100E0000536843F400035360096810290CD10A4960
:100E10000A4A0968B1FBF2F101EB8101490000E0E7
:100E2000491E00910029FBD180F83C40002078BD8C
:100E300000230140002001401400002040420F0028
:100E400070B504004FF0000503D0206C002610B1EF
:100E500007E0012070BD204600F01CF8666484F8AD
:100E60003C60206CC00610D4206C20F4885040F008
:100E7000020020642046FFF711FC6664206C20F01D
:100E8000020040F00100206400E0012584F83C608D
:100E9000284670BD30B587B0044614216846FFF778
:100EA00021FB1F4824681D4D00221D4914380323CF
:100EB000AC4216D10C6844F480740C60096801F4EB
:100EC00080710591016841F0010101600068694687
:100ED00000F0010005900220CDE9000302921148C4
:100EE00018E0114DAC4217D10C6844F400740C604A
:100EF000096801F400710591016841F00401016085
:100F00000068694600F0040005900820CDE9000360
:100F10000292064800F03EF807B030BD00200140C4
:100F20004438024000000240002101400008024015
:100F300070B5044600F026F90546601C02D004484E
:100F40000078044400F01EF9401BA042FAD370BDA3
:100F50000800002010B5802809D1FFF733FC642376
:100F6000BDE81040052202A1034800F019BF10BDE2
:100F7000746F75636800000080020020044910B59A
:100F80000A68024202D00860FFF7E4FF10BD0000CB
:100F9000143C01402DE9F84FDFF8BCA100220125E7
:100FA00003264FF00F090AF1040BAAF1040E00BF4B
:100FB0000B6805FA02F42340A34270D10F7907F0C1
:100FC0000307012F01D0022F16D187684FEA42088C
:100FD00006FA08FC27EA0C07D1F80CC00CFA08FC4A
:100FE0004CEA070CC0F808C04768A7430C79C4F363
:100FF000001494403C4344600C79E443A4070AD0B5
:10100000C4684FEA420C06FA0CF7BC438F6807FA33
:101010000CF72743C7600C7904F00304022C12D1AB
:10102000D40800EB840CDCF820405707FF0E09FAC7
:1010300007F824EA0804D1F8108008FA07F848EA0B
:101040000408CCF8208004684FEA420C06FA0CF73A
:10105000BC430F7907F0030707FA0CF72743076033
:101060004C6814F4403F70D03C4C276847F48047EC
:101070002760246822F0030704F480440094384C6D
:1010800007EB040CDCF8084897074FEA177809FAD1
:1010900008F7BC43334FB84202D1002724E054E0A4
:1010A000314FB84201D101271EE0304FB84201D183
:1010B000022719E02E4FB84201D1032714E02D4F2B
:1010C000B84201D104270FE02B4FB84201D10527C8
:1010D0000AE02A4FB84201D1062705E0284FB8425E
:1010E00001D1072700E0082707FA08F72743CCF8C3
:1010F0000878DAF800405746D1F804C09C435FEA0C
:10110000CC2C00D51C433C60DBF800405F46D1F896
:1011100004C09C435FEA8C2C00D51C433C60DEF885
:1011200000407746D1F804C09C435FEA8C3C00D570
:101130001C433C60084F083F3C68D1F804C09C4306
:101140005FEACC3C00D51C433C60521C102AFFF4E3
:101150002FAFBDE8F88F0000083C01404438024042
:10116000003001400000024000040240000802403C
:10117000000C02400010024000140240001802401F
:10118000001C0240014880687047000008000020F1
:10119000024881680278114481607047080000208D
:1011A0000B4810B5016841F400710160016841F419
:1011B00080610160016841F480710160032000F0EA
:1011C00077F8002000F006F800F024F8002010BDA9
:1011D000003C024070B50D4D04464FF47A712878FA
:1011E000B1FBF0F00A490968B1FBF0F000F014FB24
:1011F00048B9102C07D200222146501E00F038F8C2
:1012000000206C6070BD012070BD0000080000204F
:10121000140000200E4808B5016841F480410160C7
:10122000006800F4804000900948001F016841F008
:10123000805101600068002200F08050009011464B
:10124000052000F015F8BDE80840052000F002B8C0
:1012500044380240002809DB00F01F0201219140C0
:101260004009800000F1E020C0F800117047000044
:10127000F0B40E4B1B680C46C3F30223C3F1070501
:10128000042D00D90425191D072901D2002300E0EF
:10129000DB1E012606FA05F1491E214099409E40B9
:1012A000761E16403143F0BC01F062BA0CED00E04E
:1012B000064900F0070208684FF6FF03184040EAAD
:1012C0000220034A10430860704700000CED00E064
:1012D0000000FA052DE9F0470E46050065D0DFF85D
:1012E0001481D8F80000F7B200F00700B04207D22E
:1012F00088F80070D8F8000000F00700B04254D120
:1013000028683D4C810712D5400703D5206840F47A
:10131000E05020602878000703D5206840F4604042
:1013200020602068A96820F0F00008432060287839
:10133000C0072DD0304968680839012812D002282A
:1013400013D0032811D00968890700292DDA2168F4
:1013500021F0030101432160FFF714FF814641F2B0
:10136000883A0EE009688903EFE709688901ECE72C
:10137000FFF708FFA0EB0901514502D90320BDE8A2
:10138000F0872068696800F00C00B0EB810FEFD1A6
:10139000D8F80010404601F00701B14207D90770A4
:1013A000006800F00700B04201D00120E7E728788C
:1013B000400705D52068E96820F4E0500843206024
:1013C0002878000706D52068296920F4604040EAA3
:1013D000C100206000F038F82168084AC1F3031109
:1013E000515CC8400649086006480068FFF7F2FEF5
:1013F0000020C4E7003C024008380240CA27000829
:10140000140000200C000020044805490068096809
:10141000044AC1F38221515CC84070471400002087
:1014200008380240DA2700080448054900680968BE
:10143000044AC1F34231515CC84070471400002097
:1014400008380240DA270008154810B5006810F087
:101450000C02144813D01449042A0FD0082A0ED1C4
:101460000F4C241F2268236802F03F025B0207D55D
:101470002068C0F38810A0FB010106E0084610BDFB
:101480002168C1F38811A1FB00010023FEF7F0FEE3
:101490002168C1F30141491C4900B0FBF1F010BDC6
:1014A000083802400024F40040787D012DE9F84F0F
:1014B00004006ED02078DFF84C93C007A9F1040532
:1014C0004AD009F104000168C1F38101012908D063
:1014D0000068C0F3810002280AD1D9F80000400258
:1014E00006D52868800337D560680028E1D033E04E
:1014F0006068B0F5803F10D0B0F5A02F286810D0FC
:1015000020F480302860286820F4802028606068FB
:10151000A8B1FFF737FE06460DE0286840F480309A
:10152000F4E740F480202860F7E700BFFFF72AFEC9
:10153000801B642873D828688003F7D50CE0FFF778
:1015400021FE064605E000BFFFF71CFE801B642855
:10155000F0D828688003F7D42078DFF8AC828007C1
:101560004FF0000A3ED5A748001D016811F00C0F8E
:1015700008D00068C0F3810002280BD1D9F8000020
:10158000400207D42868800716D5E068012800D1FA
:1015900012E033E1E068B8B10120C8F80000FFF7BD
:1015A000F1FD064605E000BFFFF7ECFD801B0228B9
:1015B000C0D828688007F7D52868216920F0F8008E
:1015C00040EAC10028600DE0C8F800A0FFF7DAFD8E
:1015D000064604E0FFF7D6FD801B02281FD82868C6
:1015E0008007F7D42078000722D5864F87486169A5
:1015F000703771B101210160FFF7C4FD064604E0B8
:10160000FFF7C0FD801B022809D838688007F7D58E
:101610000EE0C0F800A0FFF7B5FD064605E082E049
:10162000FFF7B0FD801B02287DD838688007F7D40B
:101630002078400768D5DFF8CCB100270BF13C0BD0
:10164000DBF80000C0000BD4DBF8001041F0805143
:10165000CBF80010DBF80000012700F0805000906C
:101660006B4E3068C00510D4306840F48070306034
:10167000FFF788FD009005E0FFF784FD0099401A10
:10168000022850D83068C005F6D55E4EA0686C368A
:1016900001280FD00528306810D020F001003060FC
:1016A000306820F004003060A068B8B1FFF76AFD30
:1016B00000900FE0306840F00100F4E740F00400D3
:1016C0003060F7E7FFF75EFD0099411A41F288307C
:1016D000814266D830688007F4D50EE0FFF752FDEE
:1016E000009007E0FFF74EFD0099411A41F2883063
:1016F000814256D830688007F4D42FB1DBF800104F
:1017000021F08051CBF80010A069C8B33D49091DF4
:101710000968C1F3810102294AD00228504607D046
:10172000C8F8600000E03CE0FFF72CFD04463BE019
:101730004746C8F86000FFF725FD064605E000BFF4
:10174000FFF720FD801B02282BD828688001F7D4E2
:10175000D4E907010843A16A2E4A490802EB014176
:10176000626A41EA8211084394F82C1040EA016150
:10177000C9F8001001203866FFF704FD044606E0B2
:101780003EE000BFFFF7FEFC001B022809D82868D6
:101790008001F7D534E000BFFFF7F4FC001B0228FE
:1017A00002D90320BDE8F88F28688001F4D427E02F
:1017B0000128F7D0D9F80000E26900F480019142D5
:1017C0001CD1226A00F03F01914217D147F6C07147
:1017D000626A0140B1EB821F10D1A26A4FF0FF3361
:1017E00000F4403103EB5202B1EB024F06D194F802
:1017F0002C1000F07060B0EB016F01D00120D1E738
:101800000020CFE70438024000004742800E4742E4
:10181000007000400000FFFF10B5401EB0F1807F57
:1018200001D3012010BD4FF0E02460610F2160174B
:1018300000F09EFF0020A06107202061002010BD65
:101840007047704770B590F83C20012A32D00124CF
:1018500080F83C40022280F83D2003685A689D6869
:1018600022F070060A6832435A60134B02689A42AB
:1018700014D0B2F1804F11D0104B9A420ED0104BC1
:101880009A420BD00F4B9A4208D00F4B9A4205D088
:101890000E4B9A4202D00E4B9A4204D1496825F071
:1018A00080031943916080F83D40002180F83C108E
:1018B000084670BD022070BD0000014000040040D9
:1018C00000080040000C00400004014000400140BE
:1018D0000018004010B5040003D094F83D0010B18A
:1018E00007E0012010BD002084F83C00204600F0F5
:1018F0001FF8022084F83D00211D206800F0B0FD93
:10190000012084F8460084F83E0084F83F0084F803
:10191000400084F8410084F8420084F8430084F8D1
:10192000440084F8450084F83D00002010BD00000C
:1019300008B50068B0F1804F12D10A48016841F043
:10194000010101600068002200F0010000900E21FA
:101950001C20FFF78DFCBDE808401C20FFF77ABC77
:1019600008BD00004038024070B5044690F83C00C5
:101970000025012817D0012684F83C60022084F855
:101980003D002068826822F0770222F47F42826064
:101990000868502838D00DDC20284FD005DC90B3E3
:1019A000102811D14AE0022070BD302846D04028CE
:1019B0000AD13BE060282FD070280DD0B0F5805FB1
:1019C00003D0B0F5005F12D0012584F83D600020FF
:1019D00084F83C00284670BDCB68D1E9012120681D
:1019E00000F0AAFD2068816841F0770109E0CB682A
:1019F000D1E90121206800F09FFD2068816841F451
:101A000080418160E1E719E0CA684968206800F018
:101A1000A5FD5021206806E0CA684968206800F0EA
:101A2000AEFD6021206800F091FDCEE7CA684968EC
:101A3000206800F093FD40212068F4E72268014609
:101A40001046F0E770472DE9F04104460068C6688B
:101A500005694FF00007A90713D5B10711D5F91E85
:101A6000016101202077206880698007204602D02C
:101A7000FFF7E8FF04E000F07EF8204600F07CF875
:101A80002777680716D5700714D521686FF0040012
:101A90000861022020772068806910F4407F20468A
:101AA00002D0FFF7CFFF04E000F065F8204600F019
:101AB00063F82777280715D5300713D521686FF00D
:101AC00008000861042020772068C069800720464C
:101AD00002D0FFF7B7FF04E000F04DF8204600F019
:101AE0004BF82777E80616D5F00614D521686FF075
:101AF00010000861082020772068C06910F4407F3A
:101B0000204602D0FFF79EFF04E000F034F82046A4
:101B100000F032F82777E80708D0F00706D02168F0
:101B20006FF001000861204600F028F8280608D56B
:101B3000300606D521686FF0800008612046FFF767
:101B40007FFE680608D5700606D521686FF0400054
:101B50000861204600F024F8A8060AD5B00608D58A
:101B600021686FF0200008612046BDE8F041FFF7D2
:101B700068BEBDE8F08170477047000004498842A4
:101B800005D16423042203A1044800F009B9704779
:101B9000380200206E6968616F000000800200203A
:101BA000704770B5040004D094F84100002510B1CE
:101BB00006E0012070BD84F84050204600F024F873
:101BC000242084F841002068C16821F40051C160DC
:101BD000204600F00DFD2068016921F4904101616B
:101BE0002068416921F02A0141612068C16841F4FF
:101BF0000051C1606564202084F8410084F84200EF
:101C00006563002070BD0000F0B587B00446142164
:101C10006846FEF767FC304B276800222F490224F4
:101C2000032507262E489F4219D12C4B14331F68D9
:101C300047F010071F601B6803F0100305930B6843
:101C400043F001030B60096802AB01F0010105914B
:101C50006902CDE9001483E8640069461AE01F4B6D
:101C6000DFF880C01033674518D11F6847F400378C
:101C70001F601B6803F4003305930B6843F00103F6
:101C80000B60096801F0010105910C21CDE90014F8
:101C900069461CE0FFF77EF907B0F0BD12488742A5
:101CA000FAD1186840F480201860186800F4802089
:101CB0000590086840F0020008600868694600F076
:101CC000020005904FF44060CDE90004074802AFE0
:101CD00087E86400DEE70000001001403038024071
:101CE0000000024000440040004800400004024060
:101CF0002DE9F84F044690F842009A4616460D46E4
:101D0000202802D00220BDE8F88FB5B1AEB1002086
:101D10006064222184F842102063FFF733FAA6851D
:101D20008146E685A0684FF480582027404501D1C0
:101D3000206920B12E46002529E00120E3E7002696
:101D400025E04B46002220212046CDF800A000F0DF
:101D5000D5FC18B184F842700320D4E726B1A068FE
:101D600040451AD038B108E020684068C0F3080048
:101D700025F8020B08E0206978B12068406800F07F
:101D80007F0000BF06F8010BE08D401EE085E08D6E
:101D90000028D6D184F84270B5E720684068F1E7A2
:101DA0002DE9F843044690F84100984616460D4642
:101DB000202802D00220BDE8F88385B17EB1002042
:101DC0006064212084F84100FFF7DCF9A684814695
:101DD000E684A0682027B0F5805F02D003E00120F0
:101DE000E9E7206910B12E4600250EE000260CE040
:101DF0008021204600F082FCA8B9C6B116F8010B7C
:101E000021684860E08C401EE084E08C4B464FF037
:101E10000002CDF800800028EAD14FF040012046B2
:101E200000F06CFC40B184F841700320C3E735F842
:101E3000020BC0F30800E3E784F841700020BAE722
:101E4000FEE700001CB5EF218DF8001001218DF890
:101E5000011014498308154849680A0E8DF80220BC
:101E60000A0C8DF803200A0A8DF804208DF805105D
:101E700007218DF8061000218DF807104FF4C87265
:101E80000949FFF735FF072207496846FEF7FEFAC2
:101E900028B969460448FEF7E7FA002800D1002077
:101EA0001CBD00000000002018000020C802002017
:101EB0007FB50024154800940194029412490394BC
:101EC00001604FF40031C0E901140461047680F828
:101ED00020400F49C0E90A140125C561C46080F89B
:101EE00030404561FEF7ACFF08B1FEF701FF0095F9
:101EF000CDE9015469460548FEF7FCFE002801D0F3
:101F0000FEF7F6FE7FBD000000200140A801002082
:101F10000100000F7FB5002415480094019402943D
:101F20001249039401604FF40031C0E901140461C7
:101F3000047680F820400F49C0E90A140125C561E4
:101F4000C46080F830404561FEF77AFF08B1FEF7C3
:101F5000CFFE0D20CDE90005694602940448FEF746
:101F6000C9FE002801D0FEF7C3FE7FBD002101405D
:101F7000F00100200100000F10B586B01421684662
:101F8000FEF7B0FA20480021026842F02002026009
:101F9000026802F020020592026842F00402026028
:101FA000026802F004020592026842F00102026037
:101FB000026802F001020592026842F00202026029
:101FC0000068124C00F0020005904020CDE90001AD
:101FD0000120029069462046FEF7DCFF8020009039
:101FE0004FF4881001900220029069462046FEF7C7
:101FF000D1FF002201211720FFF73AF91720FFF740
:1020000029F906B010BD000030380240001402402B
:1020100010B586B0002419480094019402940394EA
:1020200004944FF08041059401604AF210414160F0
:10203000102181604FF4FA61C1604FF400710161B9
:1020400080218161FFF746FC08B1FEF751FE4FF495
:102050008050009069460948FFF786FC08B1FEF7FA
:1020600047FE049404A905480594FFF7EBFB0028FC
:1020700001D0FEF73DFE06B010BD00003802002082
:102080000C4810B50A4901604FF4E131416000216C
:1020900081600C22C160C0E904128161C161FFF757
:1020A00080FD002803D0BDE81040FEF721BE10BD22
:1020B00000100140800200200C4810B50A49016060
:1020C0004FF461414160002181600C22C160C0E990
:1020D00004128161C161FFF764FD002803D0BDE8EF
:1020E0001040FEF705BE10BD00440040C8020020AD
:1020F0000C4810B50A4901604FF4165141600021A7
:1021000081600C22C160C0E904128161C161FFF7E6
:1021100048FD002803D0BDE81040FEF7E9BD10BD22
:10212000004800401003002003490A685206FCD50D
:102130000149091D0860704700440040FEE7FEE7C2
:1021400010B5044600F010F900F0ECF80120FFF79C
:10215000EBFF042000F011F90220FFF7E5FF204615
:10216000FFF7E2FFE01D00F0F5F84FF4FA60FFF72B
:1021700069FE08B1407A10BDFF2010BD10B500F017
:10218000F3F800F0CFF80120FFF7CEFF032000F0B6
:10219000F4F80120FFF7C8FF052000F0DBF84FF44A
:1021A000FA60FFF74FFE08B1407A10BDFF2010BD66
:1021B00010B500F0D9F800F0B5F80120FFF7B4FF32
:1021C000032000F0DAF80320FFF7AEFF072000F04D
:1021D000C1F84FF4FA60FFF735FE08B1407A10BD40
:1021E000FF2010BD10B500F0BFF800F09BF80120F3
:1021F000FFF79AFF032000F0C0F80520FFF794FFD7
:10220000092000F0A7F84FF4FA60FFF71BFE08B1B1
:10221000407A10BDFF2010BD70B50C46054600F099
:10222000A3F800F07FF80120FFF77EFF062000F002
:10223000A4F80620FFF778FF2846FFF775FF200A6D
:10224000FFF772FFE0B2FFF76FFF05EB1420E1B27A
:1022500008440D3000F07EF84FF4FA60FFF7F2FD0D
:1022600008B1407A70BDFF2070BD000070B590B01D
:10227000064600F079F800F055F80120FFF754FF0A
:10228000032000F07AF81D20FFF74EFF212000F018
:1022900061F84FF4FA60FFF7D5FD040007D0E07A4B
:1022A000A17A657A00EB0120308055B100E0FF256E
:1022B000642310220BA11248FFF772FD10B02846CC
:1022C00070BD40216846FEF70DF9E07AA17A00EB77
:1022D00001220CA16846FEF743F8642314226946E4
:1022E000E9E70000E8AFBBE58F96E68C87E7BAB96F
:1022F000E695B0E99499E8AFAFEFBC81000000002B
:1023000080020020E69C89E69588E68C87E7BAB9CA
:10231000E4B8AAE695B03D25640000007047704718
:102320007047000010B50A4C6068000EFFF7FCFE15
:102330006068C0F30740FFF7F7FEA088C0F30720EE
:10234000FFF7F2FE2079BDE81040FFF7EDBE000078
:102350000000002010B50446000AFFF7E5FEE0B2D9
:10236000BDE81040FFF7E0BE10B5EF20FFF7DCFE40
:10237000BDE810400120FFF7D7BE10B50446C0F3FA
:102380000720FFF7D1FEE0B2BDE81040FFF7CCBE5A
:1023900010B5FEF75FFB01466423BDE8104018222C
:1023A0000148FFF7FDBC000080020020FEF7F0BEF0
:1023B00030B593B030216846FEF794F814210CA88C
:1023C000FEF790F81D480025016841F0805101603A
:1023D000006800F0805011901948016841F4804174
:1023E00001600068022400F48040119001200390F5
:1023F00010200490009406940820CDE90750A820EE
:10240000CDE9090404200B906846FFF74FF808B1A6
:1024100072B6FEE70CA90F2081E831004FF4A050FE
:102420000F904FF48050109005210CA8FEF752FF3A
:10243000002801D072B6FEE713B030BD403802402C
:10244000007000400248016841F47001016070476B
:1024500088ED00E00148FFF7F6BA000038020020DE
:10246000F0B50268294C2A4D2A4E2B4F2B4B4FF0CA
:10247000804CA04209D0604507D0A84205D0B042A8
:1024800003D0B84201D0984204D122F0700E4A68BD
:1024900042EA0E02A0421BD0604519D0A84217D0D4
:1024A000B04215D0B84213D0984211D01C4DA8426A
:1024B0000ED01C4DA8420BD01B4DA84208D01B4D7E
:1024C000A84205D01A4DA84202D01A4DA84203D105
:1024D00022F44075CA682A434D6922F080022A43DB
:1024E00002608A68C2620A688262A04201D0984291
:1024F00001D109690163012141610169C90703D063
:10250000016921F001010161F0BD000000000140FE
:102510000004004000080040000C0040000401409E
:1025200000400140004401400048014000180040C4
:10253000001C00400020004010B5846842EA0322DD
:1025400024F47F440A432243826010BD826822F053
:1025500070020A4342F007018160704710B5036AB8
:10256000046A24F001040462846924F0F00444EA5B
:10257000021423F00A020A438461026210BD10B5FE
:10258000036A046A24F010040462846923F0A0033F
:1025900024F4704444EA023243EA01118261016288
:1025A00010BD01680C3151E8002F22F4907241E80F
:1025B0000023002BF5D10168143151E8002F22F0DF
:1025C000010241E80023002BF5D1016B012909D15B
:1025D00001680C3151E8002F22F0100241E800237D
:1025E000002BF5D1202180F84210002101637047B3
:1025F00070B5044600680169E26821F44051114356
:1026000001612169A068E2690843616911430843D7
:102610002168CA6849F20C639A430243CA60206881
:102620004169A26921F44071114341613149206837
:10263000884202D03049884202D1FEF7F5FE01E01F
:10264000FEF7E2FEE2690023192164253226B2F585
:10265000004F626828D0A0FB0101930F9200FDF7A4
:1026600007FE0146B0FBF5F06FF01802504301EB96
:10267000800006EB0010B0FBF5F000F0F002B1FBBB
:10268000F5F002EB0012B1FBF5F06FF018035843C0
:1026900001EB800006EB0010B0FBF5F000F00F003E
:1026A00021681044886070BDA0FB010192185B4155
:1026B000FDF7DEFD0146B0FBF5F00201B1FBF5F0E0
:1026C0006FF01803584301EB800006EBC000B0FB2D
:1026D000F5F000F0F80002EB4002B1FBF5F05843D2
:1026E00001EB800006EBC000B0FBF5F000F0070046
:1026F000D6E7000000100140001401402DE9F84326
:10270000984617460D460446089E24E0701C22D0C9
:10271000FEF738FDA0EB0800B0421AD8CEB1206811
:10272000C168490717D5802D15D0402D13D00168F9
:10273000C94309070FD4016800254068009020466E
:10274000FFF72FFF0820606484F840500120BDE8A7
:10275000F8830320FBE72068006835EA000004D016
:102760000020B842D2D00020F1E70120F9E7FEE7CF
:102770000907090E002804DB00F1E02080F80014AE
:10278000704700F00F0000F1E02080F8141D704742
:10279000FEF706FDFFF70CFEFFF7EEFBFFF788FBE9
:1027A000FFF7B8FBFFF734FCFFF76AFCFFF784FC88
:1027B000FFF79EFC4FF47A742046FEF7B9FBFBE767
:1027C0004FF04070E1EE100A70470000000000007A
:1027D00000000102030406070809000000000102CE
:1027E0000304000004280008000000201800000076
:1027F000C40100081C28000818000020A0090000DF
:10280000E001000800000000FFFFFFFF01000000E2
:0C28100010000000000000000024F40094
:040000050800018965
:00000001FF
