:020000040800F2
:10000000680A0020450200089F2C000829290008E2
:100010009D2C0008C90F00082533000800000000CF
:10002000000000000000000000000000992D000802
:10003000CB0F000800000000952D0008812E00085D
:100040005F0200085F0200085F0200085F0200080C
:100050005F020008972D00085F0200085F02000899
:100060005F0200085F0200085F0200085F020008EC
:100070005F0200085F0200085F0200085F020008DC
:100080005F0200085F0200085F0200085F020008CC
:100090005F0200085F0200085F020008CD0F000841
:1000A0005F0200085F0200085F0200085F020008AC
:1000B000292F00085F0200085F0200085F020008A5
:1000C0005F0200085F0200085F0200085F0200088C
:1000D0005F0200085F0200085F0200085F0200087C
:1000E0005F0200085F0200085F0200085F0200086C
:1000F0005F0200085F0200085F0200085F0200085C
:100100005F0200085F0200085F0200085F0200084B
:100110005F0200085F0200085F0200085F0200083B
:100120005F0200085F0200085F0200085F0200082B
:100130005F0200085F0200085F0200085F0200081B
:100140005F0200085F0200085F0200085F0200080B
:100150005F0200085F0200085F0200081933000810
:100160005F0200085F0200085F0200085F020008EB
:100170005F0200085F0200085F0200080000000044
:100180005F0200085F02000800F002F800F04AF881
:100190000AA090E8000C82448344AAF10107DA45E2
:1001A00001D100F03FF8AFF2090EBAE80F0013F0EA
:1001B000010F18BFFB1A43F001031847EC3D000084
:1001C0000C3E0000103A24BF78C878C1FAD8520714
:1001D00024BF30C830C144BF04680C6070470000C1
:1001E0000023002400250026103A28BF78C1FBD840
:1001F000520728BF30C148BF0B607047642900F028
:100200000381002070471FB503F0B7FE00F0FCFD2E
:1002100004000020002103F061FB401C60601FBD52
:1002200010B510BD00F0B4FD1146FFF7ECFF03F070
:100230008BF800F0DBFD03B4FFF7F2FF03BC00F026
:10024000E7FD00000948804709480047FEE7FEE750
:10025000FEE7FEE7FEE7FEE7FEE7FEE7FEE7FEE776
:1002600004480549054A064B70470000192F00084D
:100270008901000868040020680A00206806002040
:100280006806002053EA020C00F069802DE9F04B6B
:100290004FF00006002B1FBFB3FA83F503FA05F4F5
:1002A00024FA05F65E4012BF1643B2FA82F502FA4E
:1002B00005F4C5F120051EBF22FA05FC44EA0C0432
:1002C000203556EA044C4FEA144418BF641C4FF022
:1002D00000084FF00009904271EB030C39D300295C
:1002E00019BFB1FA81F701FA07F6B0FA80F700FA00
:1002F00007F6C7F120071EBF20FA07FC46EA0C06E6
:100300002037B6FBF4FCA7EB0507103F07F01F0BE7
:10031000CBF120060CFA0BFB2CFA06F644BFB346D1
:100320000026202FA4BF5E464FF0000B5BEA060CB0
:1003300008BF4FF0010B19EB0B09ABFB027C48EB3C
:100340000608C01B06FB02CC0BFB03CC71EB0C01B7
:10035000C1E70B46024641464846BDE8F08B13B55F
:100360004FF000004FF00001AFF30080BDE81C40EB
:10037000704700000FB41CB5084B06AA7B446946C1
:100380000090059800F071FA04460020694600F0DC
:100390007FFA20461CBC5DF814FB0000110500002C
:1003A0002DE9F0410E460446002020622046E16817
:1003B000884730B3252805D0D4E901219047206A29
:1003C000401CF2E7E168204600278847050018D066
:1003D000A5F14100192802D820354FF400673246B4
:1003E000294620462760FFF709FF40B1012804D0C5
:1003F000F61D26F007060836D8E7361DD6E728464C
:10040000DAE7206ABDE8F0812DE9F04106460024D4
:1004100010687529314616A510D0AFF3008000286A
:1004200002DA404213A507E031688A0701D512A518
:1004300002E0490704D511A5012401E0AFF30080D3
:1004400000210A2206F1240709E0B0FBF2FCB0FB10
:10045000F2F302FB1C00303078541846491C002887
:10046000F3D123462A463046BDE8F04100F09EB95C
:10047000000000002D0000002B0000002000000004
:100480000FB400B58DB010A9099000910B904FF0FA
:10049000FF300A9000200C900648784406900648E9
:1004A00078446A4607900F9909A800F00BFA0DB03E
:1004B0005DF814FB470400005F0400002DE9FF5FB6
:1004C0001D464FF0FF3B91464FF000085F46D5E9CF
:1004D0000146A96901987F1C8847296A8246884796
:1004E0000028F6D1BAF1FF3F0CD0002E24F4C064EE
:1004F00019DD600614D5BAF12B0F09D0BAF12D0F12
:100500000ED103E0584604B0BDE8F09F44F4806487
:10051000A96901987F1C8847761E8246002E02DD5D
:10052000BAF1300F03D0B9F1000F26D032E0A9693B
:10053000761E01987F1C44F400748847002E824682
:1005400005DDBAF1780F06D0BAF1580F03D0B9F132
:10055000000F10D01EE0B9F1000F02D0B9F1100F5A
:1005600018D1A969761E01987F1C24F4007488476D
:100570008246102002E0082000E00A20814609E0BF
:10058000A96908FB0908761E01987F1C44F40074D1
:1005900088478246002E05DD4946504600F07DF929
:1005A0000028EDDAE96901988847A00502D46FF0C8
:1005B0000100A8E7E00725D1600613D5600502D544
:1005C000C8F1000000E0404629680A1D2A60096859
:1005D000220501D5087015E0220701D5088011E039
:1005E00008600FE02868011D29600068210502D518
:1005F00080F8008006E0210702D5A0F8008001E025
:10060000C0F8008038467EE7014A00F08BB9000050
:100610003000002030B505460B462A4613F8014B42
:1006200012F8010B08B1A042F8D01CB1002802D08A
:100630006D1CF1E7284630BD40EA010310B59B0769
:100640000FD1042A0DD310C808C9121F9C42F8D03C
:1006500020BA19BA884201D9012010BD4FF0FF30ED
:1006600010BD1AB1D30703D0521C07E0002010BD03
:1006700010F8013B11F8014B1B1B07D110F8013B8F
:1006800011F8014B1B1B01D1921EF1D1184610BD70
:1006900010B5431C02E010F8011B71B18107FAD1BB
:1006A0004FF0013202C88C1A8C4314EAC211F9D0FF
:1006B000C01A0A0603D0C01E10BDC01A10BD0A041D
:1006C00001D0801E10BD0902FCD0401E10BD032ABF
:1006D00040F2308010F0030C00F0158011F8013B5F
:1006E000BCF1020F624498BF11F801CB00F8013B46
:1006F00038BF11F8013BA2F1040298BF00F801CB0A
:1007000038BF00F8013B11F0030300F02D81083AD7
:10071000C0F0088051F8043B083A51F804CBA0E837
:100720000810F5E7121D5CBF51F8043B40F8043B8C
:10073000AFF30080D20724BF11F8013B11F801CBC1
:1007400048BF11F8012B24BF00F8013B00F801CB92
:1007500048BF00F8012B70474FF0000200B5134668
:1007600094469646203922BFA0E80C50A0E80C50D1
:10077000B1F12001BFF4F7AF090728BFA0E80C5082
:1007800048BF0CC05DF804EB890028BF40F8042B7B
:1007900008BF704748BF20F8022B11F0804F18BFE8
:1007A00000F8012B70477047704770472DE9F047FC
:1007B0000D4699469246044600F1240801688806D1
:1007C00004D5E06921F01001216000E00120A84279
:1007D00001DD471B00E00027A1697A1902EB09003F
:1007E000081AA0612078C00602D42046AFF300802A
:1007F000002608E0D4E901211AF806009047206A93
:10080000401C761C20624E45F4DB2078C0060AD5D9
:100810002046AFF3008006E0D4E901213020904764
:10082000206A401C2062381EA7F10107F4DC07E0B3
:10083000D4E9012118F805009047206A401C206285
:10084000281EA5F10105F3DC2046AFF300802078D7
:10085000000602D50220BDE8F0870120FBE700007A
:1008600001694A1C02610878704700B58FB0CDE974
:1008700001310021059105497944CDE90310114664
:100880006846FFF78DFD0FB000BD0000E5FFFFFFDC
:100890000A6802F8010B0A6070473A2800D2303823
:1008A00020F02002412A01D3A2F13700884201D36F
:1008B0004FF0FF3070470000026811441378016068
:1008C00018467047D160054979445161044979441B
:1008D000116200211161114600F082B8EDFFFFFFA7
:1008E000FB000000426842B1016811F8013B23B1EE
:1008F000521EC0E90012184670470121C160881ECF
:10090000704742685AB1C368016843B983688B4233
:1009100005D0491E521CC0E90012002070474FF05C
:10092000FF3070472DE9F04115460E46040002D114
:100930002C6804B90BA4204600F01CFA044420786B
:1009400070B127463146384600F004FA0444207856
:1009500010B1002004F8010B38462C60BDE8F0818E
:100960000027F9E70000000010B5203AC0F00B8026
:10097000B1E81850203AA0E81850B1E81850A0E8A3
:100980001850BFF4F5AF5FEA027C24BFB1E81850FD
:10099000A0E8185044BF18C918C0BDE810405FEA6D
:1009A000827C24BF51F8043B40F8043B08BF7047E9
:1009B000D20728BF31F8023B48BF11F8012B28BFEE
:1009C00020F8023B48BF00F8012B704710B50446E1
:1009D00000F004FA0068005D00F0010010BD0000A6
:1009E0002DE9F34F4FF0000A0C4656468DB001201A
:1009F0000C9001F10C000B9062690B98012190475B
:100A0000051E2DD0252D2CD0216A8847C0B16269E2
:100A10000B9801219047216A88470028F7D1626925
:100A2000411E0B98904700E0761CA1690D988847FD
:100A3000216A88470028F7D1E1690D988847DBE7EC
:100A4000A1690D988847A842074601D1761CD3E7D3
:100A5000E1690D9888477F1C02D1BAF1000F6FD071
:100A60006CE162690B9800273D46394690472A2879
:100A700004D162690B98012190470125DFF8D082EB
:100A800062690B9801219047A0F130010A290AD22E
:100A90004745E5DC07EB870100EB4107303FDFD43A
:100AA00045F01005ECE7E90601D46FF000476C282B
:100AB0000AD04C2814D0682815D06A280DD0742884
:100AC0001CD07A281AD01DE062690B98012190474A
:100AD0006C2802D045F0040514E045F002050DE055
:100AE00045F020050AE062690B98012190476828CB
:100AF00002D045F0080505E045F4006562690B98F1
:100B000001219047C4E9015765283DD019DC5828D8
:100B10007AD00CDC452837D004DC252826D04128A3
:100B20009ED131E046282FD0472899D12CE05B2870
:100B300077D0612828D063287CD0642823D15AE05C
:100B4000F7E06F2848D008DC66281DD067281BD046
:100B5000692821D06E2816D127E0702845D0732847
:100B600068D0752847D078280DD14DE0A1690D983F
:100B70008847252805463FF469AFE1690D98884705
:100B80006D1C3FF46AAFD9E00D9923466A466FF0B9
:100B90000100AFF30080C6E045F0400023464FF06F
:100BA00000026060A80736D43EE0E8077FF447AF54
:100BB0002068011D21600068290501D506701BE72A
:100BC000290701D5068017E7A90703D5F117C0E962
:100BD000006111E706600FE745F0400023464FF043
:100BE00008026060A80716D41EE040F60E0125EA50
:100BF0000100606016E045F0400023464FF00A0215
:100C00006060A80707D40FE045F040006060A807C7
:100C100008D5234610220D996FF00100AFF3008034
:100C200081E007E0102223460D996FF00100FFF7E5
:100C300045FC78E04FF0000963284F46C8464B4614
:100C4000CB4602D05B2807D039E02079C00601D41A
:100C50000120A060012732E06269D4F80CB00B9843
:100C6000012190475E2807D14FF00109494662698A
:100C7000D4F80CB00B989047216939B900210A4685
:100C800003AB43F82120491C0829FADBD8B32169BA
:100C900049B308F1010862690B98012190475D286A
:100CA000F4D1B9F1000F09D0002003A951F8202098
:100CB000D24341F82020401C0828F7DB03AB206911
:100CC000002820794FEA40701ED05B462246CDF8BE
:100CD0000080CDE901970D9900286FF0010020DA1E
:100CE000AFF300801FE0C11703AA00EBD1614B11E5
:100CF00021F01F0102EB8302411A13680120884092
:100D000003431360C7E719E00D99224600286FF0EE
:100D10000100009702DAAFF3008004E0AFF3008037
:100D200001E0AFF3008000280ADA401C06D10C98DD
:100D300020B14FF0FF300FB0BDE8F08F5046FAE71A
:100D4000E90701D10AF1010A064400200C9053E69C
:100D5000CCCCCC0C30B503461D781DB10A4603E05F
:100D6000AC4201D1181A30BD12F8014B002CF7D15A
:100D70005B1CF1E730B503461D783DB10A4612F819
:100D8000014B1CB1AC42FAD15B1CF5E7181A30BD1F
:100D9000754600F035F8AE4605006946534620F02A
:100DA0000700854618B020B5FFF75AFABDE8204085
:100DB0004FF000064FF000074FF000084FF0000B17
:100DC00021F00701AC46ACE8C009ACE8C009ACE8CA
:100DD000C009ACE8C0098D467047000010B500F0AE
:100DE00013F8001D10BD00BFF52A000010B5044621
:100DF000AFF300802046BDE81040FFF71CBA0000AA
:100E00000048704704040020004870472404002074
:100E100001491820ABBEFEE7260002004FF0013C5E
:100E200050F8042B51F8043B9A4221D1A2EB0C0359
:100E3000934313EACC1317D150F8042B51F8043B19
:100E40009A4215D1A2EB0C03934313EACC130BD1B6
:100E500050F8042B51F8043B9A4209D1A2EB0C0341
:100E6000934313EACC13DBD04FF00000704700BF70
:100E7000D01A01BAB1FA81F101F0180122FA01F099
:100E8000CB40C1F12001DBB2C0B2C01A2CFA01F391
:100E9000D11A914311EAC311E6D17047704700009F
:100EA000464910B54A6822F440324A604A684368AD
:100EB0001A434A6001684A6822F480724A600168F5
:100EC0004A68036942EA03224A6001684A6822F0DC
:100ED00040724A6001684A6883681A434A60016840
:100EE0008A6822F400628A6001688A68C3681A43CB
:100EF0008A60816A6FF07062D14201688A6822F06C
:100F000070628A6001688A680CD0836A1A438A60BA
:100F100001688A6822F040528A6001688A68C36A60
:100F20001A4301E022F040528A6001688A6822F088
:100F300002028A6001688A68037E42EA43028A608C
:100F400090F82010002901684A680FD042F400622E
:100F50004A6001684A6822F460424A6001684A684F
:100F6000174C436A04EB43331A4301E022F4006256
:100F70004A600168CA6A22F47002CA620168CA6AD9
:100F8000838B104C04EB03531A43CA6201688A68CE
:100F900022F400728A6001688A6890F8303042EA70
:100FA00043228A6001688A6822F480628A6001684C
:100FB0008A68406942EA8020886010BD00230140B1
:100FC00000E0FFFF0000F0FFFEE7704710B5402093
:100FD00000F0C8FABDE81040802000F0C3BA72B635
:100FE000FEE7000078B50024009490F83C20012A28
:100FF00019D0012280F83C200A6807230568092AD5
:1010000013D9EE680A3A02EB420293409E43EE6027
:101010000B788A680A3B03EB43039A400368DD6858
:101020002A43DA6010E0022078BD2E6902EB42020A
:1010300093409E432E610B788A6803EB43039A40EA
:1010400003681D692A431A614A681F23072A13D2BD
:1010500005686E6B521E02EB820293409E436E63E4
:101060000B790A885B1E92B203EB83039A400368F4
:101070005D6B2A435A6327E005680D2A12D22E6B56
:10108000D21F02EB820293409E432E630B790A88A3
:10109000DB1F92B203EB83039A4003681D6B2A4364
:1010A0001A6311E0EE6A0D3A02EB820293409E430E
:1010B000EE620B790A880D3B92B203EB83039A40F0
:1010C0000368DD6A2A43DA62164B0568144A9D42BA
:1010D00006D10D68122D03D1556845F48005556081
:1010E00005689D4218D10B68102B01D0112B13D12C
:1010F000536843F400035360096810290CD10A496E
:101100000A4A0968B1FBF2F101EB8101490000E0F4
:10111000491E00910029FBD180F83C40002078BD99
:1011200000230140002001402C00002040420F001D
:101130000068C06C704770B504004FF0000503D024
:10114000206C002610B107E0012070BD204600F0A1
:101150001DF8666484F83C60206CC00610D4206CD6
:1011600020F4885040F0020020642046FFF798FEEB
:101170006664206C20F0020040F00100206400E072
:10118000012584F83C60284670BD000010B586B08B
:10119000044614216846FFF7DFFA114920688842A7
:1011A0001CD110480021026842F48072026000687D
:1011B00000F4807005900B481438026842F0010278
:1011C0000260006800F001000590022000900320FA
:1011D000CDE901016946044800F0D0F906B010BD20
:1011E0000020014044380240000002402DE9F04157
:1011F000044600680D4681684FF0000749050BD58D
:101200008068C00508D5206C40F02000206484F878
:101210003C700120BDE8F08100F0AEFA064613E014
:10122000681C11D025B100F0A7FA801BA8420BD989
:1012300020680068800707D4206C40F00400206418
:1012400084F83C700320E5E7206800688007E7D554
:1012500021686FF012000860206C40F40070206478
:101260002068816811F0405F13D1217E89B9C16A7D
:1012700011F4700F02D0806840050AD4206C20F46D
:1012800080702064206CC00403D4206C40F0010006
:1012900020640020BEE7000018B50021009190F8FE
:1012A0003C20012A07D0012280F83C200268936884
:1012B000DB0702D011E0022018BD936843F0010360
:1012C0009360314A314B1268B2FBF3F202EB4202F7
:1012D00000E0521E0092002AFBD102689368DB07EF
:1012E00047D0036C40F20164A34343F4807303646A
:1012F00053685B0505D5036C23F4005343F4805316
:101300000364036CDB0404D5436C23F006034364DD
:1013100000E0416480F83C101D4B6FF02201116029
:1013200001684A681B4C22434A6059680068CA0633
:10133000194906D0884224D1816811F0405F13D04A
:101340001FE08842F8D0154A904203D1D1F8042317
:10135000D206F1D0124A904213D1D1F8041301F011
:101360001F011029E8D30CE0816841F080418160C1
:1013700007E0016C41F010010164416C41F0010192
:101380004164002018BD00002C00002040420F00E6
:101390000023014020000004002001400021014002
:1013A0000022014090F83C1001290CD0012180F866
:1013B0003C1001688A6822F001028A6001688A682C
:1013C000D20702D00BE0022070474A68064B1A4051
:1013D0004A60016C21F4885141F00101016400214F
:1013E00080F83C1008467047DFFFFFFB2DE9F04115
:1013F0000446876D00F0C0F9064694F835000025D4
:10140000022806D08020606584F834500120BDE8B1
:10141000F0812068016821F01601016020684169AF
:1014200021F080014161206C08B9A06C20B12068D6
:10143000016821F0080101602068016821F00101C4
:1014400001600CE000F098F9801B052807D92020E6
:101450006065032084F8350084F83450D7E72068AD
:101460000068C007EED194F85C103F208840B86057
:10147000012084F8350084F834500020C7E790F844
:101480003510022903D080214165012070470521D4
:1014900080F835100068016821F00101016000202A
:1014A0007047000070B5224C0125204AA1688028B1
:1014B00002D040282DD031E001292FD180201060AA
:1014C000172000F0C1F91B4800F098FD02F078F9F0
:1014D000022178B10320C4E901016570154942F683
:1014E000F8200968C8626423142213A1174801F088
:1014F000CAF913E00020A160607060600D4800F040
:101500007DFD6423142212A1104801F0BCF925705E
:1015100004E0022902D140201060A570172000F0DD
:10152000A4F9BDE87040034800F028BD143C014018
:10153000000000200C020020E68C87E7BAB9E9AA77
:101540008CE8AF81E68890E58A9F0000E4020020E5
:10155000E68C87E7BAB9E9AA8CE8AF81E5A4B1E8DF
:10156000B4A50000044910B50A68024202D0086020
:10157000FFF798FF10BD0000143C01402DE9F84F23
:10158000DFF8BCA10022012503264FF00F090AF164
:10159000040BAAF1040E00BF0B6805FA02F4234005
:1015A000A34270D10F7907F00307012F01D0022F5A
:1015B00016D187684FEA420806FA08FC27EA0C07AA
:1015C000D1F80CC00CFA08FC4CEA070CC0F808C0B3
:1015D0004768A7430C79C4F3001494403C4344602B
:1015E0000C79E443A4070AD0C4684FEA420C06FA17
:1015F0000CF7BC438F6807FA0CF72743C7600C79D8
:1016000004F00304022C12D1D40800EB840CDCF8A3
:1016100020405707FF0E09FA07F824EA0804D1F81A
:10162000108008FA07F848EA0408CCF8208004681B
:101630004FEA420C06FA0CF7BC430F7907F0030798
:1016400007FA0CF7274307604C6814F4403F70D04A
:101650003C4C276847F480472760246822F0030742
:1016600004F480440094384C07EB040CDCF8084880
:1016700097074FEA177809FA08F7BC43334FB84287
:1016800002D1002724E054E0314FB84201D10127B4
:101690001EE0304FB84201D1022719E02E4FB84268
:1016A00001D1032714E02D4FB84201D104270FE0E8
:1016B0002B4FB84201D105270AE02A4FB84201D189
:1016C000062705E0284FB84201D1072700E0082788
:1016D00007FA08F72743CCF80878DAF800405746AD
:1016E000D1F804C09C435FEACC2C00D51C433C607D
:1016F000DBF800405F46D1F804C09C435FEA8C2CC5
:1017000000D51C433C60DEF800407746D1F804C0A9
:101710009C435FEA8C3C00D51C433C60084F083F6B
:101720003C68D1F804C09C435FEACC3C00D51C4324
:101730003C60521C102AFFF42FAFBDE8F88F000068
:10174000083C0140443802400030014000000240A3
:101750000004024000080240000C02400010024059
:101760000014024000180240001C02400AB18161CE
:1017700070470904FBE700000148806870470000DB
:10178000200000200248816802781144816070477F
:10179000200000200B4810B5016841F40071016081
:1017A000016841F480610160016841F48071016069
:1017B000032000F087F80D2000F006F800F024F870
:1017C000002010BD003C024070B50D4D04464FF4A2
:1017D0007A712878B1FBF0F00A490968B1FBF0F0A2
:1017E00000F024FB48B9102C07D200222146501EDD
:1017F00000F048F800206C6070BD012070BD000052
:10180000200000202C0000200E4808B5016841F49B
:1018100080410160006800F4804000900948001F8A
:10182000016841F0805101600068002200F08050A2
:1018300000901146052000F025F8BDE8084005207D
:1018400000F013B84438024000280DDB00F01F02FE
:10185000012191404009800000F1E020C0F8801192
:10186000BFF34F8FBFF36F8F7047002809DB00F085
:101870001F02012191404009800000F1E020C0F8E2
:1018800000117047F0B40E4B1B680C46C3F30223E3
:10189000C3F10705042D00D90425191D072901D21C
:1018A000002300E0DB1E012606FA05F1491E214057
:1018B00099409E40761E16403143F0BC01F033BD86
:1018C0000CED00E0064900F0070208684FF6FF0340
:1018D000184040EA0220034A1043086070470000A5
:1018E0000CED00E00000FA052DE9F0470E4605007A
:1018F00065D0DFF81481D8F80000F7B200F00700D7
:10190000B04207D288F80070D8F8000000F0070055
:10191000B04254D128683D4C810712D5400703D509
:10192000206840F4E05020602878000703D5206844
:1019300040F4604020602068A96820F0F00008436F
:1019400020602878C0072DD0304968680839012800
:1019500012D0022813D0032811D009688907002962
:101960002DDA216821F0030101432160FFF704FF14
:10197000814641F2883A0EE009688903EFE7096879
:101980008901ECE7FFF7F8FEA0EB0901514502D908
:101990000320BDE8F0872068696800F00C00B0EB18
:1019A000810FEFD1D8F80010404601F00701B14295
:1019B00007D90770006800F00700B04201D001208D
:1019C000E7E72878400705D52068E96820F4E0506B
:1019D000084320602878000706D52068296920F48C
:1019E000604040EAC100206000F038F82168084AF1
:1019F000C1F30311515CC8400649086006480068FD
:101A0000FFF7E2FE0020C4E7003C02400838024035
:101A10008E3F00082C0000202400002004480549C7
:101A200000680968044AC1F38221515CC8407047CC
:101A30002C000020083802409E3F00080448054959
:101A400000680968044AC1F34231515CC8407047DC
:101A50002C000020083802409E3F0008154810B5B1
:101A6000006810F00C02144813D01449042A0FD057
:101A7000082A0ED10F4C241F2268236802F03F026F
:101A80005B0207D52068C0F38810A0FB010106E0C7
:101A9000084610BD2168C1F38811A1FB0001002395
:101AA000FEF7F0FB2168C1F30141491C4900B0FB7E
:101AB000F1F010BD083802400024F40040787D01A8
:101AC0002DE9F84F04006ED02078DFF84C93C00762
:101AD000A9F104054AD009F104000168C1F38101AC
:101AE000012908D00068C0F3810002280AD1D9F882
:101AF0000000400206D52868800337D560680028BA
:101B0000E1D033E06068B0F5803F10D0B0F5A02F91
:101B1000286810D020F480302860286820F48020C5
:101B200028606068A8B1FFF727FE06460DE0286828
:101B300040F48030F4E740F480202860F7E700BFED
:101B4000FFF71AFE801B642873D828688003F7D536
:101B50000CE0FFF711FE064605E000BFFFF70CFEA4
:101B6000801B6428F0D828688003F7D42078DFF839
:101B7000AC8280074FF0000A3ED5A748001D0168DF
:101B800011F00C0F08D00068C0F3810002280BD1BF
:101B9000D9F80000400207D42868800716D5E0680D
:101BA000012800D112E033E1E068B8B10120C8F8A3
:101BB0000000FFF7E1FD064605E000BFFFF7DCFD92
:101BC000801B0228C0D828688007F7D528682169BB
:101BD00020F0F80040EAC10028600DE0C8F800A03D
:101BE000FFF7CAFD064604E0FFF7C6FD801B02288A
:101BF0001FD828688007F7D42078000722D5864FA1
:101C000087486169703771B101210160FFF7B4FD48
:101C1000064604E0FFF7B0FD801B022809D83868AB
:101C20008007F7D50EE0C0F800A0FFF7A5FD064637
:101C300005E082E0FFF7A0FD801B02287DD8386810
:101C40008007F7D42078400768D5DFF8CCB10027AB
:101C50000BF13C0BDBF80000C0000BD4DBF80010EC
:101C600041F08051CBF80010DBF80000012700F0B4
:101C7000805000906B4E3068C00510D4306840F43E
:101C800080703060FFF778FD009005E0FFF774FD8D
:101C90000099401A022850D83068C005F6D55E4E2B
:101CA000A0686C3601280FD00528306810D020F0CD
:101CB00001003060306820F004003060A068B8B1E6
:101CC000FFF75AFD00900FE0306840F00100F4E7A4
:101CD00040F004003060F7E7FFF74EFD0099411A2D
:101CE00041F28830814266D830688007F4D50EE032
:101CF000FFF742FD009007E0FFF73EFD0099411A13
:101D000041F28830814256D830688007F4D42FB130
:101D1000DBF8001021F08051CBF80010A069C8B3A7
:101D20003D49091D0968C1F3810102294AD00228F1
:101D3000504607D0C8F8600000E03CE0FFF71CFD0B
:101D400004463BE04746C8F86000FFF715FD06462D
:101D500005E000BFFFF710FD801B02282BD8286884
:101D60008001F7D4D4E907010843A16A2E4A490843
:101D700002EB0141626A41EA8211084394F82C1097
:101D800040EA0161C9F8001001203866FFF7F4FC51
:101D9000044606E03EE000BFFFF7EEFC001B022811
:101DA00009D828688001F7D534E000BFFFF7E4FCCC
:101DB000001B022802D90320BDE8F88F28688001A3
:101DC000F4D427E00128F7D0D9F80000E26900F444
:101DD000800191421CD1226A00F03F01914217D14B
:101DE00047F6C071626A0140B1EB821F10D1A26A4E
:101DF0004FF0FF3300F4403103EB5202B1EB024FDE
:101E000006D194F82C1000F07060B0EB016F01D097
:101E10000120D1E70020CFE704380240000047420C
:101E2000800E4742007000400000FFFF10B5401ECA
:101E3000B0F1807F01D3012010BD4FF0E02460613C
:101E40000F21601701F06FFA0020A06107202061C8
:101E5000002010BD7047704770B590F83C20012AF3
:101E600032D0012480F83C40022280F83D200368F3
:101E70005A689D6822F070060A6832435A60134B14
:101E800002689A4214D0B2F1804F11D0104B9A429E
:101E90000ED0104B9A420BD00F4B9A4208D00F4BEA
:101EA0009A4205D00E4B9A4202D00E4B9A4204D170
:101EB000496825F080031943916080F83D40002176
:101EC00080F83C10084670BD022070BD0000014043
:101ED0000004004000080040000C004000040140E5
:101EE000004001400018004010B5040003D094F8F1
:101EF0003D0010B107E0012010BD002084F83C0037
:101F0000204600F01FF8022084F83D00211D2068C3
:101F100001F010F8012084F8460084F83E0084F8AF
:101F20003F0084F8400084F8410084F8420084F8BF
:101F3000430084F8440084F8450084F83D00002004
:101F400010BD000008B50068B0F1804F12D10A48FA
:101F5000016841F0010101600068002200F0010009
:101F600000900F211C20FFF78DFCBDE808401C20CD
:101F7000FFF77BBC08BD00004038024090F83D10E0
:101F8000012901D001207047022180F83D1001682D
:101F9000CA6842F00102CA6000681149884214D040
:101FA000B0F1804F11D00F4988420ED00E498842BF
:101FB0000BD00E49884208D00D49884205D00D4902
:101FC000884202D00C49884204D1816801F007019F
:101FD000062903D0016841F001010160002070472B
:101FE000000001400004004000080040000C0040D8
:101FF0000004014000400140001800400168CA6828
:1020000022F00102CA6001680A6A41F211131A4201
:1020100007D10A6A9B101A4203D10A6822F0010212
:102020000A60012180F83D100020704770B5044619
:1020300090F83C000025012817D0012684F83C6068
:10204000022084F83D002068826822F0770222F4A2
:102050007F4282600868502838D00DDC20284FD09D
:1020600005DC90B3102811D14AE0022070BD302861
:1020700046D040280AD13BE060282FD070280DD0F0
:10208000B0F5805F03D0B0F5005F12D0012584F871
:102090003D60002084F83C00284670BDCB68D1E943
:1020A0000121206800F0B2FF2068816841F07701CB
:1020B00009E0CB68D1E90121206800F0A7FF206882
:1020C000816841F480418160E1E719E0CA684968AC
:1020D000206800F0ADFF5021206806E0CA6849681A
:1020E000206800F0B6FF6021206800F099FFCEE77D
:1020F000CA684968206800F09BFF40212068F4E727
:10210000226801461046F0E770472DE9F041044689
:102110000068C66805694FF00007A90713D5B10725
:1021200011D5F91E016101202077206880698007A0
:10213000204602D0FFF7E8FF04E000F07EF82046DA
:1021400000F07CF82777680716D5700714D521684A
:102150006FF004000861022020772068806910F485
:10216000407F204602D0FFF7CFFF04E000F065F883
:10217000204600F063F82777280715D5300713D5D8
:1021800021686FF008000861042020772068C0698A
:102190008007204602D0FFF7B7FF04E000F04DF8BB
:1021A000204600F04BF82777E80616D5F00614D540
:1021B00021686FF010000861082020772068C0694E
:1021C00010F4407F204602D0FFF79EFF04E000F0AD
:1021D00034F8204600F032F82777E80708D0F007F7
:1021E00006D021686FF001000861204600F028F851
:1021F000280608D5300606D521686FF080000861F2
:102200002046FFF727FE680608D5700606D5216828
:102210006FF040000861204600F060F8A8060AD57B
:10222000B00608D521686FF0200008612046BDE89F
:10223000F041FFF710BEBDE8F08170477047000025
:1022400070B505461720FFF7FFFA21490120214C00
:102250008D4201D1A2687AB18D4202D1A268012AD1
:102260000CD08D4202D1A268022A0ED08D422AD112
:10227000A168032915D026E0207024E061680029B8
:102280001EDD2070491E61601DE06168002903DCCD
:102290000F48FFF7B3FE00E020706068401E6060EA
:1022A00011E02070E068012805D002280BD10A480F
:1022B0000078012807D16068401E6060002802DCB9
:1022C0000348FFF79BFEBDE870401720FFF7CDBA2B
:1022D0000C020020000000201C0000207047704706
:1022E00070470000F8B5016804460868CA684B6981
:1022F00010F00F0F4FF0000559D003F0010602F463
:102300009077374365D0C10705D0D10503D5616CFF
:1023100041F001016164410705D5D90703D0616C23
:1023200041F002016164810705D5D90703D0616CD2
:1023300041F004016164010707D502F02001314337
:1023400003D0616C41F008016164616C00293AD0EE
:10235000800604D5900602D5204600F0BBFE20681A
:102360004069616CC0F38010090700D460B3204657
:1023700000F089FE20684069400621D520681430AD
:1023800050E8001F21F0400140E80012002AF5D17A
:10239000E06BA8B16E490165E06BFFF770F80028AB
:1023A00011D0E06B016D01B0BDE8F0400847830635
:1023B0000FD593060DD52046BDE8F84000F08ABE43
:1023C0002046FFF78DFFF8BD2046FFF789FF6564C3
:1023D000F8BD266B2023012E7DD1C6067BD5D606FF
:1023E00079D508684868009048694FF002064006B1
:1023F00041D5E16B086840680004000CE8D0A28D6C
:102400008242E5D9E085C869B0F5807F2DD020688B
:102410000C3050E8001F21F4807140E80012002ABF
:10242000F5D12068143050E8001F21F0010140E888
:102430000012002AF5D12068143050E8001F21F066
:10244000400140E80012002AF5D184F842302563AB
:1024500020680C3050E8001F21F0100140E8001205
:10246000002AF5D1E06BFEF7C1FF6663A08DE18D18
:10247000401A81B22AE0A08DE18D401A81B2E08D30
:102480000028A5D00029A3D022680C3252E8000F02
:1024900020F4907042E80007002FF5D12068143036
:1024A00050E8002F22F0010240E80027002FF5D16C
:1024B00084F84230256320680C3050E8002F22F069
:1024C000100240E80023002BF5D166632046FFF799
:1024D00006FFF8BDFFE705062BD5150629D594F8AC
:1024E00041002128F5D1A068B0F5805F01D12069B5
:1024F000B0B1206A411C2162216800784860E08CFC
:10250000401E0004000CE084E3D12068C16821F083
:102510008001C1602068C16841F04001C160D8E716
:10252000206A0088C0F308004860206A801C20628E
:10253000E5E74006CDD55006CBD5CA68204622F047
:102540004002CA6084F8413000F0EDF9C1E70000B4
:102550007730000870B5040004D094F841000025DD
:1025600010B106E0012070BD84F84050204600F014
:1025700023F8242084F841002068C16821F4005128
:10258000C160204600F008FE2068016921F49041F6
:1025900001612068416921F02A0141612068C16818
:1025A00041F40051C1606564202084F8410084F842
:1025B00042006563002070BD2DE9F04786B00446F7
:1025C00014216846FEF7C8F87849DFF8DCC12368B3
:1025D0000024764A10390225032608277448DFF8BC
:1025E000D4A1634526D1136843F400231360126815
:1025F00002F4002205920A6842F001020A600A68A9
:1026000002F0010205920A6842F004020A600968B9
:1026100002AB01F0040105910121CDE9001583E829
:10262000D0006946FEF7AAFFA802CDE90005694679
:1026300050462BE0DFF880C1634530D1106840F48C
:1026400080101060106800F480100590086840F059
:1026500004000860086800F004000590086840F075
:1026600008000860086802AB00F0080005904FF40D
:102670008050CDE9000583E8D00069465046FEF75A
:102680007DFF0420CDE900054C48694602AB83E894
:10269000D00000BFFEF772FF06B0BDE8F087DFF89C
:1026A0002081DFF808914FF0070C09F10409434538
:1026B0001BD1D9F8003043F01003C9F80030D9F825
:1026C000002002F0100205920A6842F001020A603E
:1026D000096802AA01F0010105914FF4C061CDE93A
:1026E000001582E850106946D4E7DFF8D8804345EA
:1026F00014D1136843F400331360126802F40032FB
:1027000005920A6842F001020A60096801F00101BD
:1027100005910C21CDE90015694618E02A4883424D
:1027200019D1106840F480201060106800F48020F7
:102730000590086840F0020008600868694600F0EB
:10274000020005904FF44060CDE900051F4802AB40
:1027500083E850109EE71E4883429DD1D9F800209F
:1027600042F02002C9F80020D9F8000000F0200053
:102770000590086840F004000860086802AA00F0AC
:1027800004000590C020CDE9000582E8D00069462C
:102790005046FEF7F3FE002211464720FFF772F87D
:1027A0004720FFF762F877E7004C004040380240CE
:1027B000000002400008024000500040000C0240AF
:1027C0000010014000440040004800400004024066
:1027D000001401402DE9F84F044690F842009A4653
:1027E00016460D46202802D00220BDE8F88FB5B16C
:1027F000AEB100206064222184F842102063FEF70D
:10280000BBFFA6858146E685A0684FF48058202747
:10281000404501D1206920B12E46002529E0012044
:10282000E3E7002625E04B46002220212046CDF894
:1028300000A000F037FD18B184F842700320D4E7FF
:1028400026B1A06840451AD038B108E02068406839
:10285000C0F3080025F8020B08E0206978B1206871
:10286000406800F07F0000BF06F8010BE08D401EBD
:10287000E085E08D0028D6D184F84270B5E7206865
:102880004068F1E770472DE9F843044690F84100AD
:10289000984616460D46202802D00220BDE8F8834F
:1028A00085B17EB100206064212084F84100FEF7EC
:1028B00063FFA6848146E684A0682027B0F5805F88
:1028C00002D003E00120E9E7206910B12E4600257F
:1028D0000EE000260CE08021204600F0E3FCA8B9C1
:1028E000C6B116F8010B21684860E08C401EE084F8
:1028F000E08C4B464FF00002CDF800800028EAD172
:102900004FF04001204600F0CDFC40B184F841700A
:102910000320C3E735F8020BC0F30800E3E784F8AF
:1029200041700020BAE77047FEE700001CB5EF21B8
:102930008DF8001001218DF8011014498308154805
:1029400049680A0E8DF802200A0C8DF803200A0A45
:102950008DF804208DF8051007218DF80610002150
:102960008DF807104FF4C8720949FFF733FF0722AB
:1029700007496846FDF760FE28B969460448FDF737
:1029800049FE002800D100201CBD000010000020DE
:10299000340000202C0300207FB50024154800944B
:1029A000019402941249039401604FF40031C0E98C
:1029B00001140461047680F820400F49C0E90A142C
:1029C0000125C561C46080F830404561FEF7B3FB66
:1029D00008B1FEF704FB0095CDE9015469460548AE
:1029E000FEF700FB002801D0FEF7F9FA7FBD0000DA
:1029F00000200140C40100200100000FF0B587B0A5
:102A000014216846FDF7A8FE2C480025016841F016
:102A100020010160016801F020010591016841F089
:102A200004010160016801F004010591016841F0B1
:102A300001010160016801F001010591016841F0A7
:102A400002010160016801F002010591016841F095
:102A50000801016000681A4E00F00800059000228D
:102A600001213046FEF782FE402000904FF4041012
:102A70000124CDE90104134F69463846FEF77EFD77
:102A8000802000904FF48810019002200290694647
:102A90003846FEF773FD0094694630460194CDE94F
:102AA0000245FEF76BFD00220E211720FEF7EAFE1D
:102AB0001720FEF7DAFE07B0F0BD00003038024004
:102AC000000802400014024010B586B000241948E6
:102AD000009401940294039404944FF0804105946F
:102AE00001604AF2104141601021816041F2707131
:102AF000C1604FF40071016180218161FFF7F4F939
:102B000008B1FEF76CFA4FF480500090694609480E
:102B1000FFF78CFA08B1FEF762FA049404A905489D
:102B20000594FFF799F9002801D0FEF758FA06B08E
:102B300010BD00000C0200200C4810B50A490160CD
:102B40004FF4E1314160002181600C22C160C0E995
:102B500004128161C161FFF7FDFC002803D0BDE8CC
:102B60001040FEF73CBA10BD004C0040540200205B
:102B70000C4810B50A4901604FF4E1314160002171
:102B800081600C22C160C0E904128161C161FFF75C
:102B9000E1FC002803D0BDE81040FEF720BA10BDCC
:102BA000005000409C0200200C4810B50A4901600A
:102BB0004FF4E1314160002181600C22C160C0E925
:102BC00004128161C161FFF7C5FC002803D0BDE894
:102BD0001040FEF704BA10BD00100140E4020020CE
:102BE0000C4810B50A4901604FF461414160002171
:102BF00081600C22C160C0E904128161C161FFF7EC
:102C0000A9FC002803D0BDE81040FEF7E8B910BDCC
:102C1000004400402C0300200C4810B50A49016014
:102C20004FF416514160002181600C22C160C0E95F
:102C300004128161C161FFF78DFC002803D0BDE85B
:102C40001040FEF7CCB910BD0048004074030020CE
:102C50000C4810B50A4901604FF4E1314160002190
:102C600081600C22C160C0E904128161C161FFF77B
:102C700071FC002803D0BDE81040FEF7B0B910BDCC
:102C800000140140BC03002003490A685206FCD529
:102C90000149091D0860704700440040FEE7FEE757
:102CA00010B5044600F0D8F800F0B4F80120FFF7A2
:102CB000EBFF042000F0D9F80220FFF7E5FF2046E3
:102CC000FFF7E2FFE01D00F0BDF84FF4FA60FFF7F8
:102CD0002DFE08B1407A10BDFF2010BD10B500F0E8
:102CE000BBF800F097F80120FFF7CEFF032000F0BB
:102CF000BCF80120FFF7C8FF052000F0A3F84FF44F
:102D0000FA60FFF713FE08B1407A10BDFF2010BD36
:102D10002DE9F0411E4614460D46074600F09CF88A
:102D200000F078F80120FFF7AFFF082000F09DF8D1
:102D30001B20FFF7A9FF3846FFF7A6FF280AFFF779
:102D4000A3FFE8B2FFF7A0FF200AFFF79DFFE0B264
:102D5000FFF79AFF07EB1520E9B2084400EB1420B7
:102D6000E1B20844243000F06DF84FF4FA60FFF748
:102D7000DDFD58B1C27A837A417A02EB03223280B8
:102D8000427B007B02EB0020708000E0FF210846C0
:102D9000BDE8F08170477047704700002DE9F041B1
:102DA000074600248EB0884626460846FDF770FC8C
:102DB000C5B2FD208DF8000000208DF80100E81C50
:102DC0008DF8020001208DF8030000EB07108DF84C
:102DD00004006F46B85D761C4440052EFAD30020EF
:102DE00004E000BF18F800104C40401CA842F9D382
:102DF0002A464146781DFDF76AFC78196423447120
:102E0000AA1D69460248FFF73EFD0EB0BDE8F081FD
:102E10007403002010B50A4C6068000EFFF734FF01
:102E20006068C0F30740FFF72FFFA088C0F30720BA
:102E3000FFF72AFF2079BDE81040FFF725BF00000B
:102E40001000002010B50446000AFFF71DFFE0B295
:102E5000BDE81040FFF718BF10B5EF20FFF714FFD3
:102E6000BDE810400120FFF70FBF10B50446C0F3C6
:102E70000720FFF709FFE0B2BDE81040FFF704BFED
:102E8000FEF780BC30B593B030216846FDF764FC96
:102E900014210CA8FDF760FC1D480025016841F0D5
:102EA00080510160006800F080501190194801685D
:102EB00041F4804101600068022400F480401190D8
:102EC0000120039010200490009406940820CDE97E
:102ED0000750A820CDE9090404200B906846FEF7AE
:102EE000EFFD08B172B6FEE70CA90F2081E83100B2
:102EF0004FF4A0500F904FF48050109005210CA873
:102F0000FEF7F2FC002801D072B6FEE713B030BD28
:102F100040380240007000400248016841F47001EE
:102F20000160704788ED00E00148FFF7EEB800004F
:102F30000C020020F0B50268294C2A4D2A4E2B4F76
:102F40002B4B4FF0804CA04209D0604507D0A842DF
:102F500005D0B04203D0B84201D0984204D122F04B
:102F6000700E4A6842EA0E02A0421BD0604519D09A
:102F7000A84217D0B04215D0B84213D0984211D011
:102F80001C4DA8420ED01C4DA8420BD01B4DA84290
:102F900008D01B4DA84205D01A4DA84202D01A4DA8
:102FA000A84203D122F44075CA682A434D6922F031
:102FB00080022A4302608A68C2620A688262A04272
:102FC00001D0984201D10969016301214161016980
:102FD000C90703D0016921F001010161F0BD0000C2
:102FE000000001400004004000080040000C0040C8
:102FF00000040140004001400044014000480140FD
:1030000000180040001C00400020004010B58468FB
:1030100042EA032224F47F440A432243826010BD23
:10302000826822F070020A4342F007018160704713
:1030300010B5036A046A24F001040462846924F070
:10304000F00444EA021423F00A020A438461026293
:1030500010BD10B5036A046A24F010040462846988
:1030600023F0A00324F4704444EA023243EA01113D
:103070008261016210BD10B5806B0021C185C184E1
:10308000FFF72EF910BD01680C3151E8002F22F432
:10309000907241E80023002BF5D10168143151E80A
:1030A000002F22F0010241E80023002BF5D1016B33
:1030B000012909D101680C3151E8002F22F01002DA
:1030C00041E80023002BF5D1202180F84210002197
:1030D0000163704708B590F84210222901D0022000
:1030E00008BD82684FF480539A4201D1016921B131
:1030F000816A9A421BD04AB10AE00268816A52682A
:10310000C2F308020A80816A891C08E0026972B170
:103110000268526802F07F020A70816A491C81626B
:10312000C18D491E0904090CC18503D01BE002684A
:103130005268F1E70168CA6822F02002CA6001689B
:10314000CA6822F48072CA6001684A6922F00102EA
:103150004A61202180F8421000214163026B012A5C
:1031600003D0FFF78FFB002008BD016301680C311D
:1031700051E8002F22F0100241E80023002BF5D186
:1031800001680A68D20602D50A6849680091818DF3
:10319000FFF7A5F8E7E7000070B50446006801698D
:1031A000E26821F44051114301612169A068E2699C
:1031B00008436169114308432168CA6849F20C63F6
:1031C0009A430243CA6020684169A26921F44071B0
:1031D0001143416131492068884202D03049884218
:1031E00002D1FEF72BFC01E0FEF718FCE269002398
:1031F000192164253226B2F5004F626828D0A0FB61
:103200000101930F9200FDF73DF80146B0FBF5F088
:103210006FF01802504301EB800006EB0010B0FB8A
:10322000F5F000F0F002B1FBF5F002EB0012B1FB9B
:10323000F5F06FF01803584301EB800006EB001027
:10324000B0FBF5F000F00F0021681044886070BDFD
:10325000A0FB010192185B41FDF714F80146B0FB99
:10326000F5F00201B1FBF5F06FF01803584301EBE4
:10327000800006EBC000B0FBF5F000F0F80002EBB8
:103280004002B1FBF5F0584301EB800006EBC000B3
:10329000B0FBF5F000F00700D6E700000010014099
:1032A000001401402DE9F843984617460D460446A0
:1032B000089E24E0701C22D0FEF75EFAA0EB080006
:1032C000B0421AD8CEB12068C168490717D5802D01
:1032D00015D0402D13D00168C94309070FD40168E8
:1032E0000025406800902046FFF7CDFE082060646E
:1032F00084F840500120BDE8F8830320FBE72068F4
:10330000006835EA000004D00020B842D2D0002086
:10331000F1E70120F9E700000148FEF7E3BF0000F4
:10332000BC030020FEE70907090E002804DB00F1BA
:10333000E02080F80014704700F00F0000F1E0205A
:1033400080F8141D704700009AB0FEF723FAFFF7CB
:1033500099FDFFF753FBFFF71FFBFFF7B5FBFFF7E7
:1033600023FCFFF73DFCFFF757FCFFF701FCFFF7DD
:10337000E3FBFFF76DFCA44D4FF0000AA34885F86E
:1033800000A04FF0010B85F801B00721DFF8809213
:10339000A04E42F20F780160ADF860800024402119
:1033A0006846FDF7D9F9D9F800000068800625D5F0
:1033B0000A23402269469648FFF70CFA684600F057
:1033C0007DFA95A16846FDF71FF9074614E0641CD5
:1033D000E4B291A10020FDF717F90746022C0BD1AA
:1033E0008EA105E018AA8EA1FDF74AF88DA1002054
:1033F000FDF70AF90028F5D1002FE8D18A4C28788A
:103400002168084315D1BDF86000B0F5967F874864
:1034100004D8FEF7B3FDC4F800B034E0FEF7AEFD0B
:103420003078012805D182A10020FFF7B7FC86F88B
:1034300000A0206898B930780128ADD128780128FB
:10344000AAD168780028A7D186F800A07EA1FFF74E
:10345000A5FC6423042282A18248FFF714FA2068A5
:10346000012810D0022826D0032895D130780128D1
:1034700092D186F800A07C48006801287ED00228FE
:103480007DD07AA113E03078012885D15F480068AB
:1034900004284FF0170005DBFEF7D6F986F800A0E8
:1034A0007CA104E0FEF7E1F986F800A080A10020ED
:1034B000FFF774FC70E7307848B183480078012842
:1034C00005D186F800A081A10020FFF767FC89489C
:1034D00080210160402101601720FEF7B5F95348B3
:1034E000FEF78CFD78480078002874D08248007878
:1034F000012878D103200027206009247F48FDF7A8
:10350000CBFE64217D48FDF771FE7C48FDF710FE7F
:10351000874200D287B2641EE4B2EFD27748FDF74B
:1035200041FF384600F0A7FB9FED751B53EC112BB4
:1035300000F01CFA00F0E8F900EE900A9FED720A24
:1035400020EE800A10EE100A00F0A6FC9FED6F1B23
:1035500053EC112B00F0A2FB00F060FBC4B2334827
:10356000FEF74CFD314942F6E0600968C8622F4819
:10357000FEF704FDE878844209D201E03AE03BE03E
:103580002249032008603849C1F800B00FE0A8784C
:10359000844206D21D49032008603348022101609D
:1035A00005E01A49C1F800A02F49C1F800A01E2C5F
:1035B00000D80024202110A8FDF7CEF8224655A1FE
:1035C00010A8FCF7D7FEC2B2642310A92548FFF764
:1035D0005AF908E0FFE786F800A056A10020C4F8D9
:1035E00000B0FFF7DBFB1720FEF73FF90F48FEF7AF
:1035F000C5FCD1E656A15AE72879012801D05EA181
:1036000055E766A153E700001800002004000020E1
:10361000BC030020000000203A0000002000000051
:10362000256400006D000000080000200C0200204E
:103630005B76375D5B6D315D5B74355DC7EBBFBF3E
:10364000BDFCC9E8B1B800005B76375D5B6D315DEC
:103650005B74355DB3B5C1BED2D1CBF8B6A800005E
:1036600031313100E40200200C0000205B76375D30
:103670005B6D315D5B74355DBEC6BEABB2E2CAD474
:10368000CEB4CDA8B9FDA3ACC7EBB9D8B1D5B3B50D
:10369000C1BE00005B76375D5B6D315D5B74355D8F
:1036A000C7EBBDF8D0D0C3E6C8DDCAB6B1F00000A4
:1036B0005B76375D5B6D315D5B74355DC7EBD1E982
:1036C000D6A4D6B8CEC60000010000205B76375DD8
:1036D0005B6D315D5B74355DD1E9D6A4B3C9B9A624
:1036E000A3ACC7EBBDF8D0D0BEC6BEABD1E9D6A463
:1036F00000000000143C014002000020C401002032
:103700000000000000FEAF4000002544E17A14AE46
:1037100047E1CA3FD1AAD2BAD6D0BEC6BEABC5A871
:10372000B6C8CEAA203A202564206D672F313030EC
:103730006D6C20005B76375D5B6D315D5B74355D74
:10374000D6B8CEC6D1E9D6A4CAA7B0DC0000000026
:103750005B76375D5B6D315D5B74355DBEC6BEAB60
:10376000B2E2CAD4CDA8B9FDA3ACC7EBC6F4B6AFDC
:10377000B3B5C1BE000000005B76375D5B6D315DA7
:103780005B74355DD2FBBEC6BCDDCABBA3ACC7EB68
:10379000B9D8B1D5B3B5C1BE000000005B76375DC6
:1037A0005B6D315D5B74355DD2FBBEC6BCDDCABBF3
:1037B000A3ACC7EBC6F4B6AFB3B5C1BE0000000002
:1037C00000B587B0FFF78AFA002823D164231222BC
:1037D0001CA12148FFF757F80120FFF761FA98B9BB
:1037E000642312221DA11C48FFF74DF805AB63228C
:1037F00000210120FFF78CFA4FF0640368B110221A
:103800001BA11548FFF73FF8642310221DA11248A1
:10381000FFF739F8002007B000BD12221DA10E48A5
:10382000FFF731F8BDF81630BDF814201EA1684628
:10383000FCF7A0FD6423102269460748FFF723F830
:103840000120E8E7E88EB7E58F96E59BBEE5838F1C
:10385000E68890E58A9F0000E4020020E7949FE656
:103860008890E789B9E5BE81E68890E58A9F0000E7
:10387000E68C87E7BAB9E9AA8CE8AF81E5A4B1E89C
:10388000B4A50000E8AFB7E68C89E6898BE68C87A3
:1038900000000000E68C87E7BAB9E9AA8CE8AF819E
:1038A000E68890E58A9F00002049443A256420E597
:1038B000BE97E588863A256420000000014606E0B0
:1038C0000A2A03D00D2A01D000F8012B491C0A78DE
:1038D000002AF5D1002101707047000010B50029C1
:1038E0000AD00878002807D005487844FDF796FAF2
:1038F000002801D0002010BD0248784410BD00000F
:10390000DE060000D606000021F00042A2F160525F
:10391000B2F5801F01F0004328BFD2F17F6C0BD9B4
:103920005FEA001C43EAC20242EB507018BF7047C6
:1039300028BF20F001007047B2F5801FBCBF1846B9
:1039400070474FEA410C1CF5001F02D2084600F0F8
:1039500019BB70B500F04CFA00000089FFF7F6BF04
:103960004FF00040A0F58000704700002DE9C041F5
:1039700030B4DFF8A0C23CEA111418BF3CEA1314BB
:1039800000F0EC8081EA03051CEA111444EAD574C6
:1039900018BF1CEA131500F0C780A4EB05044FF014
:1039A000004545EAC12145EAC32341EA505143EAB3
:1039B000525304F17F74994204F500344FEAC02059
:1039C0004FEAC22208BF904200F09C804FEA136584
:1039D0000FF24016765D4FEA134506FB05F7C7F177
:1039E000807706FB07F74FEAD737A7FB03687642D5
:1039F000C8F58038A7FB06CE38BFA8F1010807FB41
:103A000008E64FF0000EA6FB028CE6FB03CEDCF1CD
:103A1000000CCEF1004E38BFAEF1010EA6FB0C58E3
:103A20004FF000074FF00005E6FB0E87A1FB08C62C
:103A3000A0FB07CE16EB0E0645F10005E1FB07657E
:103A400015F1E04E7EBFA4F580345FEA46066D4175
:103A500016F1800745F100054FEA17274FEA066681
:103A600047EA0567A6F1DE46B6F1805F4FEA152505
:103A70001FD9384624F0010C05EBC471BCF1FE6F70
:103A800001EB0C1102D8F0BCBDE8008124425CBF00
:103A900001F5801E9EEAC47F02D4F0BCBDE800811F
:103AA000244238D4F0BCA1F1C041BDE8004100F08F
:103AB000EDB94FEAD22242EA43524FEAD323A7FBA1
:103AC00002864FEAD02040EA415007FB03661EEA17
:103AD0000E0F4FEAD12105FB026658BFA6EB005638
:103AE000B6EB00564FEA520E4EEAC37E18EB0E0EAE
:103AF00056EB530EBDD518EB02085E417F1C55F105
:103B00000005B6E74FF480154FF000074FF00006B0
:103B10004FF00008ADE7F0BC4FF0000001F1C041EC
:103B200001F00041BDE8008111EA0C1F0CEA1315F9
:103B300000D00CE013EA0C1F00F025804FF00000CD
:103B4000F0BC81EA030101F00041BDE80081F0BC56
:103B5000BDE8004181EA030100F098B9F0BCBDE87E
:103B6000004170B500F044F9097EFC3E00F007B852
:103B700081EA03014FF0000001F00041704781EA43
:103B8000030100F083B9F0BCBDE800414FF0000034
:103B900021497047FFFDFBF9F7F5F4F2F0EEEDEB8C
:103BA000E9E8E6E4E3E1E0DEDDDBDAD8D7D5D4D33B
:103BB000D1D0CFCDCCCBCAC8C7C6C5C4C2C1C0BF87
:103BC000BEBDBCBBBAB9B8B7B6B5B4B3B2B1B0AF8D
:103BD000AEADACABAAA9A8A8A7A6A5A4A3A3A2A171
:103BE000A09F9F9E9D9C9C9B9A999998979796952C
:103BF00095949393929191908F8F8E8E8D8C8C8BC8
:103C00008B8A89898888878786858584848383824F
:103C1000828181800000FF070000F87F4FEA115386
:103C2000A3F58063D3F11E03A8BFD3F1200C08DBFA
:103C30004FF0004242EAC12252EA505232FA03F0F7
:103C4000704709420BD4102BC4BF0020704703F506
:103C5000787CBCF1FF3F05D04FF0FF3070474FF04C
:103C60000000704770B500F0C3F800BF499224808F
:103C700000207047F0E7B0FA80F310FA03F10AD0A1
:103C8000C3F11D0303F580634FEA41504FEA03522D
:103C900002EBD12170474FF000007047DFF848C1B8
:103CA00070B51CEA111E1EBF1CEA13159EEA0C0F0C
:103CB00095EA0C0F00F06F8081EA030423EA4C13AD
:103CC0004EEAD47E21EA4C1141F4801143F4801372
:103CD000AE44A1FB024CA0FB0365AEF17F7E36191A
:103CE00055EB0C05A1FB034C4CF10003A0FB021C9F
:103CF00016EB0C06654153F10003094218BF46F06C
:103D0000010613F4007F0BD14FEA03314FEA05306F
:103D1000340341EA155140EA16506FF003020AE0FD
:103D20004FEAC3214FEAC520F40241EA555140EA67
:103D300056506FF0020202EB2E4201EB025585EA6B
:103D4000CE710AD05FEA440C18BF24F0004450F151
:103D5000000041F1000120EAD47040F2FE7C62458F
:103D600000D270BDA84214BF4FF080444FF04044D1
:103D7000002E08BF0024BEF1806FA8BFA1F1C04192
:103D8000BDE8704080F282804FF0000001F1C04138
:103D900001F0004170479EEA0C0F0CEA131518BFA2
:103DA00095EA0C0F06D04FF0000081EA030E0EF0EA
:103DB000004170BD00F01CF88900013E00F007B81A
:103DC00000F009B84FEA430C5FEA5C5C08D081EA76
:103DD000030100F05BB84FEA410C5FEA5C5CF6D18E
:103DE0004FF00000014970470000FF070000F87F16
:103DF0000EF1020E2EF0030E5EF8046B364205D46F
:103E0000012A43EB030515F5001F12D8012841EBE9
:103E1000010C1CF5001F0CD80ED14FEAD17C15F512
:103E2000001F0CEB4C0C0CF1020C08BF4CEBD37CCC
:103E300004E04FF0080C01E04FEAD37C0CEB4C059A
:103E400026FA05F606F00706B6F1040C06D20EEBCC
:103E5000860CBDE870404CF0010C6047DFE80CF0C8
:103E6000090B02024FF000414FF00000A1F50021C4
:103E700070BD19461046012851EB010418BFD4F556
:103E8000001484BF002001F0004170BD0808A0F5B7
:103E900000114FEA3101704743004FEAD30C4FEA5B
:103EA0003C0C43401FBF40070CF1605113F0FE4F24
:103EB00070471CF0006F03D100200CF000417047E8
:103EC0000CF0004343EA507010B540EACC0000F01B
:103ED0000EF800BF000000924FEA0001FFF7D6BFC6
:103EE0004FF000414FF00000A1F5002170470EF1A6
:103EF000020E2EF0030E5EF8044B244204D44FEA67
:103F00004102B2F17F4F11D84FEA4003B3F17F4F26
:103F10000CD80ED14FEAD07CB2F17F4F0CEB4C0C99
:103F20000CF1020C08BF4CEBD17C04E04FF0080C04
:103F300001E04FEAD17C0CEB4C0324FA03F404F0CB
:103F40000704B4F1040C06D20EEB840CBDE810405B
:103F50004CF0010C6047DFE80CF0070802024FF05C
:103F60000040A0F5800010BD0846420018BFD2F105
:103F7000807288BF00F0004010BD4FF04070E1EE4D
:103F8000100A7047FF2141EAD050C0057047000079
:103F900000000000000001020304060708090000F9
:103FA0000000010203040000D840000800000020C7
:103FB00034000000C40100080C4100083400002057
:103FC000340A0000E0010008100100004300000076
:103FD000F8FFFFFF0040404040404040404041412A
:103FE00041414140404040404040404040404040CE
:103FF0004040404040050202020202020202020268
:104000000202020202202020202020202020200264
:1040100002020202020290909090909010101010F4
:104020001010101010101010101010101010101090
:104030000202020202028888888888880808080824
:1040400008080808080808080808080808080808F0
:104050000202020240000000000000000000000018
:104060000000000000000000000000000000000050
:104070000000000000000000000000000000000040
:104080000000000000000000000000000000000030
:104090000000000000000000000000000000000020
:1040A0000000000000000000000000000000000010
:1040B0000000000000000000000000000000000000
:1040C00000000000000000000000000000000000F0
:1040D00000000000000000000000000003000000DD
:1040E000000000000000000000000000FFFFFFFFD4
:1040F0000000643C0000000001000000100000000F
:0C410000000000000024F400000000009B
:040000050800018965
:00000001FF
