:020000040800F2
:10000000700900203102000883240008F92100084B
:1000100081240008E90B00082B2B000800000000D9
:10002000000000000000000000000000652600083D
:10003000EB0B00080000000061260008692700089B
:100040004B0200084B0200084B0200084B0200085C
:100050004B020008632600084B0200084B02000810
:100060004B0200084B0200084B0200084B0200083C
:100070004B0200084B0200084B0200084B0200082C
:100080004B0200084B0200084B0200084B0200081C
:100090004B0200084B0200084B020008ED0B000861
:1000A0004B0200084B0200084B0200084B020008FC
:1000B000112800084B0200084B0200084B02000800
:1000C0004B0200084B0200084B0200084B020008DC
:1000D0004B0200084B0200084B0200084B020008CC
:1000E0004B0200084B0200084B0200084B020008BC
:1000F0004B0200084B0200084B0200084B020008AC
:100100004B0200084B0200084B0200084B0200089B
:100110004B0200084B0200084B0200084B0200088B
:100120004B0200084B0200084B0200084B0200087B
:100130004B0200084B0200084B0200084B0200086B
:100140004B0200084B0200084B0200084B0200085B
:100150004B0200084B0200084B0200084B0200084B
:100160004B0200084B0200084B0200084B0200083B
:100170004B0200084B0200084B0200080000000080
:100180004B0200084B02000800F002F800F041F8B2
:100190000AA090E8000C82448344AAF10107DA45E2
:1001A00001D100F036F8AFF2090EBAE80F0013F0F3
:1001B000010F18BFFB1A43F001031847A4300000D9
:1001C000C4300000103A24BF78C878C1FAD852076A
:1001D00024BF30C830C144BF04680C6070470000C1
:1001E0000023002400250026103A28BF78C1FBD840
:1001F000520728BF30C148BF0B607047642900F028
:10020000F980002070471FB503F013F81FBD10B52B
:1002100010BD00F0A0FA1146FFF7F5FF02F096FCC2
:1002200000F0BEFA03B4FFF7F2FF03BC00F0C6FA19
:100230000948804709480047FEE7FEE7FEE7FEE77A
:10024000FEE7FEE7FEE7FEE7FEE7FEE704480549B6
:10025000054A064B70470000012800088901000884
:100260007003002070090020700500207005002038
:1002700053EA020C00F069802DE9F04B4FF00006C4
:10028000002B1FBFB3FA83F503FA05F424FA05F631
:100290005E4012BF1643B2FA82F502FA05F4C5F1C8
:1002A00020051EBF22FA05FC44EA0C04203556EA5C
:1002B000044C4FEA144418BF641C4FF000084FF080
:1002C0000009904271EB030C39D3002919BFB1FA30
:1002D00081F701FA07F6B0FA80F700FA07F6C7F1DE
:1002E00020071EBF20FA07FC46EA0C062037B6FBA3
:1002F000F4FCA7EB0507103F07F01F0BCBF120061E
:100300000CFA0BFB2CFA06F644BFB3460026202F4E
:10031000A4BF5E464FF0000B5BEA060C08BF4FF02F
:10032000010B19EB0B09ABFB027C48EB0608C01B69
:1003300006FB02CC0BFB03CC71EB0C01C1E70B46B7
:10034000024641464846BDE8F08B13B54FF0000029
:100350004FF00001AFF30080BDE81C407047000083
:100360000FB41CB5084B06AA7B446946009005985B
:1003700000F0A7F904460020694600F0B5F92046D0
:100380001CBC5DF814FB00007D0300002DE9F0416A
:100390000E460446002020622046E168884730B3BC
:1003A000252805D0D4E901219047206A401CF2E7B6
:1003B000E168204600278847050018D0A5F14100D4
:1003C000192802D820354FF40067324629462046C6
:1003D0002760FFF713FF40B1012804D0F61D26F077
:1003E00007060836D8E7361DD6E72846DAE7206A3A
:1003F000BDE8F0812DE9F04106460024106875291A
:10040000314616A510D0AFF30080002802DA404232
:1004100013A507E031688A0701D512A502E0490754
:1004200004D511A5012401E0AFF3008000210A22C8
:1004300006F1240709E0B0FBF2FCB0FBF2F302FB8B
:100440001C00303078541846491C0028F3D123464C
:100450002A463046BDE8F04100F0D4B80000000064
:100460002D0000002B0000002000000030B50546E4
:100470000B462A4613F8014B12F8010B08B1A042B3
:10048000F8D01CB1002802D06D1CF1E7284630BD21
:1004900040EA010310B59B070FD1042A0DD310C801
:1004A00008C9121F9C42F8D020BA19BA884201D953
:1004B000012010BD4FF0FF3010BD1AB1D30703D09B
:1004C000521C07E0002010BD10F8013B11F8014B51
:1004D0001B1B07D110F8013B11F8014B1B1B01D16D
:1004E000921EF1D1184610BD10B5431C02E010F861
:1004F000011B71B18107FAD14FF0013202C88C1A89
:100500008C4314EAC211F9D0C01A0A0603D0C01EE7
:1005100010BDC01A10BD0A0401D0801E10BD090212
:10052000FCD0401E10BD032A40F2308010F0030CB6
:1005300000F0158011F8013BBCF1020F624498BF36
:1005400011F801CB00F8013B38BF11F8013BA2F1D3
:10055000040298BF00F801CB38BF00F8013B11F04E
:10056000030300F0C680083AC0F0088051F8043B4D
:10057000083A51F804CBA0E80810F5E7121D5CBF5B
:1005800051F8043B40F8043BAFF30080D20724BF8E
:1005900011F8013B11F801CB48BF11F8012B24BF22
:1005A00000F8013B00F801CB48BF00F8012B704771
:1005B0004FF0000200B5134694469646203922BFFC
:1005C000A0E80C50A0E80C50B1F12001BFF4F7AF47
:1005D000090728BFA0E80C5048BF0CC05DF804EB29
:1005E000890028BF40F8042B08BF704748BF20F897
:1005F000022B11F0804F18BF00F8012B7047704795
:10060000704770472DE9F0470D46994692460446DB
:1006100000F124080168880604D5E06921F0100182
:10062000216000E00120A84201DD471B00E0002717
:10063000A1697A1902EB0900081AA0612078C006A6
:1006400002D42046AFF30080002608E0D4E901215F
:100650001AF806009047206A401C761C20624E451E
:10066000F4DB2078C0060AD52046AFF3008006E010
:10067000D4E9012130209047206A401C2062381EB6
:10068000A7F10107F4DC07E0D4E9012118F805001F
:100690009047206A401C2062281EA5F10105F3DC6A
:1006A0002046AFF300802078000602D50220BDE886
:1006B000F0870120FBE7000001694A1C026108780D
:1006C000704700B58FB0CDE9013100210591054992
:1006D0007944CDE9031011466846FFF757FE0FB085
:1006E00000BD0000E5FFFFFF0A6802F8010B0A6089
:1006F000704710B5203AC0F00B80B1E81850203A8E
:10070000A0E81850B1E81850A0E81850BFF4F5AFB1
:100710005FEA027C24BFB1E81850A0E8185044BF3B
:1007200018C918C0BDE810405FEA827C24BF51F8A8
:10073000043B40F8043B08BF7047D20728BF31F89C
:10074000023B48BF11F8012B28BF20F8023B48BFED
:1007500000F8012B7047754600F02CF8AE460500F6
:100760006946534620F00700854618B020B5FFF7CC
:100770006DFDBDE820404FF000064FF000074FF040
:1007800000084FF0000B21F00701AC46ACE8C009AF
:10079000ACE8C009ACE8C009ACE8C0098D467047B8
:1007A00010B50446AFF300802046BDE81040FFF7C7
:1007B00039BD00000048704710030020014918208F
:1007C000ABBEFEE72600020070470000464910B5A8
:1007D0004A6822F440324A604A6843681A434A60D1
:1007E00001684A6822F480724A6001684A680369B5
:1007F00042EA03224A6001684A6822F040724A6075
:1008000001684A6883681A434A6001688A6822F46A
:1008100000628A6001688A68C3681A438A60816AD4
:100820006FF07062D14201688A6822F070628A605B
:1008300001688A680CD0836A1A438A6001688A68F2
:1008400022F040528A6001688A68C36A1A4301E054
:1008500022F040528A6001688A6822F002028A60AF
:1008600001688A68037E42EA43028A6090F8201099
:10087000002901684A680FD042F400624A600168AA
:100880004A6822F460424A6001684A68174C436A29
:1008900004EB43331A4301E022F400624A6001682A
:1008A000CA6A22F47002CA620168CA6A838B104C59
:1008B00004EB03531A43CA6201688A6822F4007287
:1008C0008A6001688A6890F8303042EA43228A6080
:1008D00001688A6822F480628A6001688A684069D7
:1008E00042EA8020886010BD0023014000E0FFFF45
:1008F0000000F0FF2DE9F84F0027ADF800703D46ED
:100900003E464FF4FA784FF4C879052D15D2DFE84A
:1009100005F00323456A8600641CE4B264231422B4
:100920005FA1654801F018FC01F0CAFD30B16423F5
:10093000142262A1604801F00FFCA4E0012001F044
:10094000A1FD002827D16423142262A15A4801F096
:1009500003FC002401251AE0641CE4B26423142281
:1009600062A1554801F0F8FB40F2DC5000F046FC73
:1009700001F0A6FD78B9022001F084FD58B9642386
:10098000142254A14C4801F0E7FB002402254846FC
:1009900000F034FCB9E701F0D9FE74E064231422BE
:1009A00058A1454801F0D8FB01F0A4FD05004FF027
:1009B00064034FF014020FD058A13F4801F0CCFB64
:1009C000284601F0C3FE00242546404600F016FCF0
:1009D000484600F013FC9FE756A1374801F0BCFBE6
:1009E0000325404610E06423182258A1324801F044
:1009F000B3FB404600F002FC01F096FD38B1002543
:100A000001F0A4FE4FF47A7000F0F8FB3BE06423A1
:100A10001A2254A1284801F09FFB0425F2E76846FA
:100A200001F0C6FDE8B16423142255A1224801F06B
:100A300093FB64231A2258A11F4801F08DFB314615
:100A4000022001F08BFD5FEA000A4FF064034FF0D3
:100A500014021FD04AA1184801F07EFB0025504621
:100A600099E7BDF80000B0F5967F01D00646E6E7AD
:100A70006423142250A1104801F06EFB5349012059
:100A80000870ADF80070484600F0B8FB0A2C81D120
:100A9000BDE8F88F4EA1084801F05EFBF8E70000C2
:100AA00020202020E8AFB7E68C89E6898BE68C878A
:100AB00020202020000000003802002020E88EB70F
:100AC000E58F96E59BBEE5838FE5A4B1E8B4A5204C
:100AD0000000000020202020E68C87E7BAB9E6ADB0
:100AE000A3E5B8B820202020000000002020E8AFB7
:100AF000B7E5868DE68C89E4B880E6ACA12020209D
:100B0000000000002020E5AFB9E6AF94E4B8A4E609
:100B1000ACA1E68C87E7BAB9202000002020202075
:100B2000E5AFB9E6AF94E5A4B1E8B4A52020202054
:100B30000000000020202020E5AFB9E6AF94E68851
:100B400090E58A9F20202020000000002020E794CC
:100B50009FE68890E68C87E7BAB9E6A8A1E69DBF34
:100B600020200000E7949FE68890E68C87E7BAB9DA
:100B7000E6A8A1E69DBFE68890E58A9F00000000F8
:100B80002020E5BD95E585A5E68C87E7BAB9E5A403
:100B9000B1E8B4A520200000E69C89E69588E68CA3
:100BA00087E7BAB9E695B0E69FA5E8AFA2E5A4B19C
:100BB000E8B4A520200000002020E68C87E7BAB921
:100BC000E5BA93E5B7B2E6BBA12020000000002003
:100BD0002020E5BD95E585A5E68C87E7BAB9E688CE
:100BE00090E58A9F20200000FEE7704710B5402066
:100BF00000F0A0FBBDE81040802000F09BBB00008F
:100C000021283CD2DFE800F011131517191B1D1F16
:100C1000212325273B3B3B3B27293B3B3B2B3B3BB6
:100C20002D2F3133353B3B37390016A070471AA0C2
:100C300070471FA0704725A070472BA0704730A0B9
:100C4000704735A070473AA070473FA0704744A056
:100C5000704749A070474EA0704753A0704758A0F6
:100C600070475EA0704763A0704768A070476DA092
:100C7000704772A0704777A070477CA0704781A032
:100C800070470000202020202020204F4B202020D3
:100C9000202020200000000020E695B0E68DAEE583
:100CA0008C85E68EA5E694B6E99499E8AFAF20006E
:100CB000E4BCA0E6849FE599A8E4B88AE6B2A1E680
:100CC0009C89E6898BE68C8700000000E5BD95E5F0
:100CD00085A5E68C87E7BAB9E59BBEE5838FE5A4D9
:100CE000B1E8B4A50000000020E68C87E7BAB9E5BA
:100CF000A4AAE5B9B2E68896E5A4AAE6B7A12000C1
:100D000020E68C87E7BAB9E5A4AAE6B9BFE68896DB
:100D1000E5A4AAE7B38A20002020E68C87E7BAB9C9
:100D2000E59BBEE5838FE5A4AAE4B9B120200000CD
:100D300020E68C87E7BAB9E789B9E5BE81E782B9D1
:100D4000E5A4AAE5B09120002020E68C87E7BAB997
:100D5000E4B88DE58CB9E9858D20202020000000C5
:100D600020E6B2A1E69C89E6909CE7B4A2E588B0B3
:100D7000E68C87E7BAB92000202020E789B9E5BED4
:100D800081E59088E5B9B6E5A4B1E8B4A5200000F6
:100D90002020E588A0E999A4E6A8A1E69DBFE5A4E6
:100DA000B1E8B4A52020000020E6B885E7A9BAE69E
:100DB0008C87E7BAB9E5BA93E5A4B1E8B4A52000F9
:100DC000E7BC93E586B2E58CBAE58685E697A0E6B2
:100DD0009C89E69588E59BBE0000000020E8AFBB3B
:100DE000E58699464C415348E587BAE99499202015
:100DF00000000000202020E69CAAE5AE9AE4B98914
:100E0000E99499E8AFAF2020200000002020E69769
:100E1000A0E69588E5AF84E5AD98E599A8E58FB79C
:100E20002020000020E5AF84E5AD98E599A8E5868F
:100E300085E5AEB9E99499E8AFAF200020E8AEB0FF
:100E4000E4BA8BE69CACE9A1B5E7A081E99499E806
:100E5000AFAF200020202020E68C87E7BAB9E5BAA2
:100E600093E6BBA1202020200000000020202020AD
:100E7000E59CB0E59D80E99499E8AFAF2020202063
:100E80000000000020E8BF94E59B9EE7A1AEE8AE1D
:100E9000A4E7A081E69C89E8AFAF200072B6FEE728
:100EA00078B50024009490F83C20012A19D0012242
:100EB00080F83C200A6807230568092A13D9EE68E0
:100EC0000A3A02EB420293409E43EE600B788A6836
:100ED0000A3B03EB43039A400368DD682A43DA6068
:100EE00010E0022078BD2E6902EB420293409E433F
:100EF0002E610B788A6803EB43039A4003681D69EF
:100F00002A431A614A681F23072A13D205686E6BA9
:100F1000521E02EB820293409E436E630B790A8855
:100F20005B1E92B203EB83039A4003685D6B2A4316
:100F30005A6327E005680D2A12D22E6BD21F02EBEE
:100F4000820293409E432E630B790A88DB1F92B284
:100F500003EB83039A4003681D6B2A431A6311E075
:100F6000EE6A0D3A02EB820293409E43EE620B79E9
:100F70000A880D3B92B203EB83039A400368DD6A53
:100F80002A43DA62164B0568144A9D4206D10D6861
:100F9000122D03D1556845F48005556005689D42C2
:100FA00018D10B68102B01D0112B13D1536843F4C7
:100FB00000035360096810290CD10A490A4A0968DC
:100FC000B1FBF2F101EB8101490000E0491E009103
:100FD0000029FBD180F83C40002078BD002301406F
:100FE000002001401400002040420F000068C06C47
:100FF000704770B504004FF0000503D0206C002648
:1010000010B107E0012070BD204600F01DF86664B5
:1010100084F83C60206CC00610D4206C20F488500A
:1010200040F0020020642046FFF7D0FB6664206C8D
:1010300020F0020040F00100206400E0012584F867
:101040003C60284670BD000010B586B004461421EF
:101050006846FFF7ADFA1149206888421CD1104854
:101060000021026842F480720260006800F480701F
:1010700005900B481438026842F0010202600068D3
:1010800000F001000590022000900320CDE901014D
:101090006946044800F05AF906B010BD002001402E
:1010A000443802400000024018B50021009190F839
:1010B0003C20012A07D0012280F83C200268936876
:1010C000DB0702D011E0022018BD936843F0010352
:1010D0009360314A314B1268B2FBF3F202EB4202E9
:1010E00000E0521E0092002AFBD102689368DB07E1
:1010F00047D0036C40F20164A34343F4807303645C
:1011000053685B0505D5036C23F4005343F4805307
:101110000364036CDB0404D5436C23F006034364CF
:1011200000E0416480F83C101D4B6FF0220111601B
:1011300001684A681B4C22434A6059680068CA0625
:10114000194906D0884224D1816811F0405F13D03C
:101150001FE08842F8D0154A904203D1D1F8042309
:10116000D206F1D0124A904213D1D1F8041301F003
:101170001F011029E8D30CE0816841F080418160B3
:1011800007E0016C41F010010164416C41F0010184
:101190004164002018BD00001400002040420F00F0
:1011A00000230140200000040020014000210140F4
:1011B0000022014090F83C1001290CD0012180F858
:1011C0003C1001688A6822F001028A6001688A681E
:1011D000D20702D00BE0022070474A68064B1A4043
:1011E0004A60016C21F4885141F001010164002141
:1011F00080F83C1008467047DFFFFFFB70B50446DF
:1012000000F09CF90546601C02D0044800780444B4
:1012100000F094F9401BA042FAD370BD08000020F2
:1012200070B588B080280CD040285BD16425142488
:1012300000262D48FFF738FF2B480068016859B198
:101240000DE0FFF757FB08B06423BDE870400522AE
:1012500026A1284800F080BF6D1EEDB2EED20A2014
:10126000FFF7CCFF2048FFF71FFF1F48FFF7BEFE28
:10127000864200D286B2641E14F0FF04EFD11A48F1
:10128000FFF798FF304601F052FE9FED1B1B53EC19
:10129000112B01F0C7FC01F093FC00EE100ADFED0A
:1012A000180A20EE200A10EE100A01F051FF9FEDFF
:1012B000151B53EC112B01F04DFE01F00BFEC4B2D7
:1012C0001E2C00D8002420216846FFF771F9224621
:1012D0000EA16846FFF744F8C2B264236946054888
:1012E00000F03AFF08B070BDA8010020746F75636C
:1012F00068000000380200200000000000FEAF403F
:1013000000002544E17A14AE47E1CA3FE8A180E637
:10131000B6B2E4B8ADE98592E7B2BEE6B593E5BAF8
:10132000A6E4B8BA203A202564206D672F3130300A
:101330006D6C2000044910B50A68024202D00860B2
:10134000FFF76EFF10BD0000143C01402DE9F84F7F
:10135000DFF8BCA10022012503264FF00F090AF196
:10136000040BAAF1040E00BF0B6805FA02F4234037
:10137000A34270D10F7907F00307012F01D0022F8C
:1013800016D187684FEA420806FA08FC27EA0C07DC
:10139000D1F80CC00CFA08FC4CEA070CC0F808C0E5
:1013A0004768A7430C79C4F3001494403C4344605D
:1013B0000C79E443A4070AD0C4684FEA420C06FA49
:1013C0000CF7BC438F6807FA0CF72743C7600C790A
:1013D00004F00304022C12D1D40800EB840CDCF8D6
:1013E00020405707FF0E09FA07F824EA0804D1F84D
:1013F000108008FA07F848EA0408CCF8208004684E
:101400004FEA420C06FA0CF7BC430F7907F00307CA
:1014100007FA0CF7274307604C6814F4403F70D07C
:101420003C4C276847F480472760246822F0030774
:1014300004F480440094384C07EB040CDCF80848B2
:1014400097074FEA177809FA08F7BC43334FB842B9
:1014500002D1002724E054E0314FB84201D10127E6
:101460001EE0304FB84201D1022719E02E4FB8429A
:1014700001D1032714E02D4FB84201D104270FE01A
:101480002B4FB84201D105270AE02A4FB84201D1BB
:10149000062705E0284FB84201D1072700E00827BA
:1014A00007FA08F72743CCF80878DAF800405746DF
:1014B000D1F804C09C435FEACC2C00D51C433C60AF
:1014C000DBF800405F46D1F804C09C435FEA8C2CF7
:1014D00000D51C433C60DEF800407746D1F804C0DC
:1014E0009C435FEA8C3C00D51C433C60084F083F9E
:1014F0003C68D1F804C09C435FEACC3C00D51C4357
:101500003C60521C102AFFF42FAFBDE8F88F00009A
:10151000083C0140443802400030014000000240D5
:101520000004024000080240000C0240001002408B
:101530000014024000180240001C0240014880686C
:1015400070470000080000200248816802781144BA
:1015500081607047080000200B4810B5016841F415
:1015600000710160016841F480610160016841F42B
:1015700080710160032000F077F8002000F006F889
:1015800000F024F8002010BD003C024070B50D4D65
:1015900004464FF47A712878B1FBF0F00A490968E3
:1015A000B1FBF0F000F014FB48B9102C07D2002278
:1015B0002146501E00F038F800206C6070BD0120FC
:1015C00070BD000008000020140000200E4808B57F
:1015D000016841F480410160006800F4804000909F
:1015E0000948001F016841F0805101600068002235
:1015F00000F0805000901146052000F015F8BDE87D
:101600000840052000F002B844380240002809DBF9
:1016100000F01F02012191404009800000F1E0200C
:10162000C0F8001170470000F0B40E4B1B680C4668
:10163000C3F30223C3F10705042D00D90425191DA6
:10164000072901D2002300E0DB1E012606FA05F17E
:10165000491E214099409E40761E16403143F0BC01
:1016600001F064BA0CED00E0064900F007020868DA
:101670004FF6FF03184040EA0220034A1043086077
:10168000704700000CED00E00000FA052DE9F0477E
:101690000E46050065D0DFF81481D8F80000F7B2D7
:1016A00000F00700B04207D288F80070D8F80000B8
:1016B00000F00700B04254D128683D4C810712D594
:1016C000400703D5206840F4E050206028780007E8
:1016D00003D5206840F4604020602068A96820F0AD
:1016E000F000084320602878C0072DD03049686892
:1016F0000839012812D0022813D0032811D0096814
:10170000890700292DDA216821F0030101432160B6
:10171000FFF714FF814641F2883A0EE00968890319
:10172000EFE709688901ECE7FFF708FFA0EB090183
:10173000514502D90320BDE8F0872068696800F0B0
:101740000C00B0EB810FEFD1D8F80010404601F04B
:101750000701B14207D90770006800F00700B042E6
:1017600001D00120E7E72878400705D52068E9681F
:1017700020F4E050084320602878000706D5206850
:10178000296920F4604040EAC100206000F038F888
:101790002168084AC1F30311515CC840064908603A
:1017A00006480068FFF7F2FE0020C4E7003C024054
:1017B0000838024046320008140000200C000020C7
:1017C0000448054900680968044AC1F38221515C54
:1017D000C840704714000020083802405632000804
:1017E0000448054900680968044AC1F34231515C64
:1017F000C8407047140000200838024056320008E4
:10180000154810B5006810F00C02144813D01449A4
:10181000042A0FD0082A0ED10F4C241F22682368F7
:1018200002F03F025B0207D52068C0F38810A0FBDE
:10183000010106E0084610BD2168C1F38811A1FB33
:1018400000010023FEF714FD2168C1F30141491C8A
:101850004900B0FBF1F010BD083802400024F4004C
:1018600040787D012DE9F84F04006ED02078DFF834
:101870004C93C007A9F104054AD009F1040001689E
:10188000C1F38101012908D00068C0F3810002285A
:101890000AD1D9F80000400206D52868800337D560
:1018A00060680028E1D033E06068B0F5803F10D078
:1018B000B0F5A02F286810D020F480302860286868
:1018C00020F4802028606068A8B1FFF737FE064644
:1018D0000DE0286840F48030F4E740F48020286070
:1018E000F7E700BFFFF72AFE801B642873D828683B
:1018F0008003F7D50CE0FFF721FE064605E000BFA8
:10190000FFF71CFE801B6428F0D828688003F7D4FA
:101910002078DFF8AC8280074FF0000A3ED5A74858
:10192000001D016811F00C0F08D00068C0F38100A1
:1019300002280BD1D9F80000400207D4286880079C
:1019400016D5E068012800D112E033E1E068B8B1B3
:101950000120C8F80000FFF7F1FD064605E000BFD2
:10196000FFF7ECFD801B0228C0D828688007F7D558
:101970002868216920F0F80040EAC10028600DE0E5
:10198000C8F800A0FFF7DAFD064604E0FFF7D6FD31
:10199000801B02281FD828688007F7D4207800070A
:1019A00022D5864F87486169703771B10121016086
:1019B000FFF7C4FD064604E0FFF7C0FD801B0228C8
:1019C00009D838688007F7D50EE0C0F800A0FFF707
:1019D000B5FD064605E082E0FFF7B0FD801B02285A
:1019E0007DD838688007F7D42078400768D5DFF8BD
:1019F000CCB100270BF13C0BDBF80000C0000BD48E
:101A0000DBF8001041F08051CBF80010DBF800004B
:101A1000012700F0805000906B4E3068C00510D454
:101A2000306840F480703060FFF788FD009005E07A
:101A3000FFF784FD0099401A022850D83068C0058D
:101A4000F6D55E4EA0686C3601280FD005283068A8
:101A500010D020F001003060306820F004003060C9
:101A6000A068B8B1FFF76AFD00900FE0306840F061
:101A70000100F4E740F004003060F7E7FFF75EFD97
:101A80000099411A41F28830814266D83068800757
:101A9000F4D50EE0FFF752FD009007E0FFF74EFD92
:101AA0000099411A41F28830814256D83068800747
:101AB000F4D42FB1DBF8001021F08051CBF80010E6
:101AC000A069C8B33D49091D0968C1F38101022914
:101AD0004AD00228504607D0C8F8600000E03CE039
:101AE000FFF72CFD04463BE04746C8F86000FFF7CF
:101AF00025FD064605E000BFFFF720FD801B0228FC
:101B00002BD828688001F7D4D4E907010843A16ADB
:101B10002E4A490802EB0141626A41EA82110843F8
:101B200094F82C1040EA0161C9F8001001203866D1
:101B3000FFF704FD044606E03EE000BFFFF7FEFCB1
:101B4000001B022809D828688001F7D534E000BFBF
:101B5000FFF7F4FC001B022802D90320BDE8F88F30
:101B600028688001F4D427E00128F7D0D9F80000D4
:101B7000E26900F4800191421CD1226A00F03F0129
:101B8000914217D147F6C071626A0140B1EB821FE2
:101B900010D1A26A4FF0FF3300F4403103EB520240
:101BA000B1EB024F06D194F82C1000F07060B0EB4E
:101BB000016F01D00120D1E70020CFE704380240B7
:101BC00000004742800E4742007000400000FFFFC7
:101BD00010B5401EB0F1807F01D3012010BD4FF041
:101BE000E02460610F21601700F0A0FF0020A061D9
:101BF00007202061002010BD7047704770B590F835
:101C00003C20012A32D0012480F83C40022280F896
:101C10003D2003685A689D6822F070060A683243C6
:101C20005A60134B02689A4214D0B2F1804F11D01F
:101C3000104B9A420ED0104B9A420BD00F4B9A4247
:101C400008D00F4B9A4205D00E4B9A4202D00E4B51
:101C50009A4204D1496825F080031943916080F8C5
:101C60003D40002180F83C10084670BD022070BD48
:101C7000000001400004004000080040000C00404B
:101C800000040140004001400018004010B504006D
:101C900003D094F83D0010B107E0012010BD0020F2
:101CA00084F83C00204600F01FF8022084F83D0034
:101CB000211D206800F0B2FD012084F8460084F860
:101CC0003E0084F83F0084F8400084F8410084F826
:101CD000420084F8430084F8440084F8450084F806
:101CE0003D00002010BD000008B50068B0F1804F35
:101CF00012D10A48016841F0010101600068002228
:101D000000F0010000900E211C20FFF78DFCBDE8C3
:101D100008401C20FFF77ABC08BD00004038024094
:101D200070B5044690F83C000025012817D0012624
:101D300084F83C60022084F83D002068826822F02C
:101D4000770222F47F4282600868502838D00DDC88
:101D500020284FD005DC90B3102811D14AE0022092
:101D600070BD302846D040280AD13BE060282FD0F3
:101D700070280DD0B0F5805F03D0B0F5005F12D0B1
:101D8000012584F83D60002084F83C00284670BDA1
:101D9000CB68D1E90121206800F0ACFD20688168A2
:101DA00041F0770109E0CB68D1E90121206800F01A
:101DB000A1FD2068816841F480418160E1E719E07C
:101DC000CA684968206800F0A7FD5021206806E035
:101DD000CA684968206800F0B0FD6021206800F002
:101DE00093FDCEE7CA684968206800F095FD402160
:101DF0002068F4E7226801461046F0E770472DE9B5
:101E0000F04104460068C66805694FF00007A9075D
:101E100013D5B10711D5F91E016101202077206883
:101E200080698007204602D0FFF7E8FF04E000F059
:101E30007EF8204600F07CF82777680716D57007F3
:101E400014D521686FF00400086102202077206813
:101E5000806910F4407F204602D0FFF7CFFF04E0F6
:101E600000F065F8204600F063F82777280715D5BD
:101E7000300713D521686FF008000861042020772F
:101E80002068C0698007204602D0FFF7B7FF04E052
:101E900000F04DF8204600F04BF82777E80616D5FD
:101EA000F00614D521686FF0100008610820207733
:101EB0002068C06910F4407F204602D0FFF79EFFE3
:101EC00004E000F034F8204600F032F82777E80705
:101ED00008D0F00706D021686FF0010008612046A5
:101EE00000F028F8280608D5300606D521686FF0DE
:101EF000800008612046FFF77FFE680608D570065F
:101F000006D521686FF040000861204600F024F8F3
:101F1000A8060AD5B00608D521686FF02000086130
:101F20002046BDE8F041FFF768BEBDE8F08170478C
:101F3000704700000449884205D16423042203A1AC
:101F4000044800F009B97047F00100206E6968612B
:101F50006F00000038020020704770B5040004D004
:101F600094F84100002510B106E0012070BD84F80E
:101F70004050204600F024F8242084F841002068D6
:101F8000C16821F40051C160204600F00FFD2068B7
:101F9000016921F4904101612068416921F02A0121
:101FA00041612068C16841F40051C160656420202E
:101FB00084F8410084F842006563002070BD000091
:101FC000F0B587B0044614216846FEF7F1FA304BAD
:101FD000276800222F490224032507262E489F4206
:101FE00019D12C4B14331F6847F010071F601B6872
:101FF00003F0100305930B6843F001030B600968BD
:1020000002AB01F0010105916902CDE9001483E8FA
:10201000640069461AE01F4BDFF880C01033674543
:1020200018D11F6847F400371F601B6803F40033A2
:1020300005930B6843F001030B60096801F001018F
:1020400005910C21CDE9001469461CE0FFF77EF9EB
:1020500007B0F0BD12488742FAD1186840F48020DA
:102060001860186800F480200590086840F00200AD
:1020700008600868694600F0020005904FF440606F
:10208000CDE90004074802AF87E86400DEE70000FE
:10209000001001403038024000000240004400407F
:1020A00000480040000402402DE9F84F044690F833
:1020B00042009A4616460D46202802D00220BDE86E
:1020C000F88FB5B1AEB100206064222184F84210CF
:1020D0002063FFF733FAA6858146E685A0684FF4B2
:1020E00080582027404501D1206920B12E46002587
:1020F00029E00120E3E7002625E04B4600222021CD
:102100002046CDF800A000F0D7FC18B184F842704A
:102110000320D4E726B1A06840451AD038B108E0C2
:1021200020684068C0F3080025F8020B08E0206929
:1021300078B12068406800F07F0000BF06F8010B0E
:10214000E08D401EE085E08D0028D6D184F84270F5
:10215000B5E720684068F1E72DE9F843044690F8B8
:102160004100984616460D46202802D00220BDE8C0
:10217000F88385B17EB100206064212084F841009D
:10218000FFF7DCF9A6848146E684A0682027B0F535
:10219000805F02D003E00120E9E7206910B12E46FC
:1021A00000250EE000260CE08021204600F084FC93
:1021B000A8B9C6B116F8010B21684860E08C401E32
:1021C000E084E08C4B464FF00002CDF80080002800
:1021D000EAD14FF04001204600F06EFC40B184F897
:1021E00041700320C3E735F8020BC0F30800E3E7B2
:1021F00084F841700020BAE7FEE700001CB5EF212B
:102200008DF8001001218DF801101449830815483C
:1022100049680A0E8DF802200A0C8DF803200A0A7C
:102220008DF804208DF8051007218DF80610002187
:102230008DF807104FF4C8720949FFF735FF0722E0
:1022400007496846FEF724F928B969460448FEF7AD
:102250000DF9002800D100201CBD00000000002066
:1022600018000020800200207FB50024154800944B
:10227000019402941249039401604FF40031C0E9C3
:1022800001140461047680F820400F49C0E90A1463
:102290000125C561C46080F830404561FEF7A9FEA4
:1022A00008B1FEF7FBFD0095CDE9015469460548EC
:1022B000FEF7F6FD002801D0FEF7F0FD7FBD00001F
:1022C00000200140A80100200100000F10B586B0D9
:1022D00014216846FEF76CF91C48016841F02001A2
:1022E0000160016801F020010591016841F00101E0
:1022F0000160016801F001010591016841F00201EE
:1023000001600068124C00F002000590402000902F
:102310004FF4041001900120029069462046FFF717
:1023200015F8802000904FF4881001900220029050
:1023300069462046FFF70AF8002201211720FFF71F
:1023400073F91720FFF762F906B010BD303802406C
:102350000014024010B586B000241948009401947E
:102360000294039404944FF08041059401604AF272
:1023700010414160102181604FF4FA61C1604FF457
:102380000071016180218161FFF780FC08B1FEF7D7
:1023900085FD4FF48050009069460948FFF7C0FC66
:1023A00008B1FEF77BFD049404A905480594FFF7E6
:1023B00025FC002801D0FEF771FD06B010BD00001D
:1023C000F00100200C4810B50A4901604FF4E131DA
:1023D0004160002181600C22C160C0E9041281616A
:1023E000C161FFF7BAFD002803D0BDE81040FEF739
:1023F00055BD10BD00100140380200200C4810B53A
:102400000A4901604FF461414160002181600C2262
:10241000C160C0E904128161C161FFF79EFD00281F
:1024200003D0BDE81040FEF739BD10BD00440040A8
:10243000800200200C4810B50A4901604FF4165183
:102440004160002181600C22C160C0E904128161F9
:10245000C161FFF782FD002803D0BDE81040FEF700
:102460001DBD10BD00480040C802002003490A6895
:102470005206FCD50149091D086070470044004020
:10248000FEE7FEE710B5044600F04CF900F028F92D
:102490000120FFF7EBFF042000F04DF90220FFF7C9
:1024A000E5FF2046FFF7E2FFE01D00F031F94FF4B1
:1024B000FA60FFF7A3FE08B1407A10BDFF2010BDFF
:1024C00010B500F02FF900F00BF90120FFF7CEFF57
:1024D000032000F030F90120FFF7C8FF052000F0CD
:1024E00017F94FF4FA60FFF789FE08B1407A10BD82
:1024F000FF2010BD10B500F015F900F0F1F8012033
:10250000FFF7B4FF032000F016F90320FFF7AEFF3A
:10251000072000F0FDF84FF4FA60FFF76FFE08B1F6
:10252000407A10BDFF2010BD10B500F0FBF800F0A0
:10253000D7F80120FFF79AFF032000F0FCF80520F0
:10254000FFF794FF092000F0E3F84FF4FA60FFF77B
:1025500055FE08B1407A10BDFF2010BD70B50C4685
:10256000054600F0DFF800F0BBF80120FFF77EFF22
:10257000062000F0E0F80620FFF778FF2846FFF776
:1025800075FF200AFFF772FFE0B2FFF76FFF05EB60
:102590001420E1B208440D3000F0BAF84FF4FA60AC
:1025A000FFF72CFE08B1407A70BDFF2070BD00001F
:1025B00070B590B0064600F0B5F800F091F8012033
:1025C000FFF754FF032000F0B6F81D20FFF74EFF81
:1025D000212000F09DF84FF4FA60FFF70FFE040091
:1025E00007D0E07AA17A657A00EB0120308055B1FE
:1025F00000E0FF25642310220BA11248FFF7ACFD79
:1026000010B0284670BD40216846FDF7D1FFE07A42
:10261000A17A00EB01220CA16846FDF7A1FE64231C
:1026200014226946E9E70000E8AFBBE58F96E68C27
:1026300087E7BAB9E695B0E99499E8AFAFEFBC8106
:102640000000000038020020E69C89E69588E68CB0
:1026500087E7BAB9E4B8AAE695B03D256400000062
:1026600070477047704700002DE9F041074600248D
:102670008EB0884626460846FDF736FFC5B2FD20D7
:102680008DF8000000208DF80100E81C8DF8020094
:1026900001208DF8030000EB07108DF804006F4651
:1026A000B85D761C4440052EFAD3002004E000BF3C
:1026B00018F800104C40401CA842F9D32A46414665
:1026C000781DFDF730FF781964234471AA1D69460F
:1026D0000248FFF741FD0EB0BDE8F081C8020020BE
:1026E00010B50A4C6068000EFFF7C0FE6068C0F3CA
:1026F0000740FFF7BBFEA088C0F30720FFF7B6FE38
:102700002079BDE81040FFF7B1BE000000000020B6
:1027100010B50446000AFFF7A9FEE0B2BDE810407C
:10272000FFF7A4BE10B5EF20FFF7A0FEBDE81040F4
:102730000120FFF79BBE10B50446C0F30720FFF74A
:1027400095FEE0B2BDE81040FFF790BE10B5FEF771
:1027500057FA01466423BDE8104018220148FFF7EC
:10276000FBBC000038020020FEF7EEBE30B593B08F
:1027700030216846FDF71CFF14210CA8FDF718FF57
:102780001D480025016841F080510160006800F09B
:10279000805011901948016841F48041016000683F
:1027A000022400F480401190012003901020049036
:1027B000009406940820CDE90750A820CDE909042B
:1027C00004200B906846FFF74DF808B172B6FEE79B
:1027D0000CA90F2081E831004FF4A0500F904FF466
:1027E0008050109005210CA8FEF750FF002801D062
:1027F00072B6FEE713B030BD4038024000700040B2
:102800000248016841F470010160704788ED00E002
:102810000148FFF7F4BA0000F0010020F0B50268AB
:10282000294C2A4D2A4E2B4F2B4B4FF0804CA04267
:1028300009D0604507D0A84205D0B04203D0B842C5
:1028400001D0984204D122F0700E4A6842EA0E028A
:10285000A0421BD0604519D0A84217D0B04215D075
:10286000B84213D0984211D01C4DA8420ED01C4D36
:10287000A8420BD01B4DA84208D01B4DA84205D042
:102880001A4DA84202D01A4DA84203D122F4407535
:10289000CA682A434D6922F080022A4302608A688E
:1028A000C2620A688262A04201D0984201D10969DD
:1028B0000163012141610169C90703D0016921F068
:1028C00001010161F0BD0000000001400004004072
:1028D00000080040000C004000040140004001409E
:1028E000004401400048014000180040001C004026
:1028F0000020004010B5846842EA032224F47F449B
:102900000A432243826010BD826822F070020A43AB
:1029100042F007018160704710B5036A046A24F031
:1029200001040462846924F0F00444EA021423F0F0
:102930000A020A438461026210BD10B5036A046A88
:1029400024F010040462846923F0A00324F470448A
:1029500044EA023243EA01118261016210BD01685A
:102960000C3151E8002F22F4907241E80023002B33
:10297000F5D10168143151E8002F22F0010241E83D
:102980000023002BF5D1016B012909D101680C311D
:1029900051E8002F22F0100241E80023002BF5D16E
:1029A000202180F8421000210163704770B5044671
:1029B00000680169E26821F4405111430161216915
:1029C000A068E26908436169114308432168CA6845
:1029D00049F20C639A430243CA6020684169A269C4
:1029E00021F440711143416131492068884202D08D
:1029F0003049884202D1FEF7F3FE01E0FEF7E0FE27
:102A0000E2690023192164253226B2F5004F62687D
:102A100028D0A0FB0101930F9200FDF729FC01468D
:102A2000B0FBF5F06FF01802504301EB800006EBAD
:102A30000010B0FBF5F000F0F002B1FBF5F002EB96
:102A40000012B1FBF5F06FF01803584301EB800062
:102A500006EB0010B0FBF5F000F00F002168104409
:102A6000886070BDA0FB010192185B41FDF700FC7E
:102A70000146B0FBF5F00201B1FBF5F06FF0180371
:102A8000584301EB800006EBC000B0FBF5F000F00E
:102A9000F80002EB4002B1FBF5F0584301EB800077
:102AA00006EBC000B0FBF5F000F00700D6E7000031
:102AB00000100140001401402DE9F84398461746E4
:102AC0000D460446089E24E0701C22D0FEF736FD19
:102AD000A0EB0800B0421AD8CEB12068C1684907FF
:102AE00017D5802D15D0402D13D00168C943090793
:102AF0000FD401680025406800902046FFF72FFFA3
:102B00000820606484F840500120BDE8F883032069
:102B1000FBE72068006835EA000004D00020B842D6
:102B2000D2D00020F1E70120F9E7FEE70907090EFE
:102B3000002804DB00F1E02080F80014704700F06A
:102B40000F0000F1E02080F8141D7047FEF704FD2F
:102B5000FFF70CFEFFF7BAFBFFF786FBFFF7FAFB68
:102B6000FFF730FCFFF74AFCFFF764FC40F2DC544F
:102B700006A10220FFF778FD2046FEF73FFB204626
:102B8000FEF73CFB2046FEF739FBF1E75B76375D4D
:102B90005B6D315D5B74355DBBB6D3ADCAB9D3C374
:102BA000C2CCC9EEC6ECBDA2B5EA53594E36323896
:102BB00038D3EFD2F4BACFB3C9C4A3BFE900000041
:102BC00021F00042A2F16052B2F5801F01F00043F3
:102BD00028BFD2F17F6C0BD95FEA001C43EAC20226
:102BE00042EB507018BF704728BF20F001007047BB
:102BF000B2F5801FBCBF184670474FEA410C1CF568
:102C0000001F02D2084600F019BB70B500F04CFA64
:102C100000000089FFF7F6BF4FF00040A0F58000EC
:102C2000704700002DE9C04130B4DFF8A0C23CEA93
:102C3000111418BF3CEA131400F0EC8081EA03057C
:102C40001CEA111444EAD57418BF1CEA131500F0ED
:102C5000C780A4EB05044FF0004545EAC12145EAD1
:102C6000C32341EA505143EA525304F17F7499421D
:102C700004F500344FEAC0204FEAC22208BF904258
:102C800000F09C804FEA13650FF24016765D4FEA24
:102C9000134506FB05F7C7F1807706FB07F74FEAF8
:102CA000D737A7FB03687642C8F58038A7FB06CE66
:102CB00038BFA8F1010807FB08E64FF0000EA6FB9D
:102CC000028CE6FB03CEDCF1000CCEF1004E38BFE7
:102CD000AEF1010EA6FB0C584FF000074FF00005B7
:102CE000E6FB0E87A1FB08C6A0FB07CE16EB0E067F
:102CF00045F10005E1FB076515F1E04E7EBFA4F547
:102D000080345FEA46066D4116F1800745F1000503
:102D10004FEA17274FEA066647EA0567A6F1DE463F
:102D2000B6F1805F4FEA15251FD9384624F0010C13
:102D300005EBC471BCF1FE6F01EB0C1102D8F0BCC5
:102D4000BDE8008124425CBF01F5801E9EEAC47F7D
:102D500002D4F0BCBDE80081244238D4F0BCA1F11B
:102D6000C041BDE8004100F0EDB94FEAD22242EA8D
:102D700043524FEAD323A7FB02864FEAD02040EA12
:102D8000415007FB03661EEA0E0F4FEAD12105FBF7
:102D9000026658BFA6EB0056B6EB00564FEA520E3D
:102DA0004EEAC37E18EB0E0E56EB530EBDD518EB54
:102DB00002085E417F1C55F10005B6E74FF480150F
:102DC0004FF000074FF000064FF00008ADE7F0BCF1
:102DD0004FF0000001F1C04101F00041BDE8008169
:102DE00011EA0C1F0CEA131500D00CE013EA0C1FBB
:102DF00000F025804FF00000F0BC81EA030101F0F3
:102E00000041BDE80081F0BCBDE8004181EA03015A
:102E100000F098B9F0BCBDE8004170B500F044F98D
:102E2000097EFC3E00F007B881EA03014FF0000084
:102E300001F00041704781EA030100F083B9F0BC62
:102E4000BDE800414FF0000021497047FFFDFBF94C
:102E5000F7F5F4F2F0EEEDEBE9E8E6E4E3E1E0DECD
:102E6000DDDBDAD8D7D5D4D3D1D0CFCDCCCBCAC83F
:102E7000C7C6C5C4C2C1C0BFBEBDBCBBBAB9B8B766
:102E8000B6B5B4B3B2B1B0AFAEADACABAAA9A8A859
:102E9000A7A6A5A4A3A3A2A1A09F9F9E9D9C9C9B27
:102EA0009A999998979796959594939392919190D2
:102EB0008F8F8E8E8D8C8C8B8B8A89898888878763
:102EC0008685858484838382828181800000FF07D8
:102ED0000000F87F4FEA1153A3F58063D3F11E037E
:102EE000A8BFD3F1200C08DB4FF0004242EAC12218
:102EF00052EA505232FA03F0704709420BD4102BB9
:102F0000C4BF0020704703F5787CBCF1FF3F05D0BB
:102F10004FF0FF3070474FF00000704770B500F081
:102F2000C3F800BF4992248000207047F0E7B0FA50
:102F300080F310FA03F10AD0C3F11D0303F5806397
:102F40004FEA41504FEA035202EBD12170474FF054
:102F500000007047DFF848C170B51CEA111E1EBFA3
:102F60001CEA13159EEA0C0F95EA0C0F00F06F8017
:102F700081EA030423EA4C134EEAD47E21EA4C1181
:102F800041F4801143F48013AE44A1FB024CA0FB3A
:102F90000365AEF17F7E361955EB0C05A1FB034CA2
:102FA0004CF10003A0FB021C16EB0C06654153F12B
:102FB0000003094218BF46F0010613F4007F0BD14D
:102FC0004FEA03314FEA0530340341EA155140EA34
:102FD00016506FF003020AE04FEAC3214FEAC52002
:102FE000F40241EA555140EA56506FF0020202EBFA
:102FF0002E4201EB025585EACE710AD05FEA440CFD
:1030000018BF24F0004450F1000041F1000120EA13
:10301000D47040F2FE7C624500D270BDA84214BF5D
:103020004FF080444FF04044002E08BF0024BEF112
:10303000806FA8BFA1F1C041BDE8704080F28280DE
:103040004FF0000001F1C04101F0004170479EEADD
:103050000C0F0CEA131518BF95EA0C0F06D04FF0B1
:10306000000081EA030E0EF0004170BD00F01CF874
:103070008900013E00F007B800F009B84FEA430CA0
:103080005FEA5C5C08D081EA030100F05BB84FEABC
:10309000410C5FEA5C5CF6D14FF0000001497047DB
:1030A0000000FF070000F87F0EF1020E2EF0030E65
:1030B0005EF8046B364205D4012A43EB030515F58F
:1030C000001F12D8012841EB010C1CF5001F0CD881
:1030D0000ED14FEAD17C15F5001F0CEB4C0C0CF116
:1030E000020C08BF4CEBD37C04E04FF0080C01E06D
:1030F0004FEAD37C0CEB4C0526FA05F606F00706E2
:10310000B6F1040C06D20EEB860CBDE870404CF014
:10311000010C6047DFE80CF0090B02024FF00041A0
:103120004FF00000A1F5002170BD1946104601289E
:1031300051EB010418BFD4F5001484BF002001F046
:10314000004170BD0808A0F500114FEA3101704739
:1031500043004FEAD30C4FEA3C0C43401FBF4007EB
:103160000CF1605113F0FE4F70471CF0006F03D15B
:1031700000200CF0004170470CF0004343EA50700F
:1031800010B540EACC0000F00EF800BF000000923D
:103190004FEA0001FFF7D6BF4FF000414FF00000AB
:1031A000A1F5002170470EF1020E2EF0030E5EF81D
:1031B000044B244204D44FEA4102B2F17F4F11D8AC
:1031C0004FEA4003B3F17F4F0CD80ED14FEAD07CC9
:1031D000B2F17F4F0CEB4C0C0CF1020C08BF4CEB26
:1031E000D17C04E04FF0080C01E04FEAD17C0CEBFD
:1031F0004C0324FA03F404F00704B4F1040C06D2DF
:103200000EEB840CBDE810404CF0010C6047DFE889
:103210000CF0070802024FF00040A0F5800010BD3E
:103220000846420018BFD2F1807288BF00F000400B
:1032300010BD4FF04070E1EE100A7047FF2141EAE7
:10324000D050C005704700000000000000000102DF
:10325000030406070809000000000102030400003F
:10326000803200080000002018000000C40100089F
:10327000983200081800002058090000E0010008FA
:1032800000000000FFFFFFFF010000001000000031
:08329000000000000024F4001E
:040000050800018965
:00000001FF
