:020000040800F2
:100000002008002029020008A3180008151600087F
:10001000A1180008490500086F1C00080000000036
:10002000000000000000000000000000A918000807
:100030004B05000800000000A5180008AB180008D8
:10004000430200084302000843020008430200087C
:1000500043020008A71800084302000843020008F2
:10006000430200084302000843020008430200085C
:10007000430200084302000843020008430200084C
:10008000430200084302000843020008430200083C
:100090004302000843020008430200084D0500081F
:1000A000430200084302000843020008430200081C
:1000B00055190008430200084302000843020008E3
:1000C00043020008430200084302000843020008FC
:1000D00043020008430200084302000843020008EC
:1000E00043020008430200084302000843020008DC
:1000F00043020008430200084302000843020008CC
:1001000043020008430200084302000843020008BB
:1001100043020008430200084302000843020008AB
:10012000430200084302000843020008430200089B
:10013000430200084302000843020008430200088B
:10014000430200084302000843020008430200087B
:10015000430200084302000843020008430200086B
:10016000430200084302000843020008430200085B
:100170004302000843020008430200080000000098
:10018000430200084302000800F002F800F03CF8C7
:100190000AA090E8000C82448344AAF10107DA45E2
:1001A00001D100F031F8AFF2090EBAE80F0013F0F8
:1001B000010F18BFFB1A43F001031847241B00006E
:1001C000441B0000103A24BF78C878C1FAD85207FF
:1001D00024BF30C830C144BF04680C6070470000C1
:1001E0000023002400250026103A28BF78C1FBD840
:1001F000520728BF30C148BF0B6070471FB501F0E0
:100200005DFD1FBD10B510BD00F0CFF81146FFF722
:10021000F5FF01F03DFD00F0EDF803B4FFF7F2FF4C
:1002200003BC00F0F5F80000094880470948004782
:10023000FEE7FEE7FEE7FEE7FEE7FEE7FEE7FEE796
:10024000FEE7FEE704480549054A064B70470000F3
:10025000451900088901000820020020200800201C
:10026000200400202004002053EA020C00F06980E2
:100270002DE9F04B4FF00006002B1FBFB3FA83F5BA
:1002800003FA05F424FA05F65E4012BF1643B2FAEB
:1002900082F502FA05F4C5F120051EBF22FA05FC1D
:1002A00044EA0C04203556EA044C4FEA144418BFC3
:1002B000641C4FF000084FF00009904271EB030CF2
:1002C00039D3002919BFB1FA81F701FA07F6B0FA5C
:1002D00080F700FA07F6C7F120071EBF20FA07FCD7
:1002E00046EA0C062037B6FBF4FCA7EB0507103FE7
:1002F00007F01F0BCBF120060CFA0BFB2CFA06F6CD
:1003000044BFB3460026202FA4BF5E464FF0000B2B
:100310005BEA060C08BF4FF0010B19EB0B09ABFBB6
:10032000027C48EB0608C01B06FB02CC0BFB03CC8F
:1003300071EB0C01C1E70B46024641464846BDE859
:10034000F08B13B54FF000004FF00001AFF30080C9
:10035000BDE81C4070474FF0000200B513469446BC
:100360009646203922BFA0E80C50A0E80C50B1F10D
:100370002001BFF4F7AF090728BFA0E80C5048BF21
:100380000CC05DF804EB890028BF40F8042B08BFBF
:10039000704748BF20F8022B11F0804F18BF00F8BB
:1003A000012B7047704770477047754600F02CF876
:1003B000AE4605006946534620F00700854618B052
:1003C00020B5FFF73FFFBDE820404FF000064FF09B
:1003D00000074FF000084FF0000B21F00701AC467A
:1003E000ACE8C009ACE8C009ACE8C009ACE8C00999
:1003F0008D46704710B50446AFF300802046BDE837
:100400001040FFF70ABF000000487047C0010020FD
:1004100001491820ABBEFEE726000200704700002D
:10042000464910B54A6822F440324A604A68436837
:100430001A434A6001684A6822F480724A6001687F
:100440004A68036942EA03224A6001684A6822F066
:1004500040724A6001684A6883681A434A600168CA
:100460008A6822F400628A6001688A68C3681A4355
:100470008A60816A6FF07062D14201688A6822F0F6
:1004800070628A6001688A680CD0836A1A438A6045
:1004900001688A6822F040528A6001688A68C36AEB
:1004A0001A4301E022F040528A6001688A6822F013
:1004B00002028A6001688A68037E42EA43028A6017
:1004C00090F82010002901684A680FD042F40062B9
:1004D0004A6001684A6822F460424A6001684A68DA
:1004E000174C436A04EB43331A4301E022F40062E1
:1004F0004A600168CA6A22F47002CA620168CA6A64
:10050000838B104C04EB03531A43CA6201688A6858
:1005100022F400728A6001688A6890F8303042EAFA
:1005200043228A6001688A6822F480628A600168D6
:100530008A68406942EA8020886010BD002301403B
:1005400000E0FFFF0000F0FFFEE77047802000F0B2
:1005500043B972B6FEE7000078B50024009490F825
:100560003C20012A19D0012280F83C200A68072388
:100570000568092A13D9EE680A3A02EB4202934051
:100580009E43EE600B788A680A3B03EB43039A4074
:100590000368DD682A43DA6010E0022078BD2E6926
:1005A00002EB420293409E432E610B788A6803EB74
:1005B00043039A4003681D692A431A614A681F234E
:1005C000072A13D205686E6B521E02EB820293401B
:1005D0009E436E630B790A885B1E92B203EB830322
:1005E0009A4003685D6B2A435A6327E005680D2A29
:1005F00012D22E6BD21F02EB820293409E432E63D7
:100600000B790A88DB1F92B203EB83039A400368DD
:100610001D6B2A431A6311E0EE6A0D3A02EB820267
:1006200093409E43EE620B790A880D3B92B203EB36
:1006300083039A400368DD6A2A43DA62164B056831
:10064000144A9D4206D10D68122D03D1556845F418
:100650008005556005689D4218D10B68102B01D0AC
:10066000112B13D1536843F4000353600968102918
:100670000CD10A490A4A0968B1FBF2F101EB810188
:10068000490000E0491E00910029FBD180F83C4060
:10069000002078BD00230140002001400C00002014
:1006A00040420F0070B504004FF0000503D0206CED
:1006B000002610B107E0012070BD204600F01CF8B4
:1006C000666484F83C60206CC00610D4206C20F472
:1006D000885040F0020020642046FFF7A1FE6664C7
:1006E000206C20F0020040F00100206400E00125B1
:1006F00084F83C60284670BD30B587B004461421AC
:100700006846FFF728FE1F4824681D4D00221D493A
:1007100014380323AC4216D10C6844F480740C6086
:10072000096801F480710591016841F001010160DF
:100730000068694600F0010005900220CDE9000341
:100740000292114818E0114DAC4217D10C6844F4E4
:1007500000740C60096801F400710591016841F0B2
:10076000040101600068694600F00400059008205B
:10077000CDE900030292064800F03AF807B030BD18
:1007800000200140443802400000024000210140A6
:100790000008024070B5044600F022F90546601CCE
:1007A00002D004480078044400F01AF9401BA0422B
:1007B000FAD370BD00000020802805D164230522F3
:1007C00002A1044800F0D6BE70470000746F756344
:1007D00068000000E8000020044910B50A680242E1
:1007E00002D00860FFF7E8FF10BD0000143C014094
:1007F0002DE9F84FDFF8BCA10022012503264FF0B8
:100800000F090AF1040BAAF1040E00BF0B6805FAE8
:1008100002F42340A34270D10F7907F00307012FA0
:1008200001D0022F16D187684FEA420806FA08FC69
:1008300027EA0C07D1F80CC00CFA08FC4CEA070CAC
:10084000C0F808C04768A7430C79C4F3001494406B
:100850003C4344600C79E443A4070AD0C4684FEADF
:10086000420C06FA0CF7BC438F6807FA0CF72743D3
:10087000C7600C7904F00304022C12D1D40800EBF9
:10088000840CDCF820405707FF0E09FA07F824EA29
:100890000804D1F8108008FA07F848EA0408CCF8F0
:1008A000208004684FEA420C06FA0CF7BC430F792B
:1008B00007F0030707FA0CF7274307604C6814F4A6
:1008C000403F70D03C4C276847F48047276024683D
:1008D00022F0030704F480440094384C07EB040C26
:1008E000DCF8084897074FEA177809FA08F7BC437D
:1008F000334FB84202D1002724E054E0314FB842D0
:1009000001D101271EE0304FB84201D1022719E082
:100910002E4FB84201D1032714E02D4FB84201D128
:1009200004270FE02B4FB84201D105270AE02A4FD8
:10093000B84201D1062705E0284FB84201D1072768
:1009400000E0082707FA08F72743CCF80878DAF818
:1009500000405746D1F804C09C435FEACC2C00D538
:100960001C433C60DBF800405F46D1F804C09C4368
:100970005FEA8C2C00D51C433C60DEF800407746D3
:10098000D1F804C09C435FEA8C3C00D51C433C601A
:10099000084F083F3C68D1F804C09C435FEACC3C58
:1009A00000D51C433C60521C102AFFF42FAFBDE859
:1009B000F88F0000083C01404438024000300140FC
:1009C000000002400004024000080240000C024007
:1009D000001002400014024000180240001C0240B7
:1009E00001488068704700000000002002488168CC
:1009F0000278114481607047000000200B4810B558
:100A0000016841F400710160016841F48061016096
:100A1000016841F480710160032000F077F8002044
:100A200000F006F800F024F8002010BD003C024061
:100A300070B50D4D04464FF47A712878B1FBF0F093
:100A40000A490968B1FBF0F000F014FB48B9102C1A
:100A500007D200222146501E00F038F800206C60BA
:100A600070BD012070BD0000000000200C000020BF
:100A70000E4808B5016841F480410160006800F447
:100A8000804000900948001F016841F080510160DA
:100A90000068002200F0805000901146052000F010
:100AA00015F8BDE80840052000F002B844380240BF
:100AB000002809DB00F01F0201219140400980005D
:100AC00000F1E020C0F8001170470000F0B40E4BB8
:100AD0001B680C46C3F30223C3F10705042D00D99C
:100AE0000425191D072901D2002300E0DB1E012681
:100AF00006FA05F1491E214099409E40761E164097
:100B00003143F0BC01F0B4B80CED00E0064900F050
:100B1000070208684FF6FF03184040EA0220034A24
:100B200010430860704700000CED00E00000FA057B
:100B30002DE9F0470E46050065D0DFF81481D8F89E
:100B40000000F7B200F00700B04207D288F800704A
:100B5000D8F8000000F00700B04254D128683D4C9E
:100B6000810712D5400703D5206840F4E05020608B
:100B70002878000703D5206840F460402060206892
:100B8000A96820F0F000084320602878C0072DD025
:100B9000304968680839012812D0022813D0032888
:100BA00011D00968890700292DDA216821F0030195
:100BB00001432160FFF714FF814641F2883A0EE0BD
:100BC00009688903EFE709688901ECE7FFF708FF87
:100BD000A0EB0901514502D90320BDE8F087206848
:100BE000696800F00C00B0EB810FEFD1D8F800106D
:100BF000404601F00701B14207D90770006800F0D4
:100C00000700B04201D00120E7E72878400705D56A
:100C10002068E96820F4E050084320602878000745
:100C200006D52068296920F4604040EAC1002060B0
:100C300000F038F82168084AC1F30311515CC8403C
:100C40000649086006480068FFF7F2FE0020C4E786
:100C5000003C024008380240C61C00080C0000207E
:100C6000040000200448054900680968044AC1F3EB
:100C70008221515CC84070470C00002008380240B7
:100C8000D61C00080448054900680968044AC1F3F5
:100C90004231515CC84070470C00002008380240C7
:100CA000D61C0008154810B5006810F00C02144856
:100CB00013D01449042A0FD0082A0ED10F4C241F38
:100CC0002268236802F03F025B0207D52068C0F368
:100CD0008810A0FB010106E0084610BD2168C1F3A1
:100CE0008811A1FB00010023FFF7BEFA2168C1F3C0
:100CF0000141491C4900B0FBF1F010BD0838024029
:100D00000024F40040787D012DE9F84F04006ED0F6
:100D10002078DFF84C93C007A9F104054AD009F107
:100D200004000168C1F38101012908D00068C0F303
:100D3000810002280AD1D9F80000400206D52868AF
:100D4000800337D560680028E1D033E06068B0F5F3
:100D5000803F10D0B0F5A02F286810D020F480304C
:100D60002860286820F4802028606068A8B1FFF718
:100D700037FE06460DE0286840F48030F4E740F482
:100D800080202860F7E700BFFFF72AFE801B642859
:100D900073D828688003F7D50CE0FFF721FE0646DC
:100DA00005E000BFFFF71CFE801B6428F0D8286810
:100DB0008003F7D42078DFF8AC8280074FF0000A78
:100DC0003ED5A748001D016811F00C0F08D000683F
:100DD000C0F3810002280BD1D9F80000400207D4EB
:100DE0002868800716D5E068012800D112E033E1B9
:100DF000E068B8B10120C8F80000FFF7F1FD064631
:100E000005E000BFFFF7ECFD801B0228C0D8286872
:100E10008007F7D52868216920F0F80040EAC10072
:100E200028600DE0C8F800A0FFF7DAFD064604E0F0
:100E3000FFF7D6FD801B02281FD828688007F7D44B
:100E40002078000722D5864F87486169703771B1D5
:100E500001210160FFF7C4FD064604E0FFF7C0FD75
:100E6000801B022809D838688007F7D50EE0C0F843
:100E700000A0FFF7B5FD064605E082E0FFF7B0FDF4
:100E8000801B02287DD838688007F7D42078400777
:100E900068D5DFF8CCB100270BF13C0BDBF8000084
:100EA000C0000BD4DBF8001041F08051CBF80010EB
:100EB000DBF80000012700F0805000906B4E306896
:100EC000C00510D4306840F480703060FFF788FDB2
:100ED000009005E0FFF784FD0099401A022850D8E1
:100EE0003068C005F6D55E4EA0686C3601280FD07C
:100EF0000528306810D020F001003060306820F004
:100F000004003060A068B8B1FFF76AFD00900FE000
:100F1000306840F00100F4E740F004003060F7E78B
:100F2000FFF75EFD0099411A41F28830814266D890
:100F300030688007F4D50EE0FFF752FD009007E01F
:100F4000FFF74EFD0099411A41F28830814256D890
:100F500030688007F4D42FB1DBF8001021F0805105
:100F6000CBF80010A069C8B33D49091D0968C1F359
:100F7000810102294AD00228504607D0C8F86000F3
:100F800000E03CE0FFF72CFD04463BE04746C8F894
:100F90006000FFF725FD064605E000BFFFF720FDD6
:100FA000801B02282BD828688001F7D4D4E90701D8
:100FB0000843A16A2E4A490802EB0141626A41EAEC
:100FC0008211084394F82C1040EA0161C9F800101E
:100FD00001203866FFF704FD044606E03EE000BF4E
:100FE000FFF7FEFC001B022809D828688001F7D50E
:100FF00034E000BFFFF7F4FC001B022802D90320F5
:10100000BDE8F88F28688001F4D427E00128F7D0E4
:10101000D9F80000E26900F4800191421CD1226AF3
:1010200000F03F01914217D147F6C071626A01405A
:10103000B1EB821F10D1A26A4FF0FF3300F44031B0
:1010400003EB5202B1EB024F06D194F82C1000F0E2
:101050007060B0EB016F01D00120D1E70020CFE735
:101060000438024000004742800E474200700040B2
:101070000000FFFF10B5401EB0F1807F01D30120BA
:1010800010BD4FF0E02460610F21601700F0F0FD0B
:101090000020A06107202061002010BD704770472C
:1010A00070B590F83C20012A32D0012480F83C40F1
:1010B000022280F83D2003685A689D6822F070067D
:1010C0000A6832435A60134B02689A4214D0B2F154
:1010D000804F11D0104B9A420ED0104B9A420BD039
:1010E0000F4B9A4208D00F4B9A4205D00E4B9A42B2
:1010F00002D00E4B9A4204D1496825F0800319436F
:10110000916080F83D40002180F83C10084670BD99
:10111000022070BD000001400004004000080040B3
:10112000000C004000040140004001400018004055
:1011300010B5040003D094F83D0010B107E0012081
:1011400010BD002084F83C00204600F01FF802206B
:1011500084F83D00211D206800F002FC012084F885
:10116000460084F83E0084F83F0084F8400084F88C
:10117000410084F8420084F8430084F8440084F875
:10118000450084F83D00002010BD000008B500684F
:10119000B0F1804F12D10A48016841F001010160AD
:1011A0000068002200F0010000900E211C20FFF7D3
:1011B0008DFCBDE808401C20FFF77ABC08BD00008C
:1011C0004038024070B5044690F83C0000250128E4
:1011D00017D0012684F83C60022084F83D00206886
:1011E000826822F0770222F47F42826008685028E9
:1011F00038D00DDC20284FD005DC90B3102811D159
:101200004AE0022070BD302846D040280AD13BE099
:1012100060282FD070280DD0B0F5805F03D0B0F5D6
:10122000005F12D0012584F83D60002084F83C0066
:10123000284670BDCB68D1E90121206800F0FCFB95
:101240002068816841F0770109E0CB68D1E901218C
:10125000206800F0F1FB2068816841F480418160E2
:10126000E1E719E0CA684968206800F0F7FB5021FF
:10127000206806E0CA684968206800F000FC602128
:10128000206800F0E3FBCEE7CA684968206800F0F8
:10129000E5FB40212068F4E7226801461046F0E7AC
:1012A00070472DE9F04104460068C66805694FF0B3
:1012B0000007A90713D5B10711D5F91E0161012057
:1012C0002077206880698007204602D0FFF7E8FF7A
:1012D00004E000F07EF8204600F07CF827776807ED
:1012E00016D5700714D521686FF00400086102203C
:1012F00020772068806910F4407F204602D0FFF7F5
:10130000CFFF04E000F065F8204600F063F827778F
:10131000280715D5300713D521686FF0080008613C
:10132000042020772068C0698007204602D0FFF79C
:10133000B7FF04E000F04DF8204600F04BF82777A7
:10134000E80616D5F00614D521686FF01000086184
:10135000082020772068C06910F4407F204602D022
:10136000FFF79EFF04E000F034F8204600F032F86A
:101370002777E80708D0F00706D021686FF0010052
:101380000861204600F028F8280608D5300606D562
:1013900021686FF0800008612046FFF77FFE680635
:1013A00008D5700606D521686FF040000861204618
:1013B00000F024F8A8060AD5B00608D521686FF019
:1013C000200008612046BDE8F041FFF768BEBDE897
:1013D000F0817047704700000449884205D16423BA
:1013E000042203A1044800F0C5B87047A000002003
:1013F0006E6968616F000000E8000020704770B5FA
:10140000040004D094F84100002510B106E001204A
:1014100070BD84F84050204600F024F8242084F861
:1014200041002068C16821F40051C160204600F0ED
:101430005FFB2068016921F49041016120684169E6
:1014400021F02A0141612068C16841F40051C16066
:101450006564202084F8410084F842006563002020
:1014600070BD0000F0B587B0044614216846FEF751
:1014700072FF394A236800243849022503260727CA
:101480003748934219D1354A1432136843F0100398
:101490001360126802F0100205920A6842F001021D
:1014A0000A60096802AA01F0010105917102CDE903
:1014B000001582E8D00069462CE0284ADFF8A4C075
:1014C000103263452AD1136843F400331360126865
:1014D00002F4003205920A6842F001020A600A68CA
:1014E00002F0010205920A6842F008020A600968E7
:1014F00002AB01F0080105910821CDE9001583E850
:10150000D0006946FFF774F92020CDE9000569464F
:1015100015481CE0FFF76CF907B0F0BD1348834293
:10152000FAD1106840F480201060106800F4802028
:101530000590086840F0020008600868694600F0FD
:10154000020005904FF44060CDE90005084802AB69
:1015500083E8D000DEE70000001001403038024090
:101560000000024000440040000C024000480040DF
:10157000000402402DE9F843044690F841009846E3
:1015800016460D46202802D00220BDE8F88385B11A
:101590007EB100206064212084F84100FFF720FA2A
:1015A000A6848146E684A0682027B0F5805F02D03B
:1015B00003E00120E9E7206910B12E4600250EE086
:1015C00000260CE08021204600F018FBA8B9C6B127
:1015D00016F8010B21684860E08C401EE084E08C26
:1015E0004B464FF00002CDF800800028EAD14FF0C2
:1015F0004001204600F002FB40B184F84170032016
:10160000C3E735F8020BC0F30800E3E784F8417044
:101610000020BAE7FEE700007FB5002415480094DB
:10162000019402941249039401604FF40031C0E91F
:1016300001140461047680F820400F49C0E90A14BF
:101640000125C561C46080F830404561FFF72AF884
:1016500008B1FEF77EFF0095CDE9015469460548C3
:10166000FEF77AFF002801D0FEF773FF7FBD000070
:1016700000200140100000200100000F7FB5002471
:1016800015480094019402941249039401604FF4A8
:101690000031C0E901140461047680F820400F494C
:1016A000C0E90A140125C561C46080F83040456175
:1016B000FEF7F8FF08B1FEF74CFF0D20CDE900055D
:1016C000694602940448FEF747FF002801D0FEF760
:1016D00040FF7FBD00210140580000200100000FA5
:1016E00010B586B014216846FEF735FE2448002167
:1016F000026842F020020260026802F020020592B5
:10170000026842F004020260026802F004020592DC
:10171000026842F001020260026802F001020592D2
:10172000026842F002020260026802F002020592C0
:10173000026842F0080202600068124C00F00800E3
:1017400005904020CDE90001012002906946204625
:10175000FFF74EF8802000904FF48810019002208F
:10176000029069462046FFF743F800220121172026
:10177000FFF7ACF91720FFF79BF906B010BD00008A
:10178000303802400014024010B586B000241948D9
:10179000009401940294039404944FF080410594C2
:1017A00001604AF210414160102181604FF47A617A
:1017B000C1604FF40071016180218161FFF7B8FCC5
:1017C00008B1FEF7C6FE4FF4805000906946094804
:1017D000FFF7F8FC08B1FEF7BCFE049404A9054825
:1017E0000594FFF75DFC002801D0FEF7B2FE06B0BD
:1017F00010BD0000A00000200C4810B50A4901608F
:101800004FF4E1314160002181600C22C160C0E9E8
:1018100004128161C161FFF7F2FD002803D0BDE829
:101820001040FEF796BE10BD00100140E8000020F9
:101830000C4810B50A4901604FF461414160002134
:1018400081600C22C160C0E904128161C161FFF7AF
:10185000D6FD002803D0BDE81040FEF77ABE10BDCB
:1018600000440040300100200C4810B50A490160D6
:101870004FF416514160002181600C22C160C0E923
:1018800004128161C161FFF7BAFD002803D0BDE8F1
:101890001040FEF75EBE10BD0048004078010020F9
:1018A000FEE7FEE7704770477047FFF79FB80000FC
:1018B00030B593B030216846FEF74DFD14210CA8D9
:1018C000FEF749FD1D480025016841F08051016087
:1018D000006800F0805011901948016841F480417F
:1018E00001600068022400F4804011900120039000
:1018F00010200490009406940820CDE90750A820F9
:10190000CDE9090404200B906846FFF7FDF908B102
:1019100072B6FEE70CA90F2081E831004FF4A05009
:101920000F904FF48050109005210CA8FFF700F99C
:10193000002801D072B6FEE713B030BD4038024037
:10194000007000400248016841F470010160704776
:1019500088ED00E00148FFF7A4BC0000A0000020D3
:10196000F0B50268294C2A4D2A4E2B4F2B4B4FF0D5
:10197000804CA04209D0604507D0A84205D0B042B3
:1019800003D0B84201D0984204D122F0700E4A68C8
:1019900042EA0E02A0421BD0604519D0A84217D0DF
:1019A000B04215D0B84213D0984211D01C4DA84275
:1019B0000ED01C4DA8420BD01B4DA84208D01B4D89
:1019C000A84205D01A4DA84202D01A4DA84203D110
:1019D00022F44075CA682A434D6922F080022A43E6
:1019E00002608A68C2620A688262A04201D098429C
:1019F00001D109690163012141610169C90703D06E
:101A0000016921F001010161F0BD00000000014009
:101A10000004004000080040000C004000040140A9
:101A200000400140004401400048014000180040CF
:101A3000001C00400020004010B5846842EA0322E8
:101A400024F47F440A432243826010BD826822F05E
:101A500070020A4342F007018160704710B5036AC3
:101A6000046A24F001040462846924F0F00444EA66
:101A7000021423F00A020A438461026210BD10B509
:101A8000036A046A24F010040462846923F0A0034A
:101A900024F4704444EA023243EA01118261016293
:101AA00010BD01680C3151E8002F22F4907241E81A
:101AB0000023002BF5D10168143151E8002F22F0EA
:101AC000010241E80023002BF5D1016B012909D166
:101AD00001680C3151E8002F22F0100241E8002388
:101AE000002BF5D1202180F84210002101637047BE
:101AF00070B5044600680169E26821F44051114361
:101B000001612169A068E2690843616911430843E2
:101B10002168CA6849F20C639A430243CA6020688C
:101B20004169A26921F44071114341613149206842
:101B3000884202D03049884202D1FFF7A3F801E081
:101B4000FFF790F8E2690023192164253226B2F5E7
:101B5000004F626828D0A0FB0101930F9200FEF7AE
:101B600083FB0146B0FBF5F06FF01802504301EB28
:101B7000800006EB0010B0FBF5F000F0F002B1FBC6
:101B8000F5F002EB0012B1FBF5F06FF018035843CB
:101B900001EB800006EB0010B0FBF5F000F00F0049
:101BA00021681044886070BDA0FB010192185B4160
:101BB000FEF75AFB0146B0FBF5F00201B1FBF5F070
:101BC0006FF01803584301EB800006EBC000B0FB38
:101BD000F5F000F0F80002EB4002B1FBF5F05843DD
:101BE00001EB800006EBC000B0FBF5F000F0070051
:101BF000D6E7000000100140001401402DE9F84331
:101C0000984617460D460446089E24E0701C22D0D4
:101C1000FEF7E6FEA0EB0800B0421AD8CEB120686D
:101C2000C168490717D5802D15D0402D13D0016804
:101C3000C94309070FD40168002540680090204679
:101C4000FFF72FFF0820606484F840500120BDE8B2
:101C5000F8830320FBE72068006835EA000004D021
:101C60000020B842D2D00020F1E70120F9E7FEE7DA
:101C70000907090E002804DB00F1E02080F80014B9
:101C8000704700F00F0000F1E02080F8141D70474D
:101C9000FEF7B4FEFFF70CFEFFF722FDFFF7BCFCDA
:101CA000FFF7ECFCFFF770FDFFF7A6FDFFF7C0FDA7
:101CB000FFF7DAFD6420FEF76DFDFBE74FF04070A3
:101CC000E1EE100A70470000000000000000010271
:101CD00003040607080900000000010203040000D5
:101CE000001D00080000002010000000C4010008D2
:101CF000101D00081000002010080000E00100087E
:101D00000100000010000000000000000024F400AA
:040000050800018965
:00000001FF
